:020000040800F2
:1000000000280020450E0008FD0B0008030C000826
:10001000090C00080F0C0008150C00080000000077
:100020000000000000000000000000001B0C0008A1
:10003000270C000800000000330C00083F0C0008EB
:100040008D0E00088D0E00088D0E00088D0E000824
:100050008D0E00088D0E00088D0E00088D0E000814
:100060008D0E00088D0E00088D0E00088D0E000804
:100070008D0E00088D0E00088D0E00088D0E0008F4
:100080008D0E00088D0E00088D0E00088D0E0008E4
:100090008D0E00088D0E00088D0E00088D0E0008D4
:1000A0008D0E00088D0E00088D0E00088D0E0008C4
:1000B0004D0C00088D0E0008000000008D0E000899
:1000C0008D0E000800000000000000008D0E0008EA
:1000D000000000008D0E00088D0E000800000000DA
:1000E0008D0E00088D0E00088D0E00080000000027
:1000F0000000000000000000000000000000000000
:0C01000000000000000000005FF808F1A3
:10010C0010B5054C237833B9044B13B10448AFF345
:10011C0000800123237010BD480000200000000067
:10012C000027000808B5034B1BB103490348AFF384
:10013C00008008BD000000004C00002000270008D3
:10014C0080B500AF002000F077F90346002B01D0FA
:10015C000A2318E0012000F06FF90346002B01D0B0
:10016C000B2310E0022000F067F90346002B01D0AE
:10017C000C2308E0032000F05FF90346002B01D0AC
:10018C000D2300E00023184680BD000080B500AFB1
:10019C00614B1B68012B03D05F4B1B685F4A1360DC
:1001AC005F4B1B78022B00F0A780022B00F3AD8075
:1001BC00002B03D0012B00F08C80A6E0FFF7C0FFD2
:1001CC000346002B00F08180554B01221A70FFF77B
:1001DC00B7FF03460A3B032B79D801A252F823F050
:1001EC00FD0100089B020008D1020008DB02000898
:1001FC00494B1B68013B072B44D801A252F823F052
:10020C002D020008450200085D0200087502000876
:10021C00450200085D020008750200088B02000808
:10022C003D4B02221A603F4B1B683F4A13603E4B0A
:10023C001B683E4A136026E03D4B1B683A4A13602C
:10024C00394B1B68394A1360334B03221A601AE08E
:10025C00384B1B68344A1360334B1B68334A1360AA
:10026C002D4B04221A600EE02E4B1B682E4A136095
:10027C002D4B1B682D4A1360274B01221A60264B0D
:10028C0001221A6000BF264B01221A7020E0224B7B
:10029C001B68042B0ED0042B10DC022B02D0032B7A
:1002AC0004D00BE01C4B05221A6008E01A4B062206
:1002BC001A6004E0184B07221A6000E000BF00F03F
:1002CC00E3FC05E000F030FD02E000BF22E000BFDF
:1002DC0020E0FFF735FF0346002B03D1104B002223
:1002EC001A7014E0002000F0C9F80346002B0ED061
:1002FC000B4B02221A700AE0FFF722FF0346002B79
:10030C0007D1074B00221A7003E000BF02E000BFC8
:10031C0000E000BF00BF80BD1400002010000020D2
:10032C006C000020000000200C0000206400002065
:10033C00040000200800002080B582B000AF00232C
:10034C007B6061E0344A7B6813441978334A7B68DC
:10035C0013440A461A70324A7B6852F823203149FA
:10036C007B6831F813301946104601F075F80346D6
:10037C001946294A7B6813440A461A70264A7B6838
:10038C0013441A7825497B680B441B789A4238D160
:10039C00254A7B6813441978244A7B6813440A461F
:1003AC001A701D4A7B68134419781F4A7B681344E2
:1003BC000A461A701C4A7B6813441B78002B16D112
:1003CC001B4A7B6832F81330632B0AD8184A7B68B7
:1003DC0032F81330013399B2154A7B6822F81310A6
:1003EC000FE0144A7B68134401221A7009E0104A8A
:1003FC007B68002122F813100E4A7B6813440022FC
:10040C001A707B6801337B607B68032B9ADD00BF1D
:10041C0000BF0837BD4680BD780000207C0000205E
:10042C00180000202800002070000020740000201C
:10043C00840000208000002080B483B000AF03460D
:10044C00FB71FB79032B01D900230DE0FB79094AE1
:10045C00D35C002B06D1FB79074AD35C012B01D16D
:10046C00012300E00023DBB218460C37BD4680BCEC
:10047C00704700BF700000207400002080B483B06F
:10048C0000AF0346FB71FB79032B01D9FF2307E077
:10049C00FB79064AD35C012B0CBF01230023DBB292
:1004AC0018460C37BD4680BC704700BF800000204A
:1004BC0080B400AF1C4B1B68092B30DC1B4B00229B
:1004CC001A70194B1B68DAB2184B5A70184B1B6810
:1004DC00092B1BDD164B1B68164A82FB031292106C
:1004EC00DB17D31ADAB2114B9A70114B1A68114BF5
:1004FC0083FB02139910D317C91A0B469B000B44AC
:10050C005B00D11ACAB2094BDA7009E0074B002222
:10051C009A70074B1B68DAB2044BDA7000E000BF2C
:10052C00BD4680BC704700BF100000208C0000202E
:10053C000C0000206766666680B400AF034B4FF476
:10054C007F421A6100BFBD4680BC7047000C014061
:10055C0080B582B000AF78607B68032B72D801A2A3
:10056C0052F823F081050008B5050008E9050008DC
:10057C001D06000801221021354800F084FF0022DE
:10058C002021334800F07FFF00224021304800F04A
:10059C007AFF002280212E4800F075FF2D4B1B782E
:1005AC00184600F059F84EE000221021284800F0BF
:1005BC006AFF01222021264800F065FF002240211D
:1005CC00234800F060FF00228021214800F05BFFEF
:1005DC00204B5B78184600F03FF834E000221021E5
:1005EC001B4800F050FF00222021194800F04BFF5F
:1005FC0001224021164800F046FF002280211448B9
:10060C0000F041FF134B9B78184600F025F81AE0D8
:10061C00002210210E4800F036FF002220210C4849
:10062C0000F031FF00224021094800F02CFF01228C
:10063C008021074800F027FF064BDB78184600F0B6
:10064C000BF800E000BF00BF0837BD4680BD00BFFF
:10065C00000801408C00002080B483B000AF7860AB
:10066C00064BFF225A61064A7B6813441A78034BE7
:10067C001A6100BF0C37BD4680BC7047000C0140AE
:10068C003000002080B500AFFFF712FF084B1B684D
:10069C00032B02DD064B00221A60054B1B685A1C0B
:1006AC0003490A601846FFF753FF00BF80BD00BF27
:1006BC006800002080B500AF00F0E4FB00F02AF8E1
:1006CC0000F0DAF800F062F800F0ACF80E4801F037
:1006DC0075FB0E4BFF225A61FFF72EFF022000F034
:1006EC003FF9032000F050F9642000F061F9084B49
:1006FC001B68012B04D100F05BFB322000F030F9B9
:10070C00FFF744FDF3E700BFFC00002000080140A8
:10071C009000002080B590B000AF07F1180328229C
:10072C000021184601F0DEFF3B1D00221A605A60C2
:10073C009A60DA601A610223BB610123BB62102349
:10074C00FB6200237B6307F11803184600F0CCFE14
:10075C000346002B01D000F0FDF80F237B60002333
:10076C00BB600023FB6000233B6100237B613B1DCE
:10077C000021184601F038F90346002B01D000F097
:10078C00E9F800BF4037BD4680BD000080B586B09B
:10079C0000AF07F1080300221A605A609A60DA6011
:1007AC003B4600221A605A601D4B4FF080421A6083
:1007BC001B4B41F63F725A60194B00229A60184B42
:1007CC000922DA60164B00221A61154B00229A613D
:1007DC00134801F0A3FA0346002B01D000F0BAF83D
:1007EC004FF48053BB6007F1080319460C4801F025
:1007FC0039FC0346002B01D000F0ACF800233B6021
:10080C0000237B603B461946054801F001FE034678
:10081C00002B01D000F09EF800BF1837BD4680BDFC
:10082C00FC00002080B500AF114B124A1A60104B2F
:10083C004FF4E1325A600E4B00229A600C4B0022AE
:10084C00DA600B4B00221A61094B0C225A61084BDF
:10085C0000229A61064B0022DA61054801F042FE43
:10086C000346002B01D000F075F800BF80BD00BF1F
:10087C00B80000200038014080B586B000AF07F109
:10088C00080300221A605A609A60DA602E4B9B694A
:10089C002D4A43F0040393612B4B9B6903F0040333
:1008AC007B607B68284B9B69274A43F00803936164
:1008BC00254B9B6903F008033B603B680022F02149
:1008CC00224800F0E0FD002243F6F871204800F0C9
:1008DC00DAFDF023BB600123FB6000233B610223A4
:1008EC007B6107F108031946184800F03BFC07230D
:1008FC00BB600023FB6001233B6107F10803194631
:10090C00134800F02FFC43F6F873BB600123FB6027
:10091C0000233B6102237B6107F1080319460C4855
:10092C0000F020FC4FF47043BB600023FB600123FC
:10093C003B6107F108031946044800F013FC00BFA3
:10094C001837BD4680BD00BF0010024000080140B2
:10095C00000C014080B400AF72B600BFFEE700008F
:10096C0080B483B000AF7860054A7B681360054B98
:10097C0000221A6000BF0C37BD4680BC704700BF18
:10098C00A40000209000002080B483B000AF7860F9
:10099C00054A7B681360054B00221A6000BF0C37B8
:1009AC00BD4680BC704700BFA8000020940000200A
:1009BC0080B483B000AF7860054A7B681360054B48
:1009CC0000221A6000BF0C37BD4680BC704700BFC8
:1009DC00AC0000209800002080B400AF294B1B68AD
:1009EC00002B0BDD274B1B68013B264A1360254B64
:1009FC001B68002B02DC244B01221A60234B1B6862
:100A0C00002B0BDD214B1B68013B204A13601F4B55
:100A1C001B68002B02DC1E4B01221A601D4B1B684D
:100A2C00002B0BDD1B4B1B68013B1A4A1360194B47
:100A3C001B68002B02DC184B01221A60174B1B6839
:100A4C00002B0BDD154B1B68013B144A1360134B39
:100A5C001B68002B02DC124B01221A60114B1B6825
:100A6C00002B0BDD0F4B1B68013B0E4A13600D4B2B
:100A7C001B68002B02DC0C4B01221A6000BFBD4628
:100A8C0080BC7047A400002090000020A80000202B
:100A9C0094000020AC00002098000020B000002042
:100AAC009C000020B4000020A000002080B485B081
:100ABC0000AF154B9B69144A43F001039361124B31
:100ACC009B6903F00103BB60BB680F4BDB690E4AEB
:100ADC0043F08053D3610C4BDB6903F080537B6094
:100AEC007B680A4B5B68FB60FB6823F0E063FB6090
:100AFC00FB6843F08063FB60044AFB68536000BFF3
:100B0C001437BD4680BC7047001002400000014005
:100B1C0080B584B000AF78607B681B68B3F1804F00
:100B2C0013D10C4BDB690B4A43F00103D361094B26
:100B3C00DB6903F00103FB60FB68002200211C2031
:100B4C0000F0D9FA1C2000F0F2FA00BF1037BD46B5
:100B5C0080BD00BF0010024080B588B000AF786047
:100B6C0007F1100300221A605A609A60DA607B6801
:100B7C001B681C4A934231D11B4B9B691A4A43F4A4
:100B8C0080439361184B9B6903F48043FB60FB68C3
:100B9C00154B9B69144A43F004039361124B9B69F8
:100BAC0003F00403BB60BB684FF400733B6102238A
:100BBC007B610323FB6107F1100319460B4800F01E
:100BCC00D1FA4FF480633B6100237B610023BB614E
:100BDC0007F110031946054800F0C4FA00BF20378E
:100BEC00BD4680BD003801400010024000080140A5
:100BFC0080B400AFFEE780B400AFFEE780B400AF76
:100C0C00FEE780B400AFFEE780B400AFFEE780B42F
:100C1C0000AF00BFBD4680BC704780B400AF00BFC2
:100C2C00BD4680BC704780B400AF00BFBD4680BCE1
:100C3C00704780B500AF00F06BF900BF80BD0000BD
:100C4C0080B500AF024801F005F900BF80BD00BFC0
:100C5C00FC00002080B400AF00BFBD4680BC7047D4
:100C6C0080B582B000AF78607B681B68B3F1804FB1
:100C7C0003D1FFF761FBFFF705FDFFF7ADFE00BFEA
:100C8C000837BD4680BD000080B400AF234B1B6805
:100C9C00013B062B3AD801A252F823F0190D00089B
:100CAC00190D0008190D0008190D0008C50C0008D5
:100CBC00E10C0008FD0C0008194B1B68622B03DDCE
:100CCC00174B00221A6021E0154B1B680133144AA4
:100CDC0013601BE0124B1B68622B03DD104B0022D0
:100CEC001A6013E00E4B1B6801330D4A13600DE0C4
:100CFC000B4B1B68622B03DD094B00221A6004E0CE
:100D0C00074B1B680133064A136000BF044B1B687A
:100D1C00044A136000BFBD4680BC7047140000201D
:100D2C00640000200C00002080B400AF1A4B1B683C
:100D3C00013B062B2BD801A252F823F09B0D000887
:100D4C009B0D00089B0D00089B0D0008650D00080D
:100D5C00770D0008890D0008104B1B68104A1360B2
:100D6C000F4B1B680F4A136012E00C4B1B680E4AAA
:100D7C0013600D4B1B680B4A136009E0074B1B6893
:100D8C000A4A1360094B1B68064A136000E000BF57
:100D9C0000BFBD4680BC70471400002064000020DA
:100DAC00000000200C00002004000020080000209F
:100DBC0080B500AF1E4B1B68013B062B35D801A23A
:100DCC0052F823F0350E0008ED0D0008050E000852
:100DDC001D0E0008ED0D0008050E00081D0E000884
:100DEC0001224FF45851134800F04DFB4FF41061A1
:100DFC00104800F060FB18E001224FF434510D480C
:100E0C0000F041FB4FF490510A4800F054FB0CE009
:100E1C0001224FF4D851074800F035FB4FF4105124
:100E2C00044800F048FB00E000BF00BF80BD00BFDD
:100E3C0014000020000C01400C480D490D4A002301
:100E4C0002E0D458C4500433C4188C42F9D30A4A73
:100E5C000A4C002301E013600432A242FBD3FFF7DB
:100E6C00F9FE01F01BFCFFF725FC70470000002089
:100E7C0048000020482700084800002048010020B6
:100E8C00FEE7000080B500AF084B1B68074A43F033
:100E9C0010031360032000F023F90F2000F008F872
:100EAC00FFF704FE0023184680BD00BF002002405F
:100EBC0080B582B000AF7860124B1A68124B1B7869
:100ECC0019464FF47A73B3FBF1F3B2FBF3F3184604
:100EDC0000F03BF90346002B01D001230EE07B68A8
:100EEC000F2B0AD8002279684FF0FF3000F003F97D
:100EFC00064A7B681360002300E00123184608377C
:100F0C00BD4680BD3C000020440000204000002075
:100F1C0080B400AF054B1B781A46054B1B68134475
:100F2C00034A136000BFBD4680BC704744000020DC
:100F3C004401002080B400AF024B1B681846BD462C
:100F4C0080BC70474401002080B485B000AF78604D
:100F5C007B6803F00703FB600C4BDB68BB60BA6873
:100F6C004FF6FF031340BB60FB681A02BB681343C8
:100F7C0043F0BF6343F40033BB60044ABB68D360E7
:100F8C0000BF1437BD4680BC704700BF00ED00E0C9
:100F9C0080B400AF044BDB681B0A03F00703184650
:100FAC00BD4680BC704700BF00ED00E080B483B04C
:100FBC0000AF0346FB7197F90730002B0BDBFB7975
:100FCC0003F01F02064997F907305B09012000FA6C
:100FDC0002F241F8232000BF0C37BD4680BC70479D
:100FEC0000E100E080B483B000AF03463960FB71D0
:100FFC0097F90730002B0ADB3B68DAB20C4997F9FA
:10100C0007301201D2B20B4483F800230AE03B688C
:10101C00DAB20849FB7903F00F03043B1201D2B298
:10102C000B441A7600BF0C37BD4680BC704700BF1E
:10103C0000E100E000ED00E080B489B000AFF860A2
:10104C00B9607A60FB6803F00703FB61FB69C3F1CD
:10105C000703042B28BF0423BB61FB690433062B55
:10106C0002D9FB69033B00E000237B614FF0FF32A8
:10107C00BB6902FA03F3DA43BB681A407B699A40F6
:10108C004FF0FF317B6901FA03F3D9437B680B40C6
:10109C00134318462437BD4680BC704780B582B0D8
:1010AC0000AF78607B68013BB3F1807F01D30123F3
:1010BC000FE00A4A7B68013B53600F214FF0FF3071
:1010CC00FFF790FF054B00229A60044B07221A6031
:1010DC00002318460837BD4680BD00BF10E000E075
:1010EC0080B582B000AF78607868FFF72DFF00BF45
:1010FC000837BD4680BD80B586B000AF0346B960E9
:10110C007A60FB7300237B61FFF742FF78617A689A
:10111C00B9687869FFF790FF024697F90F301146CE
:10112C001846FFF75FFF00BF1837BD4680BD80B57E
:10113C0082B000AF0346FB7197F907301846FFF7F2
:10114C0035FF00BF0837BD4680BD80B582B000AF0B
:10115C0078607868FFF7A2FF034618460837BD464B
:10116C0080BD000080B48BB000AF78603960002384
:10117C007B6200233B6248E101227B6A02FA03F3A3
:10118C00FB613B681B68FA691340BB61BA69FB6978
:10119C009A4240F037813B685B68A34A93425ED029
:1011AC00A14A934275D8A14A934258D09F4A934280
:1011BC006FD89F4A934252D09D4A934269D89D4A18
:1011CC0093424CD09B4A934263D89B4A934246D05D
:1011DC00994A93425DD8122B2AD8122B59D801A2C6
:1011EC0052F823F06B120008451200085712000841
:1011FC00991200089F1200089F1200089F12000805
:10120C009F1200089F1200089F1200089F120008EE
:10121C009F1200089F1200089F1200089F120008DE
:10122C009F1200089F1200084D120008611200085E
:10123C00824A934213D02CE03B68DB683B6229E086
:10124C003B68DB6804333B6224E03B68DB680833B3
:10125C003B621FE03B68DB680C333B621AE03B6887
:10126C009B68002B02D104233B6213E03B689B6814
:10127C00012B05D108233B627B68FA691A6109E0EE
:10128C0008233B627B68FA695A6103E000233B62E6
:10129C0000E000BFBB69FF2B01D87B6801E07B68D5
:1012AC0004337B61BB69FF2B02D87B6A9B0002E095
:1012BC007B6A083B9B003B617B691A680F213B6989
:1012CC0001FA03F3DB431A40396A3B6901FA03F371
:1012DC001A437B691A603B685B6803F08053002BF0
:1012EC0000F09080564B9B69554A43F00103936183
:1012FC00534B9B6903F00103BB60BB68514A7B6A8B
:10130C009B08023352F82330FB607B6A03F0030323
:10131C009B000F2202FA03F3DB43FA681340FB60D5
:10132C007B68494A93420DD07B68484A934207D068
:10133C007B68474A934201D1022304E0032302E075
:10134C00012300E000237A6A02F00302920093402A
:10135C00FA681343FB603B497B6A9B080233FA68CB
:10136C0041F823203B685B6803F48033002B06D0E4
:10137C00384B1A683749BB6913430B6006E0354B91
:10138C001A68BB69DB43334913400B603B685B68ED
:10139C0003F40033002B06D02E4B5A682D49BB6941
:1013AC0013434B6006E02B4B5A68BB69DB4329495E
:1013BC0013404B603B685B6803F48013002B06D032
:1013CC00244B9A682349BB6913438B6006E0214B7D
:1013DC009A68BB69DB431F4913408B603B685B68B1
:1013EC0003F40013002B06D01A4BDA681949BB69B9
:1013FC001343CB6006E0174BDA68BB69DB43154936
:10140C001340CB607B6A01337B623B681A687B6A52
:10141C0022FA03F3002B7FF4AFAE00BF00BF2C37D2
:10142C00BD4680BC704700BF000032100000311078
:10143C0000002210000021100000121000001110FA
:10144C00001002400000014000080140000C014067
:10145C00001001400004014080B485B000AF7860FA
:10146C000B467B807B689A687B881340002B02D0EC
:10147C000123FB7301E00023FB73FB7B184614373D
:10148C00BD4680BC704780B483B000AF78600B461B
:10149C007B8013467B707B78002B03D07A887B682B
:1014AC001A6103E07B881A047B681A6100BF0C3751
:1014BC00BD4680BC704780B485B000AF78600B46E9
:1014CC007B807B68DB68FB607A88FB6813401A04BE
:1014DC00FB68D9437B880B401A437B681A6100BFB9
:1014EC001437BD4680BC704780B586B000AF7860BD
:1014FC007B68002B01D101236CE27B681B6803F035
:10150C000103002B00F08780924B5B6803F00C0307
:10151C00042B0CD08F4B5B6803F00C03082B12D1FF
:10152C008C4B5B6803F48033B3F5803F0BD1894B54
:10153C001B6803F40033002B6CD07B685B68002BBA
:10154C0068D1012346E27B685B68B3F5803F06D126
:10155C00804B1B687F4A43F4803313602EE07B681A
:10156C005B68002B0CD17B4B1B687A4A23F48033CD
:10157C001360784B1B68774A23F4802313601DE0BB
:10158C007B685B68B3F5A02F0CD1724B1B68714A5A
:10159C0043F4802313606F4B1B686E4A43F4803313
:1015AC0013600BE06B4B1B686A4A23F480331360A7
:1015BC00684B1B68674A23F4802313607B685B6865
:1015CC00002B13D0FFF7B6FC386108E0FFF7B2FC34
:1015DC0002463B69D31A642B01D90323FAE15D4B14
:1015EC001B6803F40033002BF0D014E0FFF7A2FCCF
:1015FC00386108E0FFF79EFC02463B69D31A642B66
:10160C0001D90323E6E1534B1B6803F40033002B91
:10161C00F0D100E000BF7B681B6803F00203002BD5
:10162C0063D04C4B5B6803F00C03002B0BD0494B85
:10163C005B6803F00C03082B1CD1464B5B6803F46E
:10164C008033002B16D1434B1B6803F00203002B95
:10165C0005D07B681B69012B01D00123BAE13D4BFE
:10166C001B6823F0F8027B685B69DB003949134384
:10167C000B603AE07B681B69002B20D0364B0122B3
:10168C001A60FFF757FC386108E0FFF753FC02467D
:10169C003B69D31A022B01D903239BE12D4B1B6809
:1016AC0003F00203002BF0D02A4B1B6823F0F80246
:1016BC007B685B69DB00274913430B6015E0264B05
:1016CC0000221A60FFF736FC386108E0FFF732FCA5
:1016DC0002463B69D31A022B01D903237AE11D4B35
:1016EC001B6803F00203002BF0D17B681B6803F02E
:1016FC000803002B3AD07B689B69002B19D0174B41
:10170C0001221A60FFF716FC386108E0FFF712FCA3
:10171C0002463B69D31A022B01D903235AE10D4B24
:10172C005B6A03F00203002BF0D0012000F0D8FA22
:10173C001CE00A4B00221A60FFF7FCFB38610FE03B
:10174C00FFF7F8FB02463B69D31A022B08D9032397
:10175C0040E100BF001002400000424280044242BF
:10176C009E4B5B6A03F00203002BE9D17B681B687C
:10177C0003F00403002B00F0A6800023FB75974BAD
:10178C00DB6903F08053002B0DD1944BDB69934A3A
:10179C0043F08053D361914BDB6903F08053BB6002
:1017AC00BB680123FB758E4B1B6803F48073002B05
:1017BC0018D18B4B1B688A4A43F480731360FFF774
:1017CC00B9FB386108E0FFF7B5FB02463B69D31A59
:1017DC00642B01D90323FDE0814B1B6803F4807358
:1017EC00002BF0D07B68DB68012B06D17B4B1B6A8E
:1017FC007A4A43F0010313622DE07B68DB68002B0F
:10180C000CD1764B1B6A754A23F001031362734BA0
:10181C001B6A724A23F0040313621CE07B68DB68CA
:10182C00052B0CD16D4B1B6A6C4A43F004031362FD
:10183C006A4B1B6A694A43F0010313620BE0674B66
:10184C001B6A664A23F001031362644B1B6A634AEA
:10185C0023F0040313627B68DB68002B15D0FFF7C1
:10186C0069FB38610AE0FFF765FB02463B69D31A56
:10187C0041F28832934201D90323ABE0574B1B6AE8
:10188C0003F00203002BEED014E0FFF753FB38619A
:10189C000AE0FFF74FFB02463B69D31A41F288324C
:1018AC00934201D9032395E04C4B1B6A03F00203CE
:1018BC00002BEED1FB7D012B05D1484BDB69474A50
:1018CC0023F08053D3617B68DB69002B00F08180AF
:1018DC00424B5B6803F00C03082B61D07B68DB691F
:1018EC00022B46D13F4B00221A60FFF723FB3861D5
:1018FC0008E0FFF71FFB02463B69D31A022B01D904
:10190C00032367E0354B1B6803F00073002BF0D109
:10191C007B681B6AB3F5803F08D1304B5B6823F4BE
:10192C0000327B689B682D4913434B602B4B5B68E3
:10193C0023F474127B68196A7B685B6A0B43274932
:10194C0013434B60274B01221A60FFF7F3FA3861FF
:10195C0008E0FFF7EFFA02463B69D31A022B01D9D4
:10196C00032337E01D4B1B6803F00073002BF0D0F2
:10197C002FE01C4B00221A60FFF7DCFA386108E0FC
:10198C00FFF7D8FA02463B69D31A022B01D903237D
:10199C0020E0124B1B6803F00073002BF0D118E011
:1019AC007B68DB69012B01D1012313E00B4B5B68D6
:1019BC00FB60FB6803F480327B681B6A9A4206D199
:1019CC00FB6803F470127B685B6A9A4201D00123B6
:1019DC0000E0002318461837BD4680BD00100240B9
:1019EC00007000406000424280B584B000AF786067
:1019FC0039607B68002B01D10123D0E06A4B1B6856
:101A0C0003F007033A689A4210D9674B1B6823F01E
:101A1C00070265493B6813430B60634B1B6803F07B
:101A2C0007033A689A4201D00123B8E07B681B682F
:101A3C0003F00203002B20D07B681B6803F0040327
:101A4C00002B05D0594B5B68584A43F4E063536054
:101A5C007B681B6803F00803002B05D0534B5B68B5
:101A6C00524A43F460535360504B5B6823F0F002CE
:101A7C007B689B684D4913434B607B681B6803F084
:101A8C000103002B40D07B685B68012B07D1474BCF
:101A9C001B6803F40033002B15D101237FE07B6816
:101AAC005B68022B07D1414B1B6803F00073002BC2
:101ABC0009D1012373E03D4B1B6803F00203002B9B
:101ACC0001D101236BE0394B5B6823F003027B6887
:101ADC005B68364913434B60FFF72CFAF8600AE059
:101AEC00FFF728FA0246FB68D31A41F28832934278
:101AFC0001D9032353E02D4B5B6803F00C027B6888
:101B0C005B689B009A42EBD1274B1B6803F00703E1
:101B1C003A689A4210D2244B1B6823F007022249E0
:101B2C003B6813430B60204B1B6803F007033A68B8
:101B3C009A4201D0012332E07B681B6803F0040356
:101B4C00002B08D0194B5B6823F4E0627B68DB68E0
:101B5C00164913434B607B681B6803F00803002B8A
:101B6C0009D0124B5B6823F460527B681B69DB0065
:101B7C000E4913434B6000F021F802460B4B5B6897
:101B8C001B0903F00F030A49CB5C22FA03F3094A41
:101B9C001360094B1B681846FFF78AF90023184697
:101BAC001037BD4680BD00BF00200240001002402F
:101BBC00282700083C0000204000002090B48AB088
:101BCC0000AF2A4B3C1D0FCB84E80F0040F20123E1
:101BDC003B800023FB610023BB6100237B6200235D
:101BEC007B6100233B62224B5B68FB61FB6903F06A
:101BFC000C03042B02D0082B03D02DE01D4B3B62B1
:101C0C002DE0FB699B0C03F00F0307F12802134432
:101C1C0013F8243C7B61FB6903F48033002B13D055
:101C2C00134B5B685B0C03F0010307F128021344B0
:101C3C0013F8283CBB617B690E4A02FB03F2BB69BB
:101C4C00B2FBF3F37B6204E07B690B4A02FB03F308
:101C5C007B627B6A3B6202E0064B3B6200BF3B6AE5
:101C6C0018462837BD4690BC704700BF182700089F
:101C7C000010024000127A0000093D0080B400AF51
:101C8C00024B1B681846BD4680BC70473C000020C8
:101C9C0080B500AFFFF7F2FF0246054B5B681B0AED
:101CAC0003F007030349CB5C22FA03F3184680BD0B
:101CBC00001002403827000880B500AFFFF7DEFFA8
:101CCC000246054B5B68DB0A03F007030349CB5C58
:101CDC0022FA03F3184680BD001002403827000892
:101CEC0080B485B000AF78600A4B1B680A4AA2FB2F
:101CFC0003235B0A7A6802FB03F3FB6000BFFB68FB
:101D0C005A1EFA60002BF9D100BF00BF1437BD4634
:101D1C0080BC70473C000020D34D621080B582B06F
:101D2C0000AF78607B68002B01D1012341E07B6818
:101D3C0093F83D30DBB2002B06D17B68002283F890
:101D4C003C207868FEF7E4FE7B68022283F83D2095
:101D5C007B681A687B6804331946104600F06AFAEF
:101D6C007B68012283F846207B68012283F83E20A1
:101D7C007B68012283F83F207B68012283F8402096
:101D8C007B68012283F841207B68012283F8422082
:101D9C007B68012283F843207B68012283F844206E
:101DAC007B68012283F845207B68012283F83D2063
:101DBC00002318460837BD4680BD000080B485B0AE
:101DCC0000AF78607B6893F83D30DBB2012B01D01B
:101DDC00012335E07B68022283F83D207B681B6879
:101DEC00DA687B681B6842F00102DA607B681B686A
:101DFC00164A934209D07B681B68B3F1804F04D01C
:101E0C007B681B68124A934211D17B681B689B68E4
:101E1C0003F00703FB60FB68062B10D07B681B6884
:101E2C001A687B681B6842F001021A6007E07B6845
:101E3C001B681A687B681B6842F001021A60002359
:101E4C0018461437BD4680BC704700BF002C0140BB
:101E5C000004004080B582B000AF78607B681B68DE
:101E6C001B6903F00203022B22D17B681B68DB6821
:101E7C0003F00203022B1BD17B681B686FF002027C
:101E8C001A617B6801221A777B681B689B6903F0D7
:101E9C000303002B03D0786800F0B1F905E07868F3
:101EAC0000F0A4F9786800F0B3F97B6800221A7787
:101EBC007B681B681B6903F00403042B22D17B682D
:101ECC001B68DB6803F00403042B1BD17B681B68C5
:101EDC006FF004021A617B6802221A777B681B6818
:101EEC009B6903F44073002B03D0786800F087F9EA
:101EFC0005E0786800F07AF9786800F089F97B6879
:101F0C0000221A777B681B681B6903F00803082BF7
:101F1C0022D17B681B68DB6803F00803082B1BD1FC
:101F2C007B681B686FF008021A617B6804221A77C1
:101F3C007B681B68DB6903F00303002B03D0786814
:101F4C0000F05DF905E0786800F050F9786800F071
:101F5C005FF97B6800221A777B681B681B6903F0AA
:101F6C001003102B22D17B681B68DB6803F0100375
:101F7C00102B1BD17B681B686FF010021A617B68F9
:101F8C0008221A777B681B68DB6903F44073002B0B
:101F9C0003D0786800F033F905E0786800F026F992
:101FAC00786800F035F97B6800221A777B681B682B
:101FBC001B6903F00103012B0ED17B681B68DB68E6
:101FCC0003F00103012B07D17B681B686FF0010242
:101FDC001A617868FEF744FE7B681B681B6903F086
:101FEC008003802B0ED17B681B68DB6803F08003B9
:101FFC00802B07D17B681B686FF080021A617868B0
:10200C0000F067FA7B681B681B6903F04003402BE8
:10201C000ED17B681B68DB6803F04003402B07D1B3
:10202C007B681B686FF040021A61786800F0F9F861
:10203C007B681B681B6903F02003202B0ED17B6887
:10204C001B68DB6803F02003202B07D17B681B681F
:10205C006FF020021A61786800F032FA00BF08377E
:10206C00BD4680BD80B584B000AF786039607B68B8
:10207C0093F83C30012B01D10223B3E07B680122A1
:10208C0083F83C207B68022283F83D207B681B6828
:10209C009B68FB60FB6823F07703FB60FB6823F411
:1020AC007F43FB607B681B68FA689A603B681B681F
:1020BC00B3F5005F3ED0B3F5005F00F28780B3F557
:1020CC00805F00F08580B3F5805F7FD8702B1AD0CD
:1020DC00702B7BD8602B50D0602B77D8502B3CD0FA
:1020EC00502B73D8402B58D0402B6FD8302B64D04A
:1020FC00302B6BD8202B60D0202B67D8002B5CD0DA
:10210C00102B5AD062E07B6818683B6899683B6872
:10211C005A683B68DB6800F05CF97B681B689B685D
:10212C00FB60FB6843F07703FB607B681B68FA6815
:10213C009A604EE07B6818683B6899683B685A68FF
:10214C003B68DB6800F045F97B681B689A687B6824
:10215C001B6842F480429A603BE07B6818683B68DD
:10216C0059683B68DB681A4600F0BCF87B681B6852
:10217C005021184600F013F92BE07B6818683B6877
:10218C0059683B68DB681A4600F0DAF87B681B6814
:10219C006021184600F003F91BE07B6818683B6867
:1021AC0059683B68DB681A4600F09CF87B681B6832
:1021BC004021184600F0F3F80BE07B681A683B6886
:1021CC001B681946104600F0EAF802E000BF00E078
:1021DC0000BF7B68012283F83D207B68002283F8D6
:1021EC003C20002318461037BD4680BD80B483B018
:1021FC0000AF786000BF0C37BD4680BC704780B420
:10220C0083B000AF786000BF0C37BD4680BC704710
:10221C0080B483B000AF786000BF0C37BD4680BC83
:10222C00704780B483B000AF786000BF0C37BD46F8
:10223C0080BC704780B485B000AF786039607B6833
:10224C001B68FB607B68254A934207D07B68B3F11F
:10225C00804F03D07B68224A934208D1FB6823F05D
:10226C007003FB603B685B68FA681343FB607B6838
:10227C001A4A934207D07B68B3F1804F03D07B6836
:10228C00174A934208D1FB6823F44073FB603B6808
:10229C00DB68FA681343FB60FB6823F080023B6841
:1022AC005B691343FB607B68FA681A603B689A6849
:1022BC007B68DA623B681A687B689A627B68074ABB
:1022CC00934203D13B681A697B681A637B680122CD
:1022DC005A6100BF1437BD4680BC7047002C0140CA
:1022EC000004004080B487B000AFF860B9607A6039
:1022FC00FB681B6A7B61FB681B6A23F00102FB68AD
:10230C001A62FB689B693B613B6923F0F0033B61FC
:10231C007B681B013A6913433B617B6923F00A0319
:10232C007B617A69BB6813437B61FB683A699A618C
:10233C00FB687A691A6200BF1C37BD4680BC7047C7
:10234C0080B487B000AFF860B9607A60FB681B6A34
:10235C0023F01002FB681A62FB689B697B61FB68C7
:10236C001B6A3B617B6923F470437B617B681B03B5
:10237C007A6913437B613B6923F0A0033B61BB6823
:10238C001B013A6913433B61FB687A699A61FB68EC
:10239C003A691A6200BF1C37BD4680BC704780B4D6
:1023AC0085B000AF786039607B689B68FB60FB6828
:1023BC0023F07003FB603A68FB68134343F0070398
:1023CC00FB607B68FA689A6000BF1437BD4680BC1E
:1023DC00704780B487B000AFF860B9607A603B603A
:1023EC00FB689B687B617B6923F47F437B613B6863
:1023FC001A027B681A43BB6813437A6913437B61E7
:10240C00FB687A699A6000BF1C37BD4680BC704778
:10241C0080B485B000AF786039607B6893F83C304D
:10242C00012B01D1022341E07B68012283F83C207F
:10243C007B68022283F83D207B681B685B68FB602D
:10244C007B681B689B68BB60FB6823F07003FB60B8
:10245C003B681B68FA681343FB607B681B68FA686F
:10246C005A607B681B68144A934209D07B681B68CE
:10247C00B3F1804F04D07B681B68104A93420CD197
:10248C00BB6823F08003BB603B685B68BA6813438E
:10249C00BB607B681B68BA689A607B68012283F812
:1024AC003D207B68002283F83C200023184614371B
:1024BC00BD4680BC704700BF002C014000040040AA
:1024CC0080B483B000AF786000BF0C37BD4680BCD1
:1024DC00704780B483B000AF786000BF0C37BD4646
:1024EC0080BC704780B582B000AF78607B68002BF1
:1024FC0001D101233FE07B6893F83D30DBB2002B28
:10250C0006D17B68002283F83C207868FEF724FB18
:10251C007B68242283F83D207B681B68DA687B6823
:10252C001B6822F40052DA60786800F029F87B68A6
:10253C001B681A697B681B6822F490421A617B68DD
:10254C001B685A697B681B6822F02A025A617B68F7
:10255C001B68DA687B681B6842F40052DA607B689F
:10256C0000221A647B68202283F83D207B6820229D
:10257C0083F83E20002318460837BD4680BD000076
:10258C0080B584B000AF78607B681B681B6923F44E
:10259C0040517B68DA687B681B680A431A617B6868
:1025AC009A687B681B691A437B685B691343BB6041
:1025BC007B681B68DB6823F4B05323F00C037A6848
:1025CC001268B9680B43D3607B681B685B6923F4A2
:1025DC0040717B689A697B681B680A435A617B6807
:1025EC001B682C4A934203D1FFF766FBF86002E0AC
:1025FC00FFF74EFBF860FA6813469B0013449A00F1
:10260C001A447B685B689B00B2FBF3F3224AA2FB83
:10261C0003235B091901FA6813469B0013449A00C3
:10262C001A447B685B689B00B2FBF3F21A4BA3FB6A
:10263C0002035B09642000FB03F3D31A1B01323342
:10264C00154AA2FB03235B0903F0F0031944FA6853
:10265C0013469B0013449A001A447B685B689B00EA
:10266C00B2FBF3F20C4BA3FB02035B09642000FBEF
:10267C0003F3D31A1B013233074AA2FB03235B0972
:10268C0003F00F027B681B680A449A6000BF103786
:10269C00BD4680BD003801401F85EB5170B500264A
:1026AC000C4D0D4C641BA410A64209D100F022F86D
:1026BC0000260A4D0A4C641BA410A64205D170BD1D
:1026CC0055F8043B98470136EEE755F8043B98471C
:1026DC000136F2E740270008402700084027000891
:1026EC004427000803460244934200D1704703F884
:1026FC00011BF9E7F8B500BFF8BC08BC9E46704753
:0C270C00F8B500BFF8BC08BC9E46704742
:1027180002030405060708090A0B0C0D0E0F10101A
:102728000000000000000000010203040607080979
:0827380000000000010203048F
:04274000310100085B
:042744000D0100087B
:102748000500000002000000030000000500000072
:1027580005000000010000000008014000080140D9
:1027680000080140000801400010002000400080DF
:10277800C0F9A4B0999282F8809000000024F40077
:08278800100000000100000038
:0400000508000E459C
:00000001FF
