:020000040800F2
:100000000028002031130008110D0008170D00080A
:100010001D0D0008230D0008290D00080000000038
:100020000000000000000000000000002F0D00088C
:100030003B0D000800000000470D0008530D0008AC
:100040007913000879130008791300087913000860
:100050007913000879130008791300087913000850
:100060007913000879130008791300087913000840
:100070007913000879130008791300087913000830
:100080007913000879130008791300087913000820
:100090007913000879130008791300087913000810
:1000A0007913000879130008791300087913000800
:1000B000610D0008791300080000000079130008A2
:1000C0007913000800000000000000007913000808
:1000D00000000000791300087913000800000000F8
:1000E0007913000879130008791300080000000054
:1000F0000000000000000000000000000000000000
:0C01000000000000000000005FF808F1A3
:10010C0010B5054C237833B9044B13B10448AFF345
:10011C0000800123237010BDB400002000000000FB
:10012C003437000808B5034B1BB103490348AFF340
:10013C00008008BD00000000B80000203437000823
:10014C0080B500AF002000F0BFF90346002B01D0B2
:10015C000A2318E0012000F0B7F90346002B01D068
:10016C000B2310E0022000F0AFF90346002B01D066
:10017C000C2308E0032000F0A7F90346002B01D064
:10018C000D2300E00023184680BD000080B500AFB1
:10019C007E4B1B68022B07D07C4B1B68042B03D0B7
:1001AC007A4B1B68032B03D1784B1B68784A13607E
:1001BC00784B1B78022B00F0D880022B00F3DE80EA
:1001CC00002B03D0012B00F0BD80D7E0FFF7B8FF68
:1001DC000346002B00F0B6806E4B01221A70FFF71D
:1001EC00AFFF03460A3B032B00F2AA8001A252F890
:1001FC0023F000BF110200080B03000841030008A4
:10020C0047030008614B1B68013B062B72D801A207
:10021C0052F823F03D02000867020008890200082A
:10022C00AF0200086702000889020008AF0200084C
:10023C0000F0E4F9554B02221A60574802F020FEF8
:10024C00564B1B68564A1360554B1B68554A136036
:10025C004FF4FA7000F0FCFB4DE000F0CFF9524B7C
:10026C001B684F4A13604E4B1B684E4A1360474B3A
:10027C0003221A604D4802F003FE3CE04C4B4FF455
:10028C007C521A614B4B1B68454A1360444B1B68EC
:10029C00444A13603D4B04221A60474802F0F0FDBB
:1002AC0029E000F0ABF93D4B1B683D4A13603C4B19
:1002BC001B683C4A1360354B01221A603F4802F020
:1002CC00DFFD00F0EFFD00F03BF93A4B1A68364BBE
:1002DC001B681A44314B1B689A4207D0384802F00D
:1002EC00CFFD384802F0CCFD00F096FE4FF47A704A
:1002FC0000F0E2FB00BF274B01221A7021E0234BD8
:10030C001B68042B0ED0042B10DC022B02D0032B09
:10031C0004D00BE01D4B05221A6008E01B4B062293
:10032C001A6004E0194B07221A6000E000BF00F0CD
:10033C00DBFD06E000F028FE03E000F06DFE00E0BF
:10034C0000BF20E0FFF7FCFE0346002B03D1114B4E
:10035C0000221A7014E0002000F0D8F80346002B9D
:10036C000ED00C4B02221A700AE0FFF7E9FE03468E
:10037C00002B07D1074B00221A7003E000BF02E0EC
:10038C0000BF00E000BF00BF80BD00BF1400002014
:10039C0010000020D80000204C370008000000207E
:1003AC000C000020D000002004000020743700084E
:1003BC00000C014008000020A0370008CC370008D2
:1003CC00F43700081038000880B582B000AF002365
:1003DC007B6061E0344A7B6813441978334A7B684C
:1003EC0013440A461A70324A7B6852F8232031496A
:1003FC007B6831F813301946104601F0A3FA034616
:10040C001946294A7B6813440A461A70264A7B68A7
:10041C0013441A7825497B680B441B789A4238D1CF
:10042C00254A7B6813441978244A7B6813440A468E
:10043C001A701D4A7B68134419781F4A7B68134451
:10044C000A461A701C4A7B6813441B78002B16D181
:10045C001B4A7B6832F81330632B0AD8184A7B6826
:10046C0032F81330013399B2154A7B6822F8131015
:10047C000FE0144A7B68134401221A7009E0104AF9
:10048C007B68002122F813100E4A7B68134400226B
:10049C001A707B6801337B607B68032B9ADD00BF8D
:1004AC0000BF0837BD4680BDE4000020E8000020F6
:1004BC001C0000202C000020DC000020E0000020AC
:1004CC00F0000020EC00002080B483B000AF0346A5
:1004DC00FB71FB79032B01D900230DE0FB79094A51
:1004EC00D35C002B06D1FB79074AD35C012B01D1DD
:1004FC00012300E00023DBB218460C37BD4680BC5C
:10050C00704700BFDC000020E000002080B483B006
:10051C0000AF0346FB71FB79032B01D9FF2307E0E6
:10052C00FB79064AD35C012B0CBF01230023DBB201
:10053C0018460C37BD4680BC704700BFEC0000204D
:10054C0080B400AF294B1B68092B1BDD274B1B68A4
:10055C00274A82FB03129210DB17D31ADAB2254B0F
:10056C001A70224B1A68224B83FB02139910D31773
:10057C00C91A0B469B000B445B00D11ACAB21D4B27
:10058C005A7007E01B4B00221A70184B1B68DAB22A
:10059C00184B5A70184B1B68092B1BDD164B1B682C
:1005AC00134A82FB03129210DB17D31ADAB2114BE7
:1005BC009A70114B1A680E4B83FB02139910D317C8
:1005CC00C91A0B469B000B445B00D11ACAB2094BEB
:1005DC00DA7007E0074B00229A70074B1B68DAB2FF
:1005EC00044BDA7000BFBD4680BC70471000002081
:1005FC0067666666F80000200C00002080B400AF2F
:10060C00034B4FF47C521A6100BFBD4680BC70474F
:10061C00000C014080B582B000AF78607B68032B82
:10062C0072D801A252F823F045060008790600089A
:10063C00AD060008E106000801221021354801F042
:10064C0098F900222021334801F093F9002240212F
:10065C00304801F08EF9002280212E4801F089F9F2
:10066C002D4B1B78184600F059F84EE00022102153
:10067C00284801F07EF901222021264801F079F961
:10068C0000224021234801F074F9002280212148E6
:10069C0001F06FF9204B5B78184600F03FF834E01E
:1006AC00002210211B4801F064F900222021194876
:1006BC0001F05FF901224021164801F05AF900229D
:1006CC008021144801F055F9134B9B78184600F023
:1006DC0025F81AE0002210210E4801F04AF90022F8
:1006EC0020210C4801F045F900224021094801F075
:1006FC0040F901228021074801F03BF9064BDB78D9
:10070C00184600F00BF800E000BF00BF0837BD46EC
:10071C0080BD00BF00080140F800002080B483B009
:10072C0000AF7860064BFF225A61064A7B6813447F
:10073C001A78034B1A6100BF0C37BD4680BC70475A
:10074C00000C01403400002080B500AFFFF7F8FE2C
:10075C00084B1B68032B02DD064B00221A60054B6D
:10076C001B685A1C03490A601846FFF753FF00BF69
:10077C0080BD00BFD400002080B500AF00F0F8FDB4
:10078C0000F02AF800F0DAF800F062F800F0ACF8AB
:10079C000E4801F089FD0E4BFF225A61FFF72EFF28
:1007AC0000F080FB022000F053F94FF47A7000F057
:1007BC0069F94FF47A7000F07FF9064802F060FB9B
:1007CC0000F05EFDFFF7E2FCFAE700BF74010020C9
:1007DC00000801404038000880B590B000AF07F128
:1007EC00180328220021184602F0D4FA3B1D0022DF
:1007FC001A605A609A60DA601A610223BB610123A5
:10080C00BB621023FB6200237B6307F118031846BD
:10081C0001F0E0F80346002B01D000F0FDF80F23A7
:10082C007B600023BB600023FB6000233B61002343
:10083C007B613B1D0021184601F04CFB0346002B4D
:10084C0001D000F0E9F800BF4037BD4680BD000084
:10085C0080B586B000AF07F1080300221A605A6019
:10086C009A60DA603B4600221A605A601D4B4FF0CA
:10087C0080421A601B4B41F63F725A60194B0022A2
:10088C009A60184B0922DA60164B00221A61154B3C
:10089C0000229A61134801F0B7FC0346002B01D0EB
:1008AC0000F0BAF84FF48053BB6007F10803194607
:1008BC000C4801F04DFE0346002B01D000F0ACF8C3
:1008CC0000233B6000237B603B461946054802F041
:1008DC0015F80346002B01D000F09EF800BF183726
:1008EC00BD4680BD7401002080B500AF114B124A8B
:1008FC001A60104B4FF4E1325A600E4B00229A6092
:10090C000C4B0022DA600B4B00221A61094B0C22B3
:10091C005A61084B00229A61064B0022DA610548A5
:10092C0002F056F80346002B01D000F075F800BF1A
:10093C0080BD00BF300100200038014080B586B07A
:10094C0000AF07F1080300221A605A609A60DA605F
:10095C002E4B9B692D4A43F0040393612B4B9B69EF
:10096C0003F004037B607B68284B9B69274A43F0A8
:10097C0008039361254B9B6903F008033B603B68BC
:10098C000022F021224800F0F4FF002243F6F87117
:10099C00204800F0EEFFF023BB600123FB60002336
:1009AC003B6102237B6107F108031946184800F0EC
:1009BC004FFE0723BB600023FB6001233B6107F163
:1009CC0008031946134800F043FE43F6F873BB6066
:1009DC000123FB6000233B6102237B6107F10803C9
:1009EC0019460C4800F034FE4FF47043BB600023F2
:1009FC00FB6001233B6107F108031946044800F032
:100A0C0027FE00BF1837BD4680BD00BF0010024056
:100A1C0000080140000C014080B400AF72B600BF6A
:100A2C00FEE7000080B584B000AFF860B9607A6072
:100A3C007B689AB24FF0FF33B968044802F015F89E
:100A4C007B6818461037BD4680BD00BF30010020C2
:100A5C0080B483B000AF7860074B1B687A6892FB58
:100A6C00F3F3064A1360064B00221A6000BF0C37E2
:100A7C00BD4680BC704700BF400000201001002024
:100A8C00FC00002080B483B000AF7860074B1B687B
:100A9C007A6892FBF3F3064A1360064B00221A6045
:100AAC0000BF0C37BD4680BC704700BF4000002023
:100ABC00140100200001002080B483B000AF7860E6
:100ACC00074B1B687A6892FBF3F3064A1360064BDC
:100ADC0000221A6000BF0C37BD4680BC704700BFB7
:100AEC0040000020180100200401002080B400AF59
:100AFC00294B1B68002B0BDD274B1B68013B264A3F
:100B0C001360254B1B68002B02DC244B01221A605E
:100B1C00234B1B68002B0BDD214B1B68013B204A30
:100B2C0013601F4B1B68002B02DC1E4B01221A604A
:100B3C001D4B1B68002B0BDD1B4B1B68013B1A4A22
:100B4C001360194B1B68002B02DC184B01221A6036
:100B5C00174B1B68002B0BDD154B1B68013B144A14
:100B6C001360134B1B68002B02DC124B01221A6022
:100B7C00114B1B68002B0BDD0F4B1B68013B0E4A06
:100B8C0013600D4B1B68002B02DC0C4B01221A600E
:100B9C0000BFBD4680BC704710010020FC00002047
:100BAC001401002000010020180100200401002085
:100BBC001C01002008010020200100200C01002055
:100BCC0080B485B000AF154B9B69144A43F0010308
:100BDC009361124B9B6903F00103BB60BB680F4B25
:100BEC00DB690E4A43F08053D3610C4BDB6903F095
:100BFC0080537B607B680A4B5B68FB60FB6823F06F
:100C0C00E063FB60FB6843F08063FB60044AFB68B5
:100C1C00536000BF1437BD4680BC704700100240C3
:100C2C000000014080B584B000AF78607B681B6821
:100C3C00B3F1804F13D10C4BDB690B4A43F001032A
:100C4C00D361094BDB6903F00103FB60FB680022F5
:100C5C0000211C2000F0C5FC1C2000F0DEFC00BFB5
:100C6C001037BD4680BD00BF0010024080B588B073
:100C7C0000AF786007F1100300221A605A609A6086
:100C8C00DA607B681B681C4A934231D11B4B9B6911
:100C9C001A4A43F480439361184B9B6903F48043D5
:100CAC00FB60FB68154B9B69144A43F0040393618A
:100CBC00124B9B6903F00403BB60BB684FF40073D9
:100CCC003B6102237B610323FB6107F1100319468F
:100CDC000B4800F0BDFC4FF480633B6100237B614B
:100CEC000023BB6107F110031946054800F0B0FC66
:100CFC0000BF2037BD4680BD0038014000100240C7
:100D0C000008014080B400AFFEE780B400AFFEE7FE
:100D1C0080B400AFFEE780B400AFFEE780B400AF54
:100D2C00FEE780B400AF00BFBD4680BC704780B406
:100D3C0000AF00BFBD4680BC704780B400AF00BFA1
:100D4C00BD4680BC704780B500AF00F057FB00BFBC
:100D5C0080BD000080B500AF024801F0F1FA00BF81
:100D6C0080BD00BF7401002080B586B000AFF86074
:100D7C00B9607A6000237B610AE0AFF30080014622
:100D8C00BB685A1CBA60CAB21A707B6901337B61AA
:100D9C007A697B689A42F0DB7B6818461837BD4647
:100DAC0080BD80B483B000AF78604FF0FF3318463D
:100DBC000C37BD4680BC704780B483B000AF786000
:100DCC0039603B684FF400525A60002318460C37C8
:100DDC00BD4680BC704780B483B000AF78600123FF
:100DEC0018460C37BD4680BC704780B485B000AF48
:100DFC00F860B9607A60002318461437BD4680BC91
:100E0C007047000080B586B000AF7860144A154B6F
:100E1C00D31A7B617B693B61134B1B68002B02D19E
:100E2C00114B124A1A60104B1A687B6813443A69CA
:100E3C009A4207D201F084FF03460C221A604FF04D
:100E4C00FF3309E0084B1B68FB60074B1A687B6893
:100E5C001344054A1360FB6818461837BD4680BD1D
:100E6C00002800200004000024010020D0010020F4
:100E7C0080B400AF00BFBD4680BC704780B582B067
:100E8C0000AF78607B681B68B3F1804F03D1FFF72C
:100E9C009BFAFFF759FCFFF729FE00BF0837BD4648
:100EAC0080BD000080B500AF0A4B1B680A4A136076
:100EBC000A4B1B680A4A136000224FF480710948E0
:100ECC0000F057FD00224FF40051064800F051FD90
:100EDC0000BF80BD080000200C0000200000002096
:100EEC0010000020000C014080B400AF234B1B68A5
:100EFC00013B062B3AD801A252F823F0790F0008D7
:100F0C00790F0008790F0008790F0008250F0008E9
:100F1C00410F00085D0F0008194B1B68622B03DDA5
:100F2C00174B00221A6021E0154B1B680133144A41
:100F3C0013601BE0124B1B68622B03DD104B00226D
:100F4C001A6013E00E4B1B6801330D4A13600DE061
:100F5C000B4B1B68622B03DD094B00221A6004E06B
:100F6C00074B1B680133064A136000BF044B1B6818
:100F7C00044A136000BFBD4680BC704714000020BB
:100F8C00D00000200C00002080B500AF1B4801F001
:100F9C0077FF1B4B1B68013B062B2CD801A252F888
:100FAC0023F000BF03100008031000080310000812
:100FBC0003100008CD0F0008DF0F0008F10F000828
:100FCC00104B1B68104A13600F4B1B680F4A1360C1
:100FDC0012E00C4B1B680E4A13600D4B1B680B4A3E
:100FEC00136009E0074B1B680A4A1360094B1B6826
:100FFC00064A136000E000BF00BF80BD6C380008DB
:10100C0014000020D0000020000000200C00002064
:10101C00040000200800002080B500AF0C4801F04F
:10102C002FFF0C4801F02CFF0B4B03221A600B4BCB
:10103C0005221A600A4B01221A600A4B14221A600C
:10104C00094B00221A60094B00221A6000BF80BDB8
:10105C0084380008A43800080C0000201000002080
:10106C001400002018000020D4000020D000002024
:10107C0080B500AF7A4B1B68143B032B00F2E48065
:10108C0001A252F823F000BFA5100008231100089C
:10109C008D110008ED110008724B1B68012B40F0FC
:1010AC00D580FFF7ABFA00224FF480716E4800F048
:1010BC0060FC00224FF400516B4800F05AFC6B4B63
:1010CC001B68013B694A1360694B1B68013B684A0A
:1010DC001360664B1B68002B03D0654B1B68002B01
:1010EC0014D15F4B15221A60624B1B685F4A136068
:1010FC00FFF784FA00224FF480715B4800F039FC52
:10110C0000224FF48051584800F033FC4FF47A70B1
:10111C00FFF7D2FC9AE0534B1B68012B40F09880F0
:10112C00524B1B68013B514A1360514B1B68013BEE
:10113C004F4A13604D4B1B68002B03D04C4B1B6864
:10114C00002B18D1464B16221A604B4B1B68474A92
:10115C0013604A4B1B68464A1360FFF74FFA002294
:10116C004FF40061404800F004FC00224FF4806111
:10117C003D4800F0FEFB4FF47A70FFF79DFC67E0F2
:10118C00384B1B68012B65D1384B1B68013B374A28
:10119C001360374B1B68013B354A1360334B1B689C
:1011AC00002B03D0324B1B68002B14D12C4B172275
:1011BC001A60304B1B682E4A1360FFF71FFA00228F
:1011CC004FF40071284800F0D4FB00224FF400616A
:1011DC00254800F0CEFB4FF47A70FFF76DFC39E038
:1011EC00204B1B68012B37D1204B1B68013B1F4A3E
:1011FC0013601F4B1B68013B1D4A13601B4B1B6884
:10120C00002B03D01A4B1B68002B18D1144B142243
:10121C001A601A4B1B68154A1360174B1B68144A4B
:10122C001360FFF7EBF900224FF480710E4800F0C9
:10123C00A0FB00224FF400510B4800F09AFB4FF436
:10124C007A70FFF739FC07E000BF06E000BF04E04E
:10125C0000BF02E000BF00E000BF00BF80BD00BFC8
:10126C001800002004010020000C01400C0000209C
:10127C0010000020040000200000002008000020C6
:10128C0080B500AF244B1B68013B062B42D801A252
:10129C0052F823F0BD120008C3120008DF12000838
:1012AC00FB120008C3120008DF120008FB12000832
:1012BC00FFF7DEFE2EE0194B1B68012B25D14FF4F6
:1012CC001061174800F06DFB4FF4FA70FFF7C0FB8C
:1012DC001BE0124B1B68012B19D14FF49051104895
:1012EC0000F05FFB4FF4FA70FFF7B2FB0FE00B4B13
:1012FC001B68012B0DD14FF41051094800F051FB24
:10130C004FF4FA70FFF7A4FB03E000BF02E000BF4C
:10131C0000E000BF00BF80BD14000020FC000020D6
:10132C00000C01400C480D490D4A002302E0D45832
:10133C00C4500433C4188C42F9D30A4A0A4C002313
:10134C0001E013600432A242FBD3FFF791FD01F0E0
:10135C00FDFCFFF711FA704700000020B4000020DC
:10136C0064390008B4000020D0010020FEE7000022
:10137C0080B500AF084B1B68074A43F0100313609D
:10138C00032000F023F90F2000F008F8FFF718FCF9
:10139C000023184680BD00BF0020024080B582B0FB
:1013AC0000AF7860124B1A68124B1B7819464FF439
:1013BC007A73B3FBF1F3B2FBF3F3184600F03BF98D
:1013CC000346002B01D001230EE07B680F2B0AD8BB
:1013DC00002279684FF0FF3000F003F9064A7B6871
:1013EC001360002300E0012318460837BD4680BD7A
:1013FC00440000204C0000204800002080B400AFC6
:10140C00054B1B781A46054B1B681344034A1360A3
:10141C0000BFBD4680BC70474C000020BC010020C2
:10142C0080B400AF024B1B681846BD4680BC7047A9
:10143C00BC01002080B485B000AF78607B6803F0FD
:10144C000703FB600C4BDB68BB60BA684FF6FF030D
:10145C001340BB60FB681A02BB68134343F0BF63C5
:10146C0043F40033BB60044ABB68D36000BF14373D
:10147C00BD4680BC704700BF00ED00E080B400AFFB
:10148C00044BDB681B0A03F007031846BD4680BCFF
:10149C00704700BF00ED00E080B483B000AF03469E
:1014AC00FB7197F90730002B0BDBFB7903F01F0264
:1014BC00064997F907305B09012000FA02F241F85E
:1014CC00232000BF0C37BD4680BC704700E100E014
:1014DC0080B483B000AF03463960FB7197F90730D5
:1014EC00002B0ADB3B68DAB20C4997F90730120182
:1014FC00D2B20B4483F800230AE03B68DAB2084905
:10150C00FB7903F00F03043B1201D2B20B441A76A1
:10151C0000BF0C37BD4680BC704700BF00E100E047
:10152C0000ED00E080B489B000AFF860B9607A607B
:10153C00FB6803F00703FB61FB69C3F10703042B92
:10154C0028BF0423BB61FB690433062B02D9FB695A
:10155C00033B00E000237B614FF0FF32BB6902FAD2
:10156C0003F3DA43BB681A407B699A404FF0FF31B2
:10157C007B6901FA03F3D9437B680B40134318468C
:10158C002437BD4680BC704780B582B000AF786010
:10159C007B68013BB3F1807F01D301230FE00A4A42
:1015AC007B68013B53600F214FF0FF30FFF790FF3A
:1015BC00054B00229A60044B07221A600023184640
:1015CC000837BD4680BD00BF10E000E080B582B09A
:1015DC0000AF78607868FFF72DFF00BF0837BD4675
:1015EC0080BD80B586B000AF0346B9607A60FB73EE
:1015FC0000237B61FFF742FF78617A68B9687869EC
:10160C00FFF790FF024697F90F3011461846FFF787
:10161C005FFF00BF1837BD4680BD80B582B000AFFC
:10162C000346FB7197F907301846FFF735FF00BFEB
:10163C000837BD4680BD80B582B000AF7860786851
:10164C00FFF7A2FF034618460837BD4680BD0000D1
:10165C0080B48BB000AF7860396000237B620023CC
:10166C003B6248E101227B6A02FA03F3FB613B68AF
:10167C001B68FA691340BB61BA69FB699A4240F076
:10168C0037813B685B68A34A93425ED0A14A934280
:10169C0075D8A14A934258D09F4A93426FD89F4A1B
:1016AC00934252D09D4A934269D89D4A93424CD062
:1016BC009B4A934263D89B4A934246D0994A9342A1
:1016CC005DD8122B2AD8122B59D801A252F823F02C
:1016DC005717000831170008431700088517000832
:1016EC008B1700088B1700088B1700088B17000846
:1016FC008B1700088B1700088B1700088B17000836
:10170C008B1700088B1700088B1700088B17000825
:10171C008B170008391700084D170008824A9342AE
:10172C0013D02CE03B68DB683B6229E03B68DB684C
:10173C0004333B6224E03B68DB6808333B621FE008
:10174C003B68DB680C333B621AE03B689B68002B00
:10175C0002D104233B6213E03B689B68012B05D14B
:10176C0008233B627B68FA691A6109E008233B6233
:10177C007B68FA695A6103E000233B6200E000BF1A
:10178C00BB69FF2B01D87B6801E07B6804337B616C
:10179C00BB69FF2B02D87B6A9B0002E07B6A083B8B
:1017AC009B003B617B691A680F213B6901FA03F3CB
:1017BC00DB431A40396A3B6901FA03F31A437B692C
:1017CC001A603B685B6803F08053002B00F090803C
:1017DC00564B9B69554A43F001039361534B9B69EC
:1017EC0003F00103BB60BB68514A7B6A9B08023360
:1017FC0052F82330FB607B6A03F003039B000F223B
:10180C0002FA03F3DB43FA681340FB607B68494A36
:10181C0093420DD07B68484A934207D07B68474A75
:10182C00934201D1022304E0032302E0012300E0F0
:10183C0000237A6A02F0030292009340FA68134381
:10184C00FB603B497B6A9B080233FA6841F8232012
:10185C003B685B6803F48033002B06D0384B1A6866
:10186C003749BB6913430B6006E0354B1A68BB69FB
:10187C00DB43334913400B603B685B6803F4003374
:10188C00002B06D02E4B5A682D49BB6913434B6075
:10189C0006E02B4B5A68BB69DB43294913404B606C
:1018AC003B685B6803F48013002B06D0244B9A68CA
:1018BC002349BB6913438B6006E0214B9A68BB69D3
:1018CC00DB431F4913408B603B685B6803F40013D8
:1018DC00002B06D01A4BDA681949BB691343CB604D
:1018EC0006E0174BDA68BB69DB4315491340CB6044
:1018FC007B6A01337B623B681A687B6A22FA03F3CA
:10190C00002B7FF4AFAE00BF00BF2C37BD4680BCB0
:10191C00704700BF00003210000031100000221090
:10192C0000002110000012100000111000100240E5
:10193C000000014000080140000C01400010014073
:10194C000004014080B485B000AF78600B467B800A
:10195C007B689A687B881340002B02D00123FB73B1
:10196C0001E00023FB73FB7B18461437BD4680BC9B
:10197C00704780B483B000AF78600B467B80134611
:10198C007B707B78002B03D07A887B681A6103E02C
:10199C007B881A047B681A6100BF0C37BD4680BC7B
:1019AC00704780B485B000AF78600B467B807B6855
:1019BC00DB68FB607A88FB6813401A04FB68D94328
:1019CC007B880B401A437B681A6100BF1437BD46F5
:1019DC0080BC704780B586B000AF78607B68002B08
:1019EC0001D101236CE27B681B6803F00103002B1F
:1019FC0000F08780924B5B6803F00C03042B0CD037
:101A0C008F4B5B6803F00C03082B12D18C4B5B687B
:101A1C0003F48033B3F5803F0BD1894B1B6803F47F
:101A2C000033002B6CD07B685B68002B68D10123E2
:101A3C0046E27B685B68B3F5803F06D1804B1B6840
:101A4C007F4A43F4803313602EE07B685B68002B85
:101A5C000CD17B4B1B687A4A23F480331360784B90
:101A6C001B68774A23F4802313601DE07B685B6856
:101A7C00B3F5A02F0CD1724B1B68714A43F4802331
:101A8C0013606F4B1B686E4A43F4803313600BE09A
:101A9C006B4B1B686A4A23F480331360684B1B68DA
:101AAC00674A23F4802313607B685B68002B13D098
:101ABC00FFF7B6FC386108E0FFF7B2FC02463B6961
:101ACC00D31A642B01D90323FAE15D4B1B6803F491
:101ADC000033002BF0D014E0FFF7A2FC386108E0D3
:101AEC00FFF79EFC02463B69D31A642B01D90323F2
:101AFC00E6E1534B1B6803F40033002BF0D100E0FC
:101B0C0000BF7B681B6803F00203002B63D04C4BB7
:101B1C005B6803F00C03002B0BD0494B5B6803F0A4
:101B2C000C03082B1CD1464B5B6803F48033002B51
:101B3C0016D1434B1B6803F00203002B05D07B68C6
:101B4C001B69012B01D00123BAE13D4B1B6823F02B
:101B5C00F8027B685B69DB00394913430B603AE0A0
:101B6C007B681B69002B20D0364B01221A60FFF7D3
:101B7C0057FC386108E0FFF753FC02463B69D31A67
:101B8C00022B01D903239BE12D4B1B6803F00203AD
:101B9C00002BF0D02A4B1B6823F0F8027B685B69A2
:101BAC00DB00274913430B6015E0264B00221A601B
:101BBC00FFF736FC386108E0FFF732FC02463B6960
:101BCC00D31A022B01D903237AE11D4B1B6803F0B6
:101BDC000203002BF0D17B681B6803F00803002B79
:101BEC003AD07B689B69002B19D0174B01221A60E5
:101BFC00FFF716FC386108E0FFF712FC02463B6960
:101C0C00D31A022B01D903235AE10D4B5B6A03F063
:101C1C000203002BF0D0012000F0D8FA1CE00A4B94
:101C2C0000221A60FFF7FCFB38610FE0FFF7F8FBAE
:101C3C0002463B69D31A022B08D9032340E100BFAB
:101C4C000010024000004242800442429E4B5B6AFC
:101C5C0003F00203002BE9D17B681B6803F004033B
:101C6C00002B00F0A6800023FB75974BDB6903F07B
:101C7C008053002B0DD1944BDB69934A43F0805376
:101C8C00D361914BDB6903F08053BB60BB680123CC
:101C9C00FB758E4B1B6803F48073002B18D18B4B98
:101CAC001B688A4A43F480731360FFF7B9FB3861F1
:101CBC0008E0FFF7B5FB02463B69D31A642B01D948
:101CCC000323FDE0814B1B6803F48073002BF0D0E1
:101CDC007B68DB68012B06D17B4B1B6A7A4A43F08D
:101CEC00010313622DE07B68DB68002B0CD1764B73
:101CFC001B6A754A23F001031362734B1B6A724A09
:101D0C0023F0040313621CE07B68DB68052B0CD109
:101D1C006D4B1B6A6C4A43F0040313626A4B1B6ADB
:101D2C00694A43F0010313620BE0674B1B6A664A76
:101D3C0023F001031362644B1B6A634A23F0040310
:101D4C0013627B68DB68002B15D0FFF769FB3861E9
:101D5C000AE0FFF765FB02463B69D31A41F2883271
:101D6C00934201D90323ABE0574B1B6A03F00203E8
:101D7C00002BEED014E0FFF753FB38610AE0FFF7BD
:101D8C004FFB02463B69D31A41F28832934201D988
:101D9C00032395E04C4B1B6A03F00203002BEED19E
:101DAC00FB7D012B05D1484BDB69474A23F080535F
:101DBC00D3617B68DB69002B00F08180424B5B6850
:101DCC0003F00C03082B61D07B68DB69022B46D136
:101DDC003F4B00221A60FFF723FB386108E0FFF746
:101DEC001FFB02463B69D31A022B01D9032367E080
:101DFC00354B1B6803F00073002BF0D17B681B6A1A
:101E0C00B3F5803F08D1304B5B6823F400327B681C
:101E1C009B682D4913434B602B4B5B6823F4741266
:101E2C007B68196A7B685B6A0B43274913434B60D9
:101E3C00274B01221A60FFF7F3FA386108E0FFF72D
:101E4C00EFFA02463B69D31A022B01D9032337E080
:101E5C001D4B1B6803F00073002BF0D02FE01C4BC4
:101E6C0000221A60FFF7DCFA386108E0FFF7D8FAB5
:101E7C0002463B69D31A022B01D9032320E0124BF3
:101E8C001B6803F00073002BF0D118E07B68DB6952
:101E9C00012B01D1012313E00B4B5B68FB60FB684A
:101EAC0003F480327B681B6A9A4206D1FB6803F408
:101EBC0070127B685B6A9A4201D0012300E0002318
:101ECC0018461837BD4680BD001002400070004017
:101EDC006000424280B584B000AF786039607B68A6
:101EEC00002B01D10123D0E06A4B1B6803F00703E0
:101EFC003A689A4210D9674B1B6823F00702654970
:101F0C003B6813430B60634B1B6803F007033A6891
:101F1C009A4201D00123B8E07B681B6803F00203EE
:101F2C00002B20D07B681B6803F00403002B05D02A
:101F3C00594B5B68584A43F4E06353607B681B68F9
:101F4C0003F00803002B05D0534B5B68524A43F453
:101F5C0060535360504B5B6823F0F0027B689B68C6
:101F6C004D4913434B607B681B6803F00103002B46
:101F7C0040D07B685B68012B07D1474B1B6803F48F
:101F8C000033002B15D101237FE07B685B68022BAB
:101F9C0007D1414B1B6803F00073002B09D10123BF
:101FAC0073E03D4B1B6803F00203002B01D10123AE
:101FBC006BE0394B5B6823F003027B685B68364946
:101FCC0013434B60FFF72CFAF8600AE0FFF728FA8E
:101FDC000246FB68D31A41F28832934201D903239B
:101FEC0053E02D4B5B6803F00C027B685B689B0035
:101FFC009A42EBD1274B1B6803F007033A689A42CD
:10200C0010D2244B1B6823F0070222493B68134370
:10201C000B60204B1B6803F007033A689A4201D00F
:10202C00012332E07B681B6803F00403002B08D00B
:10203C00194B5B6823F4E0627B68DB681649134339
:10204C004B607B681B6803F00803002B09D0124B14
:10205C005B6823F460527B681B69DB000E491343F9
:10206C004B6000F021F802460B4B5B681B0903F038
:10207C000F030A49CB5C22FA03F3094A1360094B9C
:10208C001B681846FFF78AF9002318461037BD461F
:10209C0080BD00BF0020024000100240E038000864
:1020AC00440000204800002090B48AB000AF2A4BB6
:1020BC003C1D0FCB84E80F0040F201233B80002332
:1020CC00FB610023BB6100237B6200237B61002347
:1020DC003B62224B5B68FB61FB6903F00C03042B36
:1020EC0002D0082B03D02DE01D4B3B622DE0FB6989
:1020FC009B0C03F00F0307F12802134413F8243C44
:10210C007B61FB6903F48033002B13D0134B5B68AA
:10211C005B0C03F0010307F12802134413F8283C6D
:10212C00BB617B690E4A02FB03F2BB69B2FBF3F3A2
:10213C007B6204E07B690B4A02FB03F37B627B6AE4
:10214C003B6202E0064B3B6200BF3B6A18462837F5
:10215C00BD4690BC704700BFD0380008001002404C
:10216C0000127A0000093D0080B400AF024B1B68DE
:10217C001846BD4680BC70474400002080B500AFB7
:10218C00FFF7F2FF0246054B5B681B0A03F00703DF
:10219C000349CB5C22FA03F3184680BD00100240C1
:1021AC00F038000880B500AFFFF7DEFF0246054BA4
:1021BC005B68DB0A03F007030349CB5C22FA03F3E9
:1021CC00184680BD00100240F038000880B485B07D
:1021DC0000AF78600A4B1B680A4AA2FB03235B0A18
:1021EC007A6802FB03F3FB6000BFFB685A1EFA60BF
:1021FC00002BF9D100BF00BF1437BD4680BC70471F
:10220C0044000020D34D621080B582B000AF7860DE
:10221C007B68002B01D1012341E07B6893F83D30B2
:10222C00DBB2002B06D17B68002283F83C20786857
:10223C00FEF7F8FC7B68022283F83D207B681A6865
:10224C007B6804331946104600F06AFA7B68012259
:10225C0083F846207B68012283F83E207B680122AC
:10226C0083F83F207B68012283F840207B680122A1
:10227C0083F841207B68012283F842207B6801228D
:10228C0083F843207B68012283F844207B68012279
:10229C0083F845207B68012283F83D2000231846F3
:1022AC000837BD4680BD000080B485B000AF7860B3
:1022BC007B6893F83D30DBB2012B01D0012335E074
:1022CC007B68022283F83D207B681B68DA687B6898
:1022DC001B6842F00102DA607B681B68164A934265
:1022EC0009D07B681B68B3F1804F04D07B681B68F6
:1022FC00124A934211D17B681B689B6803F0070359
:10230C00FB60FB68062B10D07B681B681A687B6827
:10231C001B6842F001021A6007E07B681B681A68B0
:10232C007B681B6842F001021A60002318461437C0
:10233C00BD4680BC704700BF002C0140000400402B
:10234C0080B582B000AF78607B681B681B6903F0B6
:10235C000203022B22D17B681B68DB6803F00203AB
:10236C00022B1BD17B681B686FF002021A617B6821
:10237C0001221A777B681B689B6903F00303002B0F
:10238C0003D0786800F0B1F905E0786800F0A4F9A2
:10239C00786800F0B3F97B6800221A777B681B68B9
:1023AC001B6903F00403042B22D17B681B68DB68D8
:1023BC0003F00403042B1BD17B681B686FF0040231
:1023CC001A617B6802221A777B681B689B6903F48D
:1023DC004073002B03D0786800F087F905E078682B
:1023EC0000F07AF9786800F089F97B6800221A7796
:1023FC007B681B681B6903F00803082B22D17B68E0
:10240C001B68DB6803F00803082B1BD17B681B6877
:10241C006FF008021A617B6804221A777B681B68CC
:10242C00DB6903F00303002B03D0786800F05DF93F
:10243C0005E0786800F050F9786800F05FF97B6887
:10244C0000221A777B681B681B6903F01003102BA2
:10245C0022D17B681B68DB6803F01003102B1BD1A7
:10246C007B681B686FF010021A617B6808221A7770
:10247C007B681B68DB6903F44073002B03D078681E
:10248C0000F033F905E0786800F026F9786800F080
:10249C0035F97B6800221A777B681B681B6903F08F
:1024AC000103012B0ED17B681B68DB6803F0010371
:1024BC00012B07D17B681B686FF001021A617868E9
:1024CC00FEF7DCFC7B681B681B6903F08003802B28
:1024DC000ED17B681B68DB6803F08003802B07D16F
:1024EC007B681B686FF080021A61786800F067FAED
:1024FC007B681B681B6903F04003402B0ED17B6883
:10250C001B68DB6803F04003402B07D17B681B681A
:10251C006FF040021A61786800F0F9F87B681B686C
:10252C001B6903F02003202B0ED17B681B68DB6832
:10253C0003F02003202B07D17B681B686FF020026F
:10254C001A61786800F032FA00BF0837BD4680BDCA
:10255C0080B584B000AF786039607B6893F83C300C
:10256C00012B01D10223B3E07B68012283F83C20CC
:10257C007B68022283F83D207B681B689B68FB60AC
:10258C00FB6823F07703FB60FB6823F47F43FB605D
:10259C007B681B68FA689A603B681B68B3F5005F40
:1025AC003ED0B3F5005F00F28780B3F5805F00F09A
:1025BC008580B3F5805F7FD8702B1AD0702B7BD8B9
:1025CC00602B50D0602B77D8502B3CD0502B73D82D
:1025DC00402B58D0402B6FD8302B64D0302B6BD87D
:1025EC00202B60D0202B67D8002B5CD0102B5AD01E
:1025FC0062E07B6818683B6899683B685A683B687E
:10260C00DB6800F05CF97B681B689B68FB60FB680F
:10261C0043F07703FB607B681B68FA689A604EE0B6
:10262C007B6818683B6899683B685A683B68DB684C
:10263C0000F045F97B681B689A687B681B6842F45C
:10264C0080429A603BE07B6818683B6859683B683D
:10265C00DB681A4600F0BCF87B681B6850211846F2
:10266C0000F013F92BE07B6818683B6859683B68ED
:10267C00DB681A4600F0DAF87B681B6860211846A4
:10268C0000F003F91BE07B6818683B6859683B68ED
:10269C00DB681A4600F09CF87B681B6840211846E2
:1026AC0000F0F3F80BE07B681A683B681B6819466E
:1026BC00104600F0EAF802E000BF00E000BF7B68C3
:1026CC00012283F83D207B68002283F83C20002304
:1026DC0018461037BD4680BD80B483B000AF78601B
:1026EC0000BF0C37BD4680BC704780B483B000AFD0
:1026FC00786000BF0C37BD4680BC704780B483B097
:10270C0000AF786000BF0C37BD4680BC704780B40A
:10271C0083B000AF786000BF0C37BD4680BC7047FB
:10272C0080B485B000AF786039607B681B68FB6053
:10273C007B68254A934207D07B68B3F1804F03D066
:10274C007B68224A934208D1FB6823F07003FB603C
:10275C003B685B68FA681343FB607B681A4A9342D8
:10276C0007D07B68B3F1804F03D07B68174A934244
:10277C0008D1FB6823F44073FB603B68DB68FA68A4
:10278C001343FB60FB6823F080023B685B691343D7
:10279C00FB607B68FA681A603B689A687B68DA624F
:1027AC003B681A687B689A627B68074A934203D13C
:1027BC003B681A697B681A637B6801225A6100BF07
:1027CC001437BD4680BC7047002C0140000400400B
:1027DC0080B487B000AFF860B9607A60FB681B6AA0
:1027EC007B61FB681B6A23F00102FB681A62FB68C1
:1027FC009B693B613B6923F0F0033B617B681B01E8
:10280C003A6913433B617B6923F00A037B617A6964
:10281C00BB6813437B61FB683A699A61FB687A6910
:10282C001A6200BF1C37BD4680BC704780B487B0AD
:10283C0000AFF860B9607A60FB681B6A23F0100285
:10284C00FB681A62FB689B697B61FB681B6A3B61D6
:10285C007B6923F470437B617B681B037A691343A8
:10286C007B613B6923F0A0033B61BB681B013A69A8
:10287C0013433B61FB687A699A61FB683A691A6297
:10288C0000BF1C37BD4680BC704780B485B000AF1C
:10289C00786039607B689B68FB60FB6823F0700391
:1028AC00FB603A68FB68134343F00703FB607B68EB
:1028BC00FA689A6000BF1437BD4680BC704780B47C
:1028CC0087B000AFF860B9607A603B60FB689B68CA
:1028DC007B617B6923F47F437B613B681A027B68D5
:1028EC001A43BB6813437A6913437B61FB687A69AB
:1028FC009A6000BF1C37BD4680BC704780B485B061
:10290C0000AF786039607B6893F83C30012B01D1C3
:10291C00022341E07B68012283F83C207B68022281
:10292C0083F83D207B681B685B68FB607B681B68D9
:10293C009B68BB60FB6823F07003FB603B681B6803
:10294C00FA681343FB607B681B68FA685A607B6803
:10295C001B68144A934209D07B681B68B3F1804F03
:10296C0004D07B681B68104A93420CD1BB6823F0DF
:10297C008003BB603B685B68BA681343BB607B68D1
:10298C001B68BA689A607B68012283F83D207B68DB
:10299C00002283F83C20002318461437BD4680BC27
:1029AC00704700BF002C01400004004080B483B08D
:1029BC0000AF786000BF0C37BD4680BC704780B458
:1029CC0083B000AF786000BF0C37BD4680BC704749
:1029DC0080B582B000AF78607B68002B01D10123F9
:1029EC003FE07B6893F83D30DBB2002B06D17B686F
:1029FC00002283F83C207868FEF738F97B682422A3
:102A0C0083F83D207B681B68DA687B681B6822F4BE
:102A1C000052DA60786800F005F97B681B681A6967
:102A2C007B681B6822F490421A617B681B685A69A8
:102A3C007B681B6822F02A025A617B681B68DA6883
:102A4C007B681B6842F40052DA607B6800221A64CF
:102A5C007B68202283F83D207B68202283F83E206F
:102A6C00002318460837BD4680BD80B58AB002AF3A
:102A7C00F860B9603B601346FB8000237B61FB6808
:102A8C0093F83D30DBB2202B7CD1BB68002B02D0FD
:102A9C00FB88002B01D1012375E0FB6893F83C30D7
:102AAC00012B01D102236EE0FB68012283F83C204C
:102ABC00FB6800221A64FB68212283F83D20FEF794
:102ACC00AFFC7861FB68FA889A84FB68FA88DA8430
:102ADC00FB689B68B3F5805F08D1FB681B69002B12
:102AEC0004D10023FB61BB68BB6103E0BB68FB61E5
:102AFC000023BB61FB68002283F83C202AE03B6882
:102B0C0000937B6900228021F86800F040F80346AE
:102B1C00002B01D0032336E0FB69002B0BD1BB69E2
:102B2C001B881A46FB681B68C2F308025A60BB6913
:102B3C000233BB6107E0FB691A78FB681B685A60BB
:102B4C00FB690133FB61FB68DB8C9BB2013B9AB2E6
:102B5C00FB68DA84FB68DB8C9BB2002BCFD13B6823
:102B6C0000937B6900224021F86800F010F80346BE
:102B7C00002B01D0032306E0FB68202283F83D20C4
:102B8C00002300E0022318462037BD4680BD80B5E7
:102B9C0084B000AFF860B9603B601346FB712CE069
:102BAC00BB69B3F1FF3F28D0BB69002B07D0FEF700
:102BBC0037FC02463B68D31ABA699A421DD2FB68AD
:102BCC001B68DA68FB681B6822F4D072DA60FB6859
:102BDC001B685A69FB681B6822F001025A61FB688A
:102BEC00202283F83D20FB68202283F83E20FB68DE
:102BFC00002283F83C2003230FE0FB681B681A6853
:102C0C00BB681340BA689A420CBF01230023DBB2A5
:102C1C001A46FB799A42C3D0002318461037BD469A
:102C2C0080BD000080B584B000AF78607B681B6805
:102C3C001B6923F440517B68DA687B681B680A4384
:102C4C001A617B689A687B681B691A437B685B69AD
:102C5C001343BB607B681B68DB6823F4B05323F021
:102C6C000C037A681268B9680B43D3607B681B68E5
:102C7C005B6923F440717B689A697B681B680A4323
:102C8C005A617B681B682C4A934203D1FFF78AFA7E
:102C9C00F86002E0FFF772FAF860FA6813469B00DE
:102CAC0013449A001A447B685B689B00B2FBF3F3F5
:102CBC00224AA2FB03235B091901FA6813469B0005
:102CCC0013449A001A447B685B689B00B2FBF3F2D6
:102CDC001A4BA3FB02035B09642000FB03F3D31A1A
:102CEC001B013233154AA2FB03235B0903F0F003EB
:102CFC001944FA6813469B0013449A001A447B68E3
:102D0C005B689B00B2FBF3F20C4BA3FB02035B0969
:102D1C00642000FB03F3D31A1B013233074AA2FBD6
:102D2C0003235B0903F00F027B681B680A449A605B
:102D3C0000BF1037BD4680BD003801401F85EB51E8
:102D4C00014B1868704700BF5000002070B500267A
:102D5C000C4D0D4C641BA410A64209D100F0E4FCF0
:102D6C0000260A4D0A4C641BA410A64205D170BD66
:102D7C0055F8043B98470136EEE755F8043B984765
:102D8C000136F2E75C3900085C3900085C39000850
:102D9C006039000803460244934200D1704703F89F
:102DAC00011BF9E770B50E46054618B183690BB9DE
:102DBC0000F048FAAB69AC6813B9284600F042FA47
:102DCC002C4B9C4220D16C68636EDB0705D4A38925
:102DDC00980502D4A06D00F0D3FAA38919071DD56C
:102DEC002369DBB1013EA36816F8011F013BA36008
:102DFC0039BB002B38DA22460A21284600F048F865
:102E0C00013011D00A2511E01B4B9C4201D1AC685A
:102E1C00DAE71A4B9C4208BFEC68D5E721462846F6
:102E2C0000F088F80028DDD04FF0FF35636EDA072C
:102E3C0005D4A3899B0502D4A06D00F0A2FA284604
:102E4C0070BD002B04DAA2699A4206DC0A2904D070
:102E5C0023685A1C22601970C5E72246284600F0E8
:102E6C0017F80130BFD1DFE70A2523685A1C22600E
:102E7C001D70DBE71C3900083C390008FC380008E1
:102E8C00024B01461868FFF78DBF00BF50000020B1
:102E9C00F8B50E461446054618B183690BB900F017
:102EAC00D1F9214B9C422BD16C68A369A360A389F7
:102EBC001A072FD523696BB323692068F6B2C01AA1
:102ECC0063693746834204DC2146284600F026F924
:102EDC0030BBA3680130013BA36023685A1C2260FD
:102EEC001E706369834204D0A389DB0706D50A2EC2
:102EFC0004D12146284600F011F988B93846F8BDAE
:102F0C000A4B9C4201D1AC68CFE7094B9C4208BFED
:102F1C00EC68CAE72146284600F00CF80028CBD014
:102F2C004FF0FF37EAE700BF1C3900083C390008B6
:102F3C00FC380008324B70B51D6806460C4625B1AE
:102F4C00AB6913B9284600F07DF92E4B9C420FD18A
:102F5C006C68A389B4F90C2019072CD4DD0611D4A4
:102F6C000923336042F040034FF0FF30A3813EE071
:102F7C00254B9C4201D1AC68EBE7244B9C4208BF2B
:102F8C00EC68E6E7580712D5616B41B104F14403D4
:102F9C00994202D0304600F059FA00236363A389AA
:102FAC0023F02403A3810023636023692360A38996
:102FBC0043F00803A38123694BB9A38903F420735D
:102FCC00B3F5007F03D02146304600F0FFF9A0890D
:102FDC00B4F90C2010F001030AD00023A36063693C
:102FEC005B42A361236943B910F08000BAD170BD74
:102FFC00810758BF6369A360F4E70020F7E700BFBF
:10300C00500000201C3900083C390008FC3800082E
:10301C008A892DE9F041054610070C4658D44B68B7
:10302C00002B05DC0B6C002B02DC0020BDE8F081D2
:10303C00E66A002EF9D0002312F480522F682B6020
:10304C0032D0606DA3895A0705D56368C01A636BCB
:10305C000BB1236CC01A00230246E66A2846216A8B
:10306C00B047431CA38906D129681D292CD82A4AAC
:10307C00CA40D60728D5002262602269D904226092
:10308C0004D5421C01D12B6803B96065616B2F60BC
:10309C000029CAD004F14403994202D0284600F01A
:1030AC00D5F900206063C1E7216A01232846B047A7
:1030BC00411CC7D12B68002BC4D01D2B01D0162B63
:1030CC0001D12F60B1E7A38943F04003A381ADE7A1
:1030DC000F69002FA9D0930718BF00230E6808BFF3
:1030EC004B69A6EB07080F608B60B8F1000F9CDDF5
:1030FC0043463A462846216AA66AB047002806DCB1
:10310C00A3894FF0FF3043F04003A3818EE70744BF
:10311C00A8EB0008E9E700BF0100402038B50B69B7
:10312C0005460C4613B90025284638BD18B18369ED
:10313C000BB900F087F8144B9C421BD16C68B4F9A6
:10314C000C30002BEFD0626ED00704D4990502D45A
:10315C00A06D00F015F928462146FFF759FF636E64
:10316C000546DA07E0D4A3899B05DDD4A06D00F0F9
:10317C0008F9D9E7054B9C4201D1AC68DFE7044B59
:10318C009C4208BFEC68DAE71C3900083C3900089F
:10319C00FC380008002310B50446C0E90033C0E930
:1031AC000433836081814366C2818361194608229E
:1031BC005C30FFF7EFFD054B24626362044BA362A6
:1031CC00044BE362044B236310BD00BFC5350008FC
:1031DC00E73500081F36000843360008014900F0A7
:1031EC00AFB800BF2931000870B568254A1E554399
:1031FC000E4605F1740100F075F9044640B100214A
:10320C00C0E900160C30A06005F16802FFF7C2FDA2
:10321C00204670BD014800F0B3B800BFC8010020C3
:10322C00014800F0AEB800BFC8010020014800F012
:10323C00A7B800BFC3010020014800F0A2B800BF2E
:10324C00C301002010B50446FFF7F0FFA3691BB1C2
:10325C00BDE81040FFF7F0BFC4E912332365134BF0
:10326C00134A1B68A262A34208BF0123204608BF71
:10327C00A36100F01FF86060204600F01BF8A0600E
:10328C00204600F017F800220421E0606068FFF788
:10329C0081FF01220921A068FFF77CFF0222122185
:1032AC00E068FFF777FF0123A361D1E7F838000846
:1032BC00E9310008F8B50746FFF7ACFF1E4B1E6856
:1032CC00B36913B93046FFF7BDFF4836D6E9013470
:1032DC00013B03D533680BB33668F7E7B4F90C50F0
:1032EC00D5B9164B04F15800E360656600F047F859
:1032FC00FFF796FF08222946C4E90155C4E9045595
:10330C002560A56104F15C00FFF744FDC4E90D558F
:10331C00C4E912552046F8BD6834D9E70421384673
:10332C00FFF762FF044630600028D5D1FFF778FF25
:10333C000C233B60EEE700BFF83800080100FFFFEC
:10334C002DE9F84306468846002700F14804D4E9E5
:10335C000195B9F1010905D52468002CF7D138463F
:10336C00BDE8F883AB89012B07D9B5F90E300133D1
:10337C0003D029463046C04707436835E9E7704714
:10338C007047704770B50E46B1F90E1014460029FF
:10339C001D4696B007DA00232B60B3891A0610D4A9
:1033AC004FF480630EE06A4600F06CF90028F2DB03
:1033BC00019A02F47042A2F500535A425A412A6013
:1033CC00EEE740230020236016B070BD8B8973B5E7
:1033DC009D0706460C4607D504F14703236023617D
:1033EC000123636102B070BD6A4601ABFFF7CAFFEF
:1033FC0000990546304600F075F848B9B4F90C3020
:10340C009A05EFD423F0030343F00203A381E3E70F
:10341C000D4BB362A389206043F08003A381009B12
:10342C0020616361019B5BB13046B4F90E1000F072
:10343C003BF928B1A38923F0030343F00103A381D3
:10344C00A0890543A581CDE7E931000838B50546CB
:10345C00002943D051F8043C0C1F002BB8BFE418D2
:10346C0000F044F91E4A1368104633B963601460C7
:10347C002846BDE8384000F03FB9A3420AD921687C
:10348C006218934201BF1A685B685218226063602D
:10349C000460EDE71A465B680BB1A342FAD91168D8
:1034AC005018A0420BD1206801445018834211607F
:1034BC00DED118685B68014411605360D8E702D90B
:1034CC000C232B60D4E7206821188B4201BF1968AC
:1034DC005B680918216063605460C9E738BD00BFA0
:1034EC0028010020F8B5CD1C25F0030508350C2D5E
:1034FC0038BF0C25002D064601DBA94203D90C234D
:10350C0033600020F8BD00F0F1F821490A68144638
:10351C009CB9204F3B6823B92146304600F03CF85B
:10352C0038602946304600F037F8431C23D10C2371
:10353C003046336000F0E0F8E3E723685B1B17D4F8
:10354C000B2B03D923601C44256004E06368A24262
:10355C000CBF0B605360304600F0CEF804F10B004A
:10356C00231D20F00700C21ACCD01B1AA350C9E7A8
:10357C0022466468CCE7C41C24F00304A042E3D0C8
:10358C00211A304600F008F80130DDD1CFE700BF3A
:10359C00280100202C01002038B50023054D0446DD
:1035AC0008462B60FDF72EFC431C02D12B6803B19F
:1035BC00236038BDCC01002010B50C46B1F90E10BB
:1035CC0000F0A0F80028ABBF636DA3891B1823F48F
:1035DC008053ACBF6365A38110BD2DE9F0411F463C
:1035EC008B890546DB050C46164605D502230022C1
:1035FC00B1F90E1000F068F8A389324623F4805319
:10360C00A38128463B46B4F90E10BDE8F04100F00A
:10361C0017B810B50C46B1F90E1000F055F8431C54
:10362C00A38915BF606523F4805343F48053A381B1
:10363C0018BFA38110BDB1F90E1000F013B8000033
:10364C0038B50446084611460022054D2A601A4634
:10365C00FDF7E8F9431C02D12B6803B1236038BD98
:10366C00CC01002038B50023054D044608462B60DC
:10367C00FDF797FB431C02D12B6803B1236038BDC7
:10368C00CC01002038B50023064D044608461146EF
:10369C002B60FDF791FB431C02D12B6803B1236017
:1036AC0038BD00BFCC01002038B50023054D0446C1
:1036BC0008462B60FDF78FFB431C02D12B6803B12E
:1036CC00236038BDCC01002038B5044608461146AD
:1036DC000022054D2A601A46FDF787FB431C02D1D8
:1036EC002B6803B1236038BDCC0100200148FFF7E3
:1036FC0047BE00BFC40100200148FFF742BE00BF17
:10370C00C401002038B50446084611460022054D78
:10371C002A601A46FDF728FB431C02D12B6803B123
:10372C00236038BDCC010020F8B500BFF8BC08BC44
:10373C009E467047F8B500BFF8BC08BC9E46704763
:10374C005468652073797374656D20697320696E94
:10375C00204D4F4445202732202D205245445F4DAB
:10376C004F444527200D000054686520737973740D
:10377C00656D20697320696E204D4F4445202733B9
:10378C00202D20414D4245525F4D4F444527200D81
:10379C00000000005468652073797374656D2069AE
:1037AC007320696E204D4F4445202734202D20472F
:1037BC005245454E5F4D4F444527200D00000000FB
:1037CC005468652073797374656D20697320696E14
:1037DC00204D4F4445202731202D204E4F524D4136
:1037EC004C27200D0000000054686520736574742C
:1037FC00696E6720697320696E636F72726563749A
:10380C002E0D0000596F752073686F756C64206302
:10381C00686F6F736520726564203D206772656503
:10382C006E202B20616D626572202874696D65298C
:10383C002E0D00005468652073797374656D2069D2
:10384C007320696E204D4F4445202731202D204E8A
:10385C004F524D414C5F4D4F444527200D00000009
:10386C00436F6E6669726D65642061646A7573740A
:10387C002074696D65210D00416C6C207365747446
:10388C00696E67732068617665206265656E20726B
:10389C0065736574210D0000546865207379737429
:1038AC00656D20697320696E204D4F44452027318A
:1038BC00202D204E4F524D414C5F4D4F44452720FB
:1038CC000D00000002030405060708090A0B0C0D85
:1038DC000E0F101000000000000000000102030495
:1038EC000607080900000000010203045400002030
:1038FC0000000000000000000000000000000000BC
:10390C0000000000000000000000000000000000AB
:10391C00000000000000000000000000000000009B
:10392C00000000000000000000000000000000008B
:10393C00000000000000000000000000000000007B
:10394C00000000000000000000000000000000006B
:04395C00310100082D
:043960000D0100084D
:103964000500000002000000030000000300000046
:1039740005000000010000001400000000080140E0
:103984000008014000080140000801400010002028
:1039940000400080C0F9A4B0999282F880900000A1
:1039A4000A0000000024F4001000000001000000E0
:1039B40054000020000000001C3900083C390008B5
:1039C400FC380008000000000000000000000000B7
:1039D40000000000000000000000000000000000E3
:1039E40000000000000000000000000000000000D3
:1039F40000000000000000000000000000000000C3
:103A040000000000000000000000000000000000B2
:043A140000000000AE
:0400000508001331AB
:00000001FF
