:020000040800F2
:1000000000280020950F0008190C00081F0C00089C
:10001000250C00082B0C0008310C00080000000023
:10002000000000000000000000000000370C000885
:10003000430C0008000000004F0C00085B0C000897
:10004000DD0F0008DD0F0008DD0F0008DD0F0008E0
:10005000DD0F0008DD0F0008DD0F0008DD0F0008D0
:10006000DD0F0008DD0F0008DD0F0008DD0F0008C0
:10007000DD0F0008DD0F0008DD0F0008DD0F0008B0
:10008000DD0F0008DD0F0008DD0F0008DD0F0008A0
:10009000DD0F0008DD0F0008DD0F0008DD0F000890
:1000A000DD0F0008DD0F0008DD0F0008DD0F000880
:1000B000690C0008DD0F000800000000DD0F0008DB
:1000C000DD0F00080000000000000000DD0F000848
:1000D00000000000DD0F0008DD0F00080000000038
:1000E000DD0F0008DD0F0008DD0F00080000000034
:1000F0000000000000000000000000000000000000
:0C01000000000000000000005FF808F1A3
:10010C0010B5054C237833B9044B13B10448AFF345
:10011C0000800123237010BDA80000200000000007
:10012C00D438000808B5034B1BB103490348AFF39F
:10013C00008008BD00000000AC000020D43800088E
:10014C0080B500AF002000F071F90346002B01D000
:10015C000A2318E0012000F069F90346002B01D0B6
:10016C000F2310E0022000F061F90346002B01D0B0
:10017C000C2308E0032000F059F90346002B01D0B2
:10018C000D2300E00023184680BD000080B500AFB1
:10019C00604B1B78022B00F0AC80022B00F3B2807A
:1001AC00002B03D0012B00F09180ABE0FFF7C8FFD0
:1001BC000346002B00F08680564B01221A70FFF785
:1001CC00BFFF03460A3B052B78D801A252F823F057
:1001DC00F5010008C9020008C3020008D502000896
:1001EC00C90200088D0200084B4B1B68013B072B12
:1001FC0041D801A252F823F0250200082D02000874
:10020C004B0200086902000845020008630200085E
:10021C00770200087D0200083F4B02221A602BE097
:10022C003E4B1B683E4A13603D4B1B683D4A1360B6
:10023C00394B03221A601FE0374B03221A603A4BEA
:10024C001B68374A1360364B1B68364A1360324BB7
:10025C0004221A6010E0304B04221A60304B1B68E9
:10026C00304A13602C4B01221A602B4B01221A606E
:10027C00294B01221A6000BF264B01221A7024E080
:10028C00254B1B68042B0ED0042B10DC022B02D048
:10029C00032B04D00BE0204B05221A6008E01E4B08
:1002AC0006221A6004E01C4B07221A6000E000BF13
:1002BC0000F07CFD09E000F0D7FD06E0154B0022B4
:1002CC001A7024E000BF22E000BF20E0FFF738FFE7
:1002DC000346002B03D10F4B00221A7014E00020B0
:1002EC0000F0C6F80346002B0ED00A4B02221A70FF
:1002FC000AE0FFF725FF0346002B07D1054B002230
:10030C001A7003E000BF02E000BF00E000BF00BFB6
:10031C0080BD00BFCC000020100000200400002095
:10032C000C000020C40000200800002080B582B022
:10033C0000AF00237B6061E0344A7B68134419787A
:10034C00334A7B6813440A461A70324A7B6852F867
:10035C00232031497B6831F813301946104601F0DF
:10036C0023F903461946294A7B6813440A461A7036
:10037C00264A7B6813441A7825497B680B441B7802
:10038C009A4238D1254A7B6813441978244A7B68F1
:10039C0013440A461A701D4A7B68134419781F4A85
:1003AC007B6813440A461A701C4A7B6813441B78FA
:1003BC00002B16D11B4A7B6832F81330632B0AD8FA
:1003CC00184A7B6832F81330013399B2154A7B68AE
:1003DC0022F813100FE0144A7B68134401221A70A0
:1003EC0009E0104A7B68002122F813100E4A7B6842
:1003FC00134400221A707B6801337B607B68032BEB
:10040C009ADD00BF00BF0837BD4680BDD800002074
:10041C00DC0000201400002024000020D00000206C
:10042C00D4000020E4000020E000002080B483B061
:10043C0000AF0346FB71FB79032B01D900230DE0C0
:10044C00FB79094AD35C002B06D1FB79074AD35CB4
:10045C00012B01D1012300E00023DBB218460C373D
:10046C00BD4680BC704700BFD0000020D4000020E7
:10047C0080B483B000AF0346FB71FB79032B01D929
:10048C00FF2307E0FB79064AD35C012B0CBF012349
:10049C000023DBB218460C37BD4680BC704700BF4A
:1004AC00E000002080B400AF1C4B1B680C2B30DC30
:1004BC001B4B00221A70194B1B68DAB2184B5A707E
:1004CC00184B1B68092B1BDD164B1B68164A82FB4D
:1004DC0003129210DB17D31ADAB2114B9A70114B2C
:1004EC001A68114B83FB02139910D317C91A0B46C8
:1004FC009B000B445B00D11ACAB2094BDA7009E0BD
:10050C00074B00229A70074B1B68DAB2044BDA7067
:10051C0000E000BFBD4680BC704700BF100000204B
:10052C00EC0000200C0000206766666680B400AF0B
:10053C00034B4FF47F421A6100BFBD4680BC70472D
:10054C00000C014080B582B000AF78607B68032B53
:10055C0072D801A252F823F075050008A90500080D
:10056C00DD0500081106000801221021354801F0B4
:10057C0032F800222021334801F02DF800224021CE
:10058C00304801F028F8002280212E4801F023F891
:10059C002D4B1B78184600F059F84EE00022102124
:1005AC00284801F018F801222021264801F013F800
:1005BC0000224021234801F00EF80022802121481E
:1005CC0001F009F8204B5B78184600F03FF834E056
:1005DC00002210211B4800F0FEFF002220211948A8
:1005EC0000F0F9FF01224021164800F0F4FF002230
:1005FC008021144800F0EFFF134B9B78184600F055
:10060C0025F81AE0002210210E4800F0E4FF002229
:10061C0020210C4800F0DFFF00224021094800F0A7
:10062C00DAFF01228021074800F0D5FF064BDB786A
:10063C00184600F00BF800E000BF00BF0837BD46BD
:10064C0080BD00BF00080140EC00002080B483B0E6
:10065C0000AF7860064BFF225A61064A7B68134450
:10066C001A78034B1A6100BF0C37BD4680BC70472B
:10067C00000C01402C00002080B500AFFFF712FFEA
:10068C00084B1B68032B02DD064B00221A60054B3E
:10069C001B685A1C03490A601846FFF753FF00BF3A
:1006AC0080BD00BFC800002080B500AF00F092FCF8
:1006BC0000F03CF800F0ECF800F074F800F0BEF834
:1006CC00134801F023FC134BFF225A61FFF72EFF56
:1006DC00022000F067F9104B1B68012B04D100F0CD
:1006EC0007FC322000F05EF9FFF750FDFFF728FD04
:1006FC000346002BEFD0094B1B681946084802F043
:10070C0083F9084B1B681946074802F07DF9E2E7AC
:10071C007001002000080140F0000020C4000020FF
:10072C00EC3800080C000020FC38000880B590B0B4
:10073C0000AF07F1180328220021184602F05CF9DB
:10074C003B1D00221A605A609A60DA601A6102231B
:10075C00BB610123BB621023FB6200237B6307F1A7
:10076C001803184600F068FF0346002B01D000F078
:10077C00FDF80F237B600023BB600023FB6000238C
:10078C003B6100237B613B1D0021184601F0D4F92D
:10079C000346002B01D000F0E9F800BF4037BD46FE
:1007AC0080BD000080B586B000AF07F108030022C1
:1007BC001A605A609A60DA603B4600221A605A60EE
:1007CC001D4B4FF080421A601B4B41F63F725A6032
:1007DC00194B00229A60184B0922DA60164B002242
:1007EC001A61154B00229A61134801F03FFB034636
:1007FC00002B01D000F0BAF84FF48053BB6007F126
:10080C00080319460C4801F0D5FC0346002B01D017
:10081C0000F0ACF800233B6000237B603B4619469C
:10082C00054801F09DFE0346002B01D000F09EF818
:10083C0000BF1837BD4680BD7001002080B500AFE9
:10084C00114B124A1A60104B4FF4E1325A600E4BA6
:10085C0000229A600C4B0022DA600B4B00221A61CA
:10086C00094B0C225A61084B00229A61064B00225C
:10087C00DA61054801F0DEFE0346002B01D000F0E2
:10088C0075F800BF80BD00BF2C010020003801406E
:10089C0080B586B000AF07F1080300221A605A60D9
:1008AC009A60DA602E4B9B692D4A43F004039361E6
:1008BC002B4B9B6903F004037B607B68284B9B6983
:1008CC00274A43F008039361254B9B6903F0080307
:1008DC003B603B680022F021224800F07CFE0022A5
:1008EC0043F6F871204800F076FEF023BB6001233C
:1008FC00FB6000233B6102237B6107F1080319466F
:10090C00184800F0D7FC0723BB600023FB600123D1
:10091C003B6107F108031946134800F0CBFC43F682
:10092C00F873BB600123FB6000233B6102237B61F6
:10093C0007F1080319460C4800F0BCFC4FF4704357
:10094C00BB600023FB6001233B6107F108031946E0
:10095C00044800F0AFFC00BF1837BD4680BD00BF97
:10096C000010024000080140000C014080B400AFB0
:10097C0072B600BFFEE7000080B584B000AFF8602F
:10098C00B9607A607B689AB24FF0FF33B96804485B
:10099C0001F09DFE7B6818461037BD4680BD00BF38
:1009AC002C01002080B483B000AF7860054A7B68CE
:1009BC001360054B00221A6000BF0C37BD4680BC8B
:1009CC00704700BF04010020F000002080B400AF8D
:1009DC00314B1B68002B0BDD2F4B1B68013B2E4A48
:1009EC0013602D4B1B68002B02DC2C4B01221A6070
:1009FC002B4B1B68002B0BDD294B1B68013B284A3A
:100A0C001360274B1B68002B02DC264B01221A605B
:100A1C00254B1B68002B0BDD234B1B68013B224A2B
:100A2C001360214B1B68002B02DC204B01221A6047
:100A3C001F4B1B68002B0BDD1D4B1B68013B1C4A1D
:100A4C0013601B4B1B68002B02DC1A4B01221A6033
:100A5C00194B1B68002B0BDD174B1B68013B164A0F
:100A6C001360154B1B68002B02DC144B01221A601F
:100A7C00134B1B68002B0BDD114B1B68013B104A01
:100A8C0013600F4B1B68002B02DC0E4B01221A600B
:100A9C0000BFBD4680BC704704010020F000002060
:100AAC0008010020F40000200C010020F8000020B8
:100ABC0010010020FC000020140100200001002087
:100ACC001C0100201801002080B485B000AF154B2C
:100ADC009B69144A43F001039361124B9B6903F029
:100AEC000103BB60BB680F4BDB690E4A43F08053BC
:100AFC00D3610C4BDB6903F080537B607B680A4B42
:100B0C005B68FB60FB6823F0E063FB60FB6843F011
:100B1C008063FB60044AFB68536000BF1437BD461A
:100B2C0080BC7047001002400000014080B584B0CA
:100B3C0000AF78607B681B68B3F1804F13D10C4B0E
:100B4C00DB690B4A43F00103D361094BDB6903F00A
:100B5C000103FB60FB68002200211C2000F073FBEA
:100B6C001C2000F08CFB00BF1037BD4680BD00BFC1
:100B7C000010024080B588B000AF786007F1100318
:100B8C0000221A605A609A60DA607B681B681C4A03
:100B9C00934231D11B4B9B691A4A43F480439361B6
:100BAC00184B9B6903F48043FB60FB68154B9B69F6
:100BBC00144A43F004039361124B9B6903F0040342
:100BCC00BB60BB684FF400733B6102237B61032362
:100BDC00FB6107F1100319460B4800F06BFB4FF457
:100BEC0080633B6100237B610023BB6107F1100331
:100BFC001946054800F05EFB00BF2037BD4680BD9E
:100C0C0000380140001002400008014080B400AFE1
:100C1C00FEE780B400AFFEE780B400AFFEE780B41F
:100C2C0000AFFEE780B400AFFEE780B400AF00BFBA
:100C3C00BD4680BC704780B400AF00BFBD4680BCD1
:100C4C00704780B400AF00BFBD4680BC704780B514
:100C5C0000AF00F005FA00BF80BD000080B500AF0A
:100C6C00024801F09FF900BF80BD00BF7001002059
:100C7C0080B586B000AFF860B9607A6000237B6104
:100C8C000AE0AFF300800146BB685A1CBA60CAB2D6
:100C9C001A707B6901337B617A697B689A42F0DB5D
:100CAC007B6818461837BD4680BD80B483B000AF52
:100CBC0078604FF0FF3318460C37BD4680BC704748
:100CCC0080B483B000AF786039603B684FF4005259
:100CDC005A60002318460C37BD4680BC704780B460
:100CEC0083B000AF7860012318460C37BD4680BC3A
:100CFC00704780B485B000AFF860B9607A600023AB
:100D0C0018461437BD4680BC7047000080B586B0CD
:100D1C0000AF7860144A154BD31A7B617B693B6139
:100D2C00134B1B68002B02D1114B124A1A60104B4B
:100D3C001A687B6813443A699A4207D201F032FE72
:100D4C0003460C221A604FF0FF3309E0084B1B6876
:100D5C00FB60074B1A687B681344054A1360FB68F9
:100D6C0018461837BD4680BD00280020000400003E
:100D7C0020010020D001002080B400AF00BFBD4690
:100D8C0080BC704780B582B000AF78607B681B6810
:100D9C00B3F1804F03D1FFF7C9FAFFF76DFCFFF7F2
:100DAC0015FE00BF0837BD4680BD000080B400AF03
:100DBC00284B1B68013B062B47D801A252F823F0A5
:100DCC00550E0008570E0008570E0008570E000865
:100DDC00E90D00080D0E0008310E00081E4B1B68B3
:100DEC001E4A13601C4B1B68622B03DD1A4B00223E
:100DFC001A602AE0184B1B680133174A136024E071
:100E0C00174B1B68154A1360154B1B68622B03DDCF
:100E1C00134B00221A6018E0114B1B680133104A67
:100E2C00136012E00F4B1B680C4A13600D4B1B68D0
:100E3C00622B03DD0B4B00221A6006E0094B1B688A
:100E4C000133084A136000E000BF00BFBD4680BC00
:100E5C00704700BF10000020000000200C00002094
:100E6C00040000200800002080B400AF1A4B1B685F
:100E7C00013B032B2AD801A252F823F0990E00084B
:100E8C00A30E0008B50E0008C70E0008134B1B6814
:100E9C00134A13601BE0124B1B68124A1360114B70
:100EAC001B680E4A136012E00D4B1B680E4A136050
:100EBC000D4B1B68094A136009E0094B1B680B4A70
:100ECC0013600A4B1B68054A136000E000BF00BFAB
:100EDC00BD4680BC704700BF100000200C000020F5
:100EEC00C4000020000000200400002008000020A6
:100EFC0080B500AF204B1B68013B062B39D801A2F3
:100F0C0052F823F02D0F0008370F00084F0F000880
:100F1C00670F0008370F00084F0F0008670F000815
:100F2C00164B1B68164A136023E001224FF45851EC
:100F3C00144800F050FB4FF41061124800F063FBB2
:100F4C0017E001224FF434510E4800F044FB4FF4EB
:100F5C0090510C4800F057FB0BE001224FF4D85194
:100F6C00084800F038FB4FF41051064800F04BFBDA
:100F7C0000BF00BF80BD00BF100000200C0000208F
:100F8C00C4000020000C01400C480D490D4A002300
:100F9C0002E0D458C4500433C4188C42F9D30A4A22
:100FAC000A4C002301E013600432A242FBD3FFF78A
:100FBC00E3FE01F0FDFCFFF777FB7047000000201B
:100FCC00A8000020D8390008A8000020CC0100207F
:100FDC00FEE7000080B500AF084B1B68074A43F0E2
:100FEC0010031360032000F023F90F2000F008F821
:100FFC00FFF76AFD0023184680BD00BF00200240A9
:10100C0080B582B000AF7860124B1A68124B1B7817
:10101C0019464FF47A73B3FBF1F3B2FBF3F31846B2
:10102C0000F03BF90346002B01D001230EE07B6856
:10103C000F2B0AD8002279684FF0FF3000F003F92B
:10104C00064A7B681360002300E00123184608372A
:10105C00BD4680BD38000020400000203C00002030
:10106C0080B400AF054B1B781A46054B1B68134424
:10107C00034A136000BFBD4680BC7047400000208F
:10108C00B801002080B400AF024B1B681846BD4667
:10109C0080BC7047B801002080B485B000AF786088
:1010AC007B6803F00703FB600C4BDB68BB60BA6822
:1010BC004FF6FF031340BB60FB681A02BB68134377
:1010CC0043F0BF6343F40033BB60044ABB68D36096
:1010DC0000BF1437BD4680BC704700BF00ED00E078
:1010EC0080B400AF044BDB681B0A03F007031846FF
:1010FC00BD4680BC704700BF00ED00E080B483B0FB
:10110C0000AF0346FB7197F90730002B0BDBFB7923
:10111C0003F01F02064997F907305B09012000FA1A
:10112C0002F241F8232000BF0C37BD4680BC70474B
:10113C0000E100E080B483B000AF03463960FB717E
:10114C0097F90730002B0ADB3B68DAB20C4997F9A8
:10115C0007301201D2B20B4483F800230AE03B683B
:10116C00DAB20849FB7903F00F03043B1201D2B247
:10117C000B441A7600BF0C37BD4680BC704700BFCD
:10118C0000E100E000ED00E080B489B000AFF86051
:10119C00B9607A60FB6803F00703FB61FB69C3F17C
:1011AC000703042B28BF0423BB61FB690433062B04
:1011BC0002D9FB69033B00E000237B614FF0FF3257
:1011CC00BB6902FA03F3DA43BB681A407B699A40A5
:1011DC004FF0FF317B6901FA03F3D9437B680B4075
:1011EC00134318462437BD4680BC704780B582B087
:1011FC0000AF78607B68013BB3F1807F01D30123A2
:10120C000FE00A4A7B68013B53600F214FF0FF301F
:10121C00FFF790FF054B00229A60044B07221A60DF
:10122C00002318460837BD4680BD00BF10E000E023
:10123C0080B582B000AF78607868FFF72DFF00BFF3
:10124C000837BD4680BD80B586B000AF0346B96097
:10125C007A60FB7300237B61FFF742FF78617A6849
:10126C00B9687869FFF790FF024697F90F3011467D
:10127C001846FFF75FFF00BF1837BD4680BD80B52D
:10128C0082B000AF0346FB7197F907301846FFF7A1
:10129C0035FF00BF0837BD4680BD80B582B000AFBA
:1012AC0078607868FFF7A2FF034618460837BD46FA
:1012BC0080BD000080B48BB000AF78603960002333
:1012CC007B6200233B6248E101227B6A02FA03F352
:1012DC00FB613B681B68FA691340BB61BA69FB6927
:1012EC009A4240F037813B685B68A34A93425ED0D8
:1012FC00A14A934275D8A14A934258D09F4A93422F
:10130C006FD89F4A934252D09D4A934269D89D4AC6
:10131C0093424CD09B4A934263D89B4A934246D00B
:10132C00994A93425DD8122B2AD8122B59D801A274
:10133C0052F823F0BB13000895130008A7130008FC
:10134C00E9130008EF130008EF130008EF1300086F
:10135C00EF130008EF130008EF130008EF13000859
:10136C00EF130008EF130008EF130008EF13000849
:10137C00EF130008EF1300089D130008B1130008C9
:10138C00824A934213D02CE03B68DB683B6229E035
:10139C003B68DB6804333B6224E03B68DB68083362
:1013AC003B621FE03B68DB680C333B621AE03B6836
:1013BC009B68002B02D104233B6213E03B689B68C3
:1013CC00012B05D108233B627B68FA691A6109E09D
:1013DC0008233B627B68FA695A6103E000233B6295
:1013EC0000E000BFBB69FF2B01D87B6801E07B6884
:1013FC0004337B61BB69FF2B02D87B6A9B0002E044
:10140C007B6A083B9B003B617B691A680F213B6937
:10141C0001FA03F3DB431A40396A3B6901FA03F31F
:10142C001A437B691A603B685B6803F08053002B9E
:10143C0000F09080564B9B69554A43F00103936131
:10144C00534B9B6903F00103BB60BB68514A7B6A39
:10145C009B08023352F82330FB607B6A03F00303D2
:10146C009B000F2202FA03F3DB43FA681340FB6084
:10147C007B68494A93420DD07B68484A934207D017
:10148C007B68474A934201D1022304E0032302E024
:10149C00012300E000237A6A02F0030292009340D9
:1014AC00FA681343FB603B497B6A9B080233FA687A
:1014BC0041F823203B685B6803F48033002B06D093
:1014CC00384B1A683749BB6913430B6006E0354B40
:1014DC001A68BB69DB43334913400B603B685B689C
:1014EC0003F40033002B06D02E4B5A682D49BB69F0
:1014FC0013434B6006E02B4B5A68BB69DB4329490D
:10150C0013404B603B685B6803F48013002B06D0E0
:10151C00244B9A682349BB6913438B6006E0214B2B
:10152C009A68BB69DB431F4913408B603B685B685F
:10153C0003F40013002B06D01A4BDA681949BB6967
:10154C001343CB6006E0174BDA68BB69DB431549E4
:10155C001340CB607B6A01337B623B681A687B6A01
:10156C0022FA03F3002B7FF4AFAE00BF00BF2C3781
:10157C00BD4680BC704700BF000032100000311027
:10158C0000002210000021100000121000001110A9
:10159C00001002400000014000080140000C014016
:1015AC00001001400004014080B485B000AF7860A9
:1015BC000B467B807B689A687B881340002B02D09B
:1015CC000123FB7301E00023FB73FB7B18461437EC
:1015DC00BD4680BC704780B483B000AF78600B46CA
:1015EC007B8013467B707B78002B03D07A887B68DA
:1015FC001A6103E07B881A047B681A6100BF0C3700
:10160C00BD4680BC704780B485B000AF78600B4697
:10161C007B807B68DB68FB607A88FB6813401A046C
:10162C00FB68D9437B880B401A437B681A6100BF67
:10163C001437BD4680BC704780B586B000AF78606B
:10164C007B68002B01D101236CE27B681B6803F0E3
:10165C000103002B00F08780924B5B6803F00C03B6
:10166C00042B0CD08F4B5B6803F00C03082B12D1AE
:10167C008C4B5B6803F48033B3F5803F0BD1894B03
:10168C001B6803F40033002B6CD07B685B68002B69
:10169C0068D1012346E27B685B68B3F5803F06D1D5
:1016AC00804B1B687F4A43F4803313602EE07B68C9
:1016BC005B68002B0CD17B4B1B687A4A23F480337C
:1016CC001360784B1B68774A23F4802313601DE06A
:1016DC007B685B68B3F5A02F0CD1724B1B68714A09
:1016EC0043F4802313606F4B1B686E4A43F48033C2
:1016FC0013600BE06B4B1B686A4A23F48033136056
:10170C00684B1B68674A23F4802313607B685B6813
:10171C00002B13D0FFF7B6FC386108E0FFF7B2FCE2
:10172C0002463B69D31A642B01D90323FAE15D4BC2
:10173C001B6803F40033002BF0D014E0FFF7A2FC7D
:10174C00386108E0FFF79EFC02463B69D31A642B14
:10175C0001D90323E6E1534B1B6803F40033002B40
:10176C00F0D100E000BF7B681B6803F00203002B84
:10177C0063D04C4B5B6803F00C03002B0BD0494B34
:10178C005B6803F00C03082B1CD1464B5B6803F41D
:10179C008033002B16D1434B1B6803F00203002B44
:1017AC0005D07B681B69012B01D00123BAE13D4BAD
:1017BC001B6823F0F8027B685B69DB003949134333
:1017CC000B603AE07B681B69002B20D0364B012262
:1017DC001A60FFF757FC386108E0FFF753FC02462C
:1017EC003B69D31A022B01D903239BE12D4B1B68B8
:1017FC0003F00203002BF0D02A4B1B6823F0F802F5
:10180C007B685B69DB00274913430B6015E0264BB3
:10181C0000221A60FFF736FC386108E0FFF732FC53
:10182C0002463B69D31A022B01D903237AE11D4BE3
:10183C001B6803F00203002BF0D17B681B6803F0DC
:10184C000803002B3AD07B689B69002B19D0174BEF
:10185C0001221A60FFF716FC386108E0FFF712FC52
:10186C0002463B69D31A022B01D903235AE10D4BD3
:10187C005B6A03F00203002BF0D0012000F0D8FAD1
:10188C001CE00A4B00221A60FFF7FCFB38610FE0EA
:10189C00FFF7F8FB02463B69D31A022B08D9032346
:1018AC0040E100BF0010024000004242800442426E
:1018BC009E4B5B6A03F00203002BE9D17B681B682B
:1018CC0003F00403002B00F0A6800023FB75974B5C
:1018DC00DB6903F08053002B0DD1944BDB69934AE9
:1018EC0043F08053D361914BDB6903F08053BB60B1
:1018FC00BB680123FB758E4B1B6803F48073002BB4
:10190C0018D18B4B1B688A4A43F480731360FFF722
:10191C00B9FB386108E0FFF7B5FB02463B69D31A07
:10192C00642B01D90323FDE0814B1B6803F4807306
:10193C00002BF0D07B68DB68012B06D17B4B1B6A3C
:10194C007A4A43F0010313622DE07B68DB68002BBD
:10195C000CD1764B1B6A754A23F001031362734B4F
:10196C001B6A724A23F0040313621CE07B68DB6879
:10197C00052B0CD16D4B1B6A6C4A43F004031362AC
:10198C006A4B1B6A694A43F0010313620BE0674B15
:10199C001B6A664A23F001031362644B1B6A634A99
:1019AC0023F0040313627B68DB68002B15D0FFF770
:1019BC0069FB38610AE0FFF765FB02463B69D31A05
:1019CC0041F28832934201D90323ABE0574B1B6A97
:1019DC0003F00203002BEED014E0FFF753FB386149
:1019EC000AE0FFF74FFB02463B69D31A41F28832FB
:1019FC00934201D9032395E04C4B1B6A03F002037D
:101A0C00002BEED1FB7D012B05D1484BDB69474AFE
:101A1C0023F08053D3617B68DB69002B00F081805D
:101A2C00424B5B6803F00C03082B61D07B68DB69CD
:101A3C00022B46D13F4B00221A60FFF723FB386183
:101A4C0008E0FFF71FFB02463B69D31A022B01D9B2
:101A5C00032367E0354B1B6803F00073002BF0D1B8
:101A6C007B681B6AB3F5803F08D1304B5B6823F46D
:101A7C0000327B689B682D4913434B602B4B5B6892
:101A8C0023F474127B68196A7B685B6A0B432749E1
:101A9C0013434B60274B01221A60FFF7F3FA3861AE
:101AAC0008E0FFF7EFFA02463B69D31A022B01D983
:101ABC00032337E01D4B1B6803F00073002BF0D0A1
:101ACC002FE01C4B00221A60FFF7DCFA386108E0AB
:101ADC00FFF7D8FA02463B69D31A022B01D903232C
:101AEC0020E0124B1B6803F00073002BF0D118E0C0
:101AFC007B68DB69012B01D1012313E00B4B5B6885
:101B0C00FB60FB6803F480327B681B6A9A4206D147
:101B1C00FB6803F470127B685B6A9A4201D0012364
:101B2C0000E0002318461837BD4680BD0010024067
:101B3C00007000406000424280B584B000AF786015
:101B4C0039607B68002B01D10123D0E06A4B1B6804
:101B5C0003F007033A689A4210D9674B1B6823F0CD
:101B6C00070265493B6813430B60634B1B6803F02A
:101B7C0007033A689A4201D00123B8E07B681B68DE
:101B8C0003F00203002B20D07B681B6803F00403D6
:101B9C00002B05D0594B5B68584A43F4E063536003
:101BAC007B681B6803F00803002B05D0534B5B6864
:101BBC00524A43F460535360504B5B6823F0F0027D
:101BCC007B689B684D4913434B607B681B6803F033
:101BDC000103002B40D07B685B68012B07D1474B7E
:101BEC001B6803F40033002B15D101237FE07B68C5
:101BFC005B68022B07D1414B1B6803F00073002B71
:101C0C0009D1012373E03D4B1B6803F00203002B49
:101C1C0001D101236BE0394B5B6823F003027B6835
:101C2C005B68364913434B60FFF72CFAF8600AE007
:101C3C00FFF728FA0246FB68D31A41F28832934226
:101C4C0001D9032353E02D4B5B6803F00C027B6836
:101C5C005B689B009A42EBD1274B1B6803F0070390
:101C6C003A689A4210D2244B1B6823F0070222498F
:101C7C003B6813430B60204B1B6803F007033A6867
:101C8C009A4201D0012332E07B681B6803F0040305
:101C9C00002B08D0194B5B6823F4E0627B68DB688F
:101CAC00164913434B607B681B6803F00803002B39
:101CBC0009D0124B5B6823F460527B681B69DB0014
:101CCC000E4913434B6000F021F802460B4B5B6846
:101CDC001B0903F00F030A49CB5C22FA03F3094AF0
:101CEC001360094B1B681846FFF78AF90023184646
:101CFC001037BD4680BD00BF0020024000100240DE
:101D0C0020390008380000203C00002090B48AB034
:101D1C0000AF2A4B3C1D0FCB84E80F0040F201238F
:101D2C003B800023FB610023BB6100237B6200230B
:101D3C007B6100233B62224B5B68FB61FB6903F018
:101D4C000C03042B02D0082B03D02DE01D4B3B625F
:101D5C002DE0FB699B0C03F00F0307F128021344E1
:101D6C0013F8243C7B61FB6903F48033002B13D004
:101D7C00134B5B685B0C03F0010307F1280213445F
:101D8C0013F8283CBB617B690E4A02FB03F2BB696A
:101D9C00B2FBF3F37B6204E07B690B4A02FB03F3B7
:101DAC007B627B6A3B6202E0064B3B6200BF3B6A94
:101DBC0018462837BD4690BC704700BF1039000844
:101DCC000010024000127A0000093D0080B400AF00
:101DDC00024B1B681846BD4680BC7047380000207B
:101DEC0080B500AFFFF7F2FF0246054B5B681B0A9C
:101DFC0003F007030349CB5C22FA03F3184680BDBA
:101E0C00001002403039000880B500AFFFF7DEFF4C
:101E1C000246054B5B68DB0A03F007030349CB5C06
:101E2C0022FA03F3184680BD001002403039000836
:101E3C0080B485B000AF78600A4B1B680A4AA2FBDD
:101E4C0003235B0A7A6802FB03F3FB6000BFFB68A9
:101E5C005A1EFA60002BF9D100BF00BF1437BD46E3
:101E6C0080BC704738000020D34D621080B582B022
:101E7C0000AF78607B68002B01D1012341E07B68C7
:101E8C0093F83D30DBB2002B06D17B68002283F83F
:101E9C003C207868FEF74AFE7B68022283F83D20DE
:101EAC007B681A687B6804331946104600F06AFA9E
:101EBC007B68012283F846207B68012283F83E2050
:101ECC007B68012283F83F207B68012283F8402045
:101EDC007B68012283F841207B68012283F8422031
:101EEC007B68012283F843207B68012283F844201D
:101EFC007B68012283F845207B68012283F83D2012
:101F0C00002318460837BD4680BD000080B485B05C
:101F1C0000AF78607B6893F83D30DBB2012B01D0C9
:101F2C00012335E07B68022283F83D207B681B6827
:101F3C00DA687B681B6842F00102DA607B681B6818
:101F4C00164A934209D07B681B68B3F1804F04D0CA
:101F5C007B681B68124A934211D17B681B689B6893
:101F6C0003F00703FB60FB68062B10D07B681B6833
:101F7C001A687B681B6842F001021A6007E07B68F4
:101F8C001B681A687B681B6842F001021A60002308
:101F9C0018461437BD4680BC704700BF002C01406A
:101FAC000004004080B582B000AF78607B681B688D
:101FBC001B6903F00203022B22D17B681B68DB68D0
:101FCC0003F00203022B1BD17B681B686FF002022B
:101FDC001A617B6801221A777B681B689B6903F086
:101FEC000303002B03D0786800F0B1F905E07868A2
:101FFC0000F0A4F9786800F0B3F97B6800221A7736
:10200C007B681B681B6903F00403042B22D17B68DB
:10201C001B68DB6803F00403042B1BD17B681B6873
:10202C006FF004021A617B6802221A777B681B68C6
:10203C009B6903F44073002B03D0786800F087F998
:10204C0005E0786800F07AF9786800F089F97B6827
:10205C0000221A777B681B681B6903F00803082BA6
:10206C0022D17B681B68DB6803F00803082B1BD1AB
:10207C007B681B686FF008021A617B6804221A7770
:10208C007B681B68DB6903F00303002B03D07868C3
:10209C0000F05DF905E0786800F050F9786800F020
:1020AC005FF97B6800221A777B681B681B6903F059
:1020BC001003102B22D17B681B68DB6803F0100324
:1020CC00102B1BD17B681B686FF010021A617B68A8
:1020DC0008221A777B681B68DB6903F44073002BBA
:1020EC0003D0786800F033F905E0786800F026F941
:1020FC00786800F035F97B6800221A777B681B68DA
:10210C001B6903F00103012B0ED17B681B68DB6894
:10211C0003F00103012B07D17B681B686FF00102F0
:10212C001A617868FEF72EFE7B681B681B6903F04A
:10213C008003802B0ED17B681B68DB6803F0800367
:10214C00802B07D17B681B686FF080021A6178685E
:10215C0000F067FA7B681B681B6903F04003402B97
:10216C000ED17B681B68DB6803F04003402B07D162
:10217C007B681B686FF040021A61786800F0F9F810
:10218C007B681B681B6903F02003202B0ED17B6836
:10219C001B68DB6803F02003202B07D17B681B68CE
:1021AC006FF020021A61786800F032FA00BF08372D
:1021BC00BD4680BD80B584B000AF786039607B6867
:1021CC0093F83C30012B01D10223B3E07B68012250
:1021DC0083F83C207B68022283F83D207B681B68D7
:1021EC009B68FB60FB6823F07703FB60FB6823F4C0
:1021FC007F43FB607B681B68FA689A603B681B68CE
:10220C00B3F5005F3ED0B3F5005F00F28780B3F505
:10221C00805F00F08580B3F5805F7FD8702B1AD07B
:10222C00702B7BD8602B50D0602B77D8502B3CD0A8
:10223C00502B73D8402B58D0402B6FD8302B64D0F8
:10224C00302B6BD8202B60D0202B67D8002B5CD088
:10225C00102B5AD062E07B6818683B6899683B6821
:10226C005A683B68DB6800F05CF97B681B689B680C
:10227C00FB60FB6843F07703FB607B681B68FA68C4
:10228C009A604EE07B6818683B6899683B685A68AE
:10229C003B68DB6800F045F97B681B689A687B68D3
:1022AC001B6842F480429A603BE07B6818683B688C
:1022BC0059683B68DB681A4600F0BCF87B681B6801
:1022CC005021184600F013F92BE07B6818683B6826
:1022DC0059683B68DB681A4600F0DAF87B681B68C3
:1022EC006021184600F003F91BE07B6818683B6816
:1022FC0059683B68DB681A4600F09CF87B681B68E1
:10230C004021184600F0F3F80BE07B681A683B6834
:10231C001B681946104600F0EAF802E000BF00E026
:10232C0000BF7B68012283F83D207B68002283F884
:10233C003C20002318461037BD4680BD80B483B0C6
:10234C0000AF786000BF0C37BD4680BC704780B4CE
:10235C0083B000AF786000BF0C37BD4680BC7047BF
:10236C0080B483B000AF786000BF0C37BD4680BC32
:10237C00704780B483B000AF786000BF0C37BD46A7
:10238C0080BC704780B485B000AF786039607B68E2
:10239C001B68FB607B68254A934207D07B68B3F1CE
:1023AC00804F03D07B68224A934208D1FB6823F00C
:1023BC007003FB603B685B68FA681343FB607B68E7
:1023CC001A4A934207D07B68B3F1804F03D07B68E5
:1023DC00174A934208D1FB6823F44073FB603B68B7
:1023EC00DB68FA681343FB60FB6823F080023B68F0
:1023FC005B691343FB607B68FA681A603B689A68F8
:10240C007B68DA623B681A687B689A627B68074A69
:10241C00934203D13B681A697B681A637B6801227B
:10242C005A6100BF1437BD4680BC7047002C014078
:10243C000004004080B487B000AFF860B9607A60E7
:10244C00FB681B6A7B61FB681B6A23F00102FB685B
:10245C001A62FB689B693B613B6923F0F0033B61AB
:10246C007B681B013A6913433B617B6923F00A03C8
:10247C007B617A69BB6813437B61FB683A699A613B
:10248C00FB687A691A6200BF1C37BD4680BC704776
:10249C0080B487B000AFF860B9607A60FB681B6AE3
:1024AC0023F01002FB681A62FB689B697B61FB6876
:1024BC001B6A3B617B6923F470437B617B681B0364
:1024CC007A6913437B613B6923F0A0033B61BB68D2
:1024DC001B013A6913433B61FB687A699A61FB689B
:1024EC003A691A6200BF1C37BD4680BC704780B485
:1024FC0085B000AF786039607B689B68FB60FB68D7
:10250C0023F07003FB603A68FB68134343F0070346
:10251C00FB607B68FA689A6000BF1437BD4680BCCC
:10252C00704780B487B000AFF860B9607A603B60E8
:10253C00FB689B687B617B6923F47F437B613B6811
:10254C001A027B681A43BB6813437A6913437B6195
:10255C00FB687A699A6000BF1C37BD4680BC704727
:10256C0080B485B000AF786039607B6893F83C30FC
:10257C00012B01D1022341E07B68012283F83C202E
:10258C007B68022283F83D207B681B685B68FB60DC
:10259C007B681B689B68BB60FB6823F07003FB6067
:1025AC003B681B68FA681343FB607B681B68FA681E
:1025BC005A607B681B68144A934209D07B681B687D
:1025CC00B3F1804F04D07B681B68104A93420CD146
:1025DC00BB6823F08003BB603B685B68BA6813433D
:1025EC00BB607B681B68BA689A607B68012283F8C1
:1025FC003D207B68002283F83C20002318461437CA
:10260C00BD4680BC704700BF002C01400004004058
:10261C0080B483B000AF786000BF0C37BD4680BC7F
:10262C00704780B483B000AF786000BF0C37BD46F4
:10263C0080BC704780B582B000AF78607B68002B9F
:10264C0001D101233FE07B6893F83D30DBB2002BD6
:10265C0006D17B68002283F83C207868FEF78AFA62
:10266C007B68242283F83D207B681B68DA687B68D2
:10267C001B6822F40052DA60786800F005F97B6878
:10268C001B681A697B681B6822F490421A617B688C
:10269C001B685A697B681B6822F02A025A617B68A6
:1026AC001B68DA687B681B6842F40052DA607B684E
:1026BC0000221A647B68202283F83D207B6820224C
:1026CC0083F83E20002318460837BD4680BD80B5F0
:1026DC008AB002AFF860B9603B601346FB80002300
:1026EC007B61FB6893F83D30DBB2202B7CD1BB685F
:1026FC00002B02D0FB88002B01D1012375E0FB6875
:10270C0093F83C30012B01D102236EE0FB680122CF
:10271C0083F83C20FB6800221A64FB68212283F8B2
:10272C003D20FEF7AFFC7861FB68FA889A84FB6861
:10273C00FA88DA84FB689B68B3F5805F08D1FB6884
:10274C001B69002B04D10023FB61BB68BB6103E058
:10275C00BB68FB610023BB61FB68002283F83C2053
:10276C002AE03B6800937B6900228021F86800F026
:10277C0040F80346002B01D0032336E0FB69002B05
:10278C000BD1BB691B881A46FB681B68C2F3080295
:10279C005A60BB690233BB6107E0FB691A78FB68BE
:1027AC001B685A60FB690133FB61FB68DB8C9BB2D5
:1027BC00013B9AB2FB68DA84FB68DB8C9BB2002B82
:1027CC00CFD13B6800937B6900224021F86800F070
:1027DC0010F80346002B01D0032306E0FB682022EF
:1027EC0083F83D20002300E0022318462037BD4625
:1027FC0080BD80B584B000AFF860B9603B60134613
:10280C00FB712CE0BB69B3F1FF3F28D0BB69002BF7
:10281C0007D0FEF737FC02463B68D31ABA699A42D6
:10282C001DD2FB681B68DA68FB681B6822F4D07247
:10283C00DA60FB681B685A69FB681B6822F00102AE
:10284C005A61FB68202283F83D20FB68202283F824
:10285C003E20FB68002283F83C2003230FE0FB683A
:10286C001B681A68BB681340BA689A420CBF0123F4
:10287C000023DBB21A46FB799A42C3D000231846D8
:10288C001037BD4680BD000080B584B000AF7860C5
:10289C007B681B681B6923F440517B68DA687B6892
:1028AC001B680A431A617B689A687B681B691A4328
:1028BC007B685B691343BB607B681B68DB6823F434
:1028CC00B05323F00C037A681268B9680B43D360D9
:1028DC007B681B685B6923F440717B689A697B6831
:1028EC001B680A435A617B681B682C4A934203D1CC
:1028FC00FFF78AFAF86002E0FFF772FAF860FA68FC
:10290C0013469B0013449A001A447B685B689B0037
:10291C00B2FBF3F3224AA2FB03235B091901FA6809
:10292C0013469B0013449A001A447B685B689B0017
:10293C00B2FBF3F21A4BA3FB02035B09642000FB0E
:10294C0003F3D31A1B013233154AA2FB03235B0991
:10295C0003F0F0031944FA6813469B0013449A00E1
:10296C001A447B685B689B00B2FBF3F20C4BA3FB35
:10297C0002035B09642000FB03F3D31A1B013233FF
:10298C00074AA2FB03235B0903F00F027B681B6859
:10299C000A449A6000BF1037BD4680BD0038014024
:1029AC001F85EB51014B1868704700BF4400002095
:1029BC0070B500260C4D0D4C641BA410A64209D119
:1029CC0000F082FF00260A4D0A4C641BA410A6429C
:1029DC0005D170BD55F8043B98470136EEE755F824
:1029EC00043B98470136F2E7D0390008D03900088B
:1029FC00D0390008D439000803460244934200D170
:102A0C00704703F8011BF9E70FB40A4B13B51C68A8
:102A1C0024B1A36913B9204600F066F805AB204633
:102A2C00049AA168019300F081F902B0BDE810404E
:102A3C0004B0704744000020002310B50446C0E9E0
:102A4C000033C0E90433836081814366C2818361B2
:102A5C00194608225C30FFF7CFFF054B24626362F6
:102A6C00044BA362044BE362044B236310BD00BF11
:102A7C00E5320008073300083F33000863330008D1
:102A8C00014900F0AFB800BF3D36000870B56825AD
:102A9C004A1E55430E4605F1740100F0C5F8044674
:102AAC0040B10021C0E900160C30A06005F16802AD
:102ABC00FFF7A2FF204670BD014800F0B3B800BF7D
:102ACC00C4010020014800F0AEB800BFC4010020D2
:102ADC00014800F0A7B800BFBF010020014800F07A
:102AEC00A2B800BFBF01002010B50446FFF7F0FFED
:102AFC00A3691BB1BDE81040FFF7F0BFC4E9123366
:102B0C002365134B134A1B68A262A34208BF01231F
:102B1C00204608BFA36100F01FF86060204600F05B
:102B2C001BF8A060204600F017F800220421E0609A
:102B3C006068FFF781FF01220921A068FFF77CFF85
:102B4C0002221221E068FFF777FF0123A361D1E78E
:102B5C00383900088D2A0008F8B50746FFF7ACFF96
:102B6C001E4B1E68B36913B93046FFF7BDFF4836DC
:102B7C00D6E90134013B03D533680BB33668F7E76C
:102B8C00B4F90C50D5B9164B04F15800E3606566E6
:102B9C0000F047F8FFF796FF08222946C4E90155D3
:102BAC00C4E904552560A56104F15C00FFF724FF1E
:102BBC00C4E90D55C4E912552046F8BD6834D9E76F
:102BCC0004213846FFF762FF044630600028D5D157
:102BDC00FFF778FF0C233B60EEE700BF38390008A5
:102BEC000100FFFF2DE9F84306468846002700F157
:102BFC004804D4E90195B9F1010905D52468002CE4
:102C0C00F7D13846BDE8F883AB89012B07D9B5F964
:102C1C000E30013303D029463046C0470743683590
:102C2C00E9E7704770477047F8B5CD1C25F00305F0
:102C3C0008350C2D38BF0C25002D064601DBA942AA
:102C4C0003D90C2333600020F8BD00F0B1FD2149FD
:102C5C000A6814469CB9204F3B6823B9214630467C
:102C6C0000F02AFB38602946304600F025FB431C57
:102C7C0023D10C233046336000F0A0FDE3E723683A
:102C8C005B1B17D40B2B03D923601C44256004E079
:102C9C006368A2420CBF0B605360304600F08EFD9F
:102CAC0004F10B00231D20F00700C21ACCD01B1A14
:102CBC00A350C9E722466468CCE7C41C24F0030483
:102CCC00A042E3D0211A304600F0F6FA0130DDD1F3
:102CDC00CFE700BF2401002028010020936810B426
:102CEC00013B002B936007DA9469A34201DB0A29AC
:102CFC0002D110BC00F034BB1368581C1060197062
:102D0C00084610BC7047F8B506460F461446D51851
:102D1C00AC4201D1002007E03A46304614F8011BC2
:102D2C00FFF7DCFF431CF3D1F8BD00002DE9F04F99
:102D3C000D461446984606469DB018B183690BB9EA
:102D4C00FFF7D2FE894B9D421BD175686B6ED9077C
:102D5C0005D4AB899A0502D4A86DFFF763FFAB8944
:102D6C001B0701D52B69EBB92946304600F05CFBFB
:102D7C00C0B16B6EDC070ED54FF0FF301DB0BDE857
:102D8C00F08F7B4B9D4201D1B568DFE7794B9D42BB
:102D9C0008BFF568DAE7AB899805EDD4A86DFFF7A5
:102DAC0042FFE9E70023099320238DF829303023D3
:102DBC004FF00109CDF80C80DFF8BC818DF82A307A
:102DCC0023469A4613F8012B0AB1252AF9D1BAEBFE
:102DDC00040B0BD05B46224629463046FFF793FF87
:102DEC00013000F0AA80099A5A4409929AF80030EE
:102DFC00002B00F0A28000234FF0FF32CDE9052319
:102E0C000AF1010A049307938DF853301A93544630
:102E1C00052214F8011B584800F0BCFC049AD8B9E0
:102E2C00D10644BF20238DF85330130744BF2B2306
:102E3C008DF853309AF800302A2B15D054460020C8
:102E4C004FF00A0C079A214611F8013B303B092B35
:102E5C004ED9B0B1079214E0A0EB080309FA03F3C2
:102E6C001343A2460493D2E7039B191D1B680391DD
:102E7C00002BBBBF5B4242F0020207930793B8BF23
:102E8C00049223782E2B0CD163782A2B35D1039BFB
:102E9C0002341A1D1B680392002BB8BF4FF0FF338E
:102EAC000593DFF8E4A003225046217800F072FC71
:102EBC0040B14023A0EB0A0003FA00F0049B01345C
:102ECC000343049314F8011B06222C488DF8281098
:102EDC0000F060FC00283FD0294B1BBB039B073341
:102EEC0023F0070308330393099B3B44099367E7DB
:102EFC000C4601200CFB0232A5E700234FF00A0C14
:102F0C00194601340593204610F8012B303A092A52
:102F1C0003D9002BC5D00591C3E7044601230CFB54
:102F2C000121F0E703AB00932A463046154B04A968
:102F3C00AFF300800746781CD6D16B6ED90705D449
:102F4C00AB899A0502D4A86DFFF76DFEAB895B06C1
:102F5C003FF512AF099811E703AB00932A463046B0
:102F6C00084B04A900F082F8E4E700BF5C390008C4
:102F7C007C3900083C3900089C390008A639000847
:102F8C0000000000132D0008A23900082DE9F047BD
:102F9C00164699468A680B6907469342B8BF134692
:102FAC00336091F843200C46DDF820800AB10133E0
:102FBC0033602368990642BF336802333360256857
:102FCC0015F0060506D104F1190AE36832689B1A5C
:102FDC00AB4228DC94F84320131E226818BF01234F
:102FEC0092062DD44946384604F14302C0470130BD
:102FFC0020D02368E56803F00603042B18BF0025D6
:10300C0032684FF00006A36808BFAD1A226908BFEA
:10301C0025EAE5759342C4BF9B1AED181A34B542E4
:10302C001AD1002008E00123524649463846C047D1
:10303C00013003D14FF0FF30BDE8F0870135C4E714
:10304C003020E11881F843005A1C94F845102244B2
:10305C00023382F84310C5E701232246494638461D
:10306C00C0470130E6D00136D9E700002DE9FF4713
:10307C000C46277E9146782F80469A460C9904F18F
:10308C00430207D8622F0AD8002F00F0D980582F9E
:10309C0000F0A48004F1420684F842703AE0A7F1F3
:1030AC006303152BF6D801A050F823F0113100085A
:1030BC0025310008A1300008A1300008A13000081B
:1030CC00A130000825310008A1300008A13000080B
:1030DC00A1300008A1300008333200085531000837
:1030EC0015320008A1300008A13000085532000844
:1030FC00A130000855310008A1300008A1300008AB
:10310C001D3200080B6804F142061A1D1B680A6088
:10311C0084F842300123A4E0256808682E0600F1EB
:10312C0004030AD505680B60002D03DA2D236D42CC
:10313C0084F843300A235E4819E015F0400F056807
:10314C000B6018BF2DB2EFE70B682568181D0860DF
:10315C00280601D51D6802E06906FBD51D886F2F76
:10316C000CBF08230A235248002184F843106668D8
:10317C00002EA8BF2168A660A4BF21F00401216025
:10318C000DB9002E4DD01646B5FBF3F103FB1157CC
:10319C00C75D06F8017D2F46BB420D46F4D9082BBE
:1031AC000BD12368DF0708D5236961689942DEBF1C
:1031BC00302306F8013C06F1FF36921B22614B4688
:1031CC0021464046CDF800A003AAFFF7DFFE0130F0
:1031DC004CD14FF0FF3004B0BDE8F087344884F890
:1031EC0045700E68236856F8045B1F060E6014D5F4
:1031FC00D90744BF43F0200323601DB9236823F093
:10320C00200323601023AFE7236843F020032360DF
:10321C007823284884F84530E3E75E0648BFADB212
:10322C00E6E71646BBE70B6826681D1D60690D6056
:10323C0035061B6801D5186002E07106FBD51880B5
:10324C00002316462361BAE70B681A1D0A601E6834
:10325C0000213046626800F09DFA08B1801B606066
:10326C0063682361002384F84330A8E7324649465B
:10327C0040462369D0470130ABD023689B0713D459
:10328C00E068039B9842B8BF1846A4E70123324676
:10329C0049464046D04701309BD00135E36803993D
:1032AC005B1AAB42F2DCEBE7002504F11906F5E7FB
:1032BC00AD390008BE39000838B50023054D044669
:1032CC0008462B60FDF722FD431C02D12B6803B18D
:1032DC00236038BDC801002010B50C46B1F90E10A2
:1032EC0000F0BEFA0028ABBF636DA3891B1823F452
:1032FC008053ACBF6365A38110BD2DE9F0411F461F
:10330C008B890546DB050C46164605D502230022A3
:10331C00B1F90E1000F0C8F9A389324623F480539A
:10332C00A38128463B46B4F90E10BDE8F04100F0ED
:10333C0069B810B50C46B1F90E1000F0B5F9431C84
:10334C00A38915BF606523F4805343F48053A38194
:10335C0018BFA38110BDB1F90E1000F0D3B8000056
:10336C00F8B50E461446054618B183690BB9FFF73C
:10337C00BBFB214B9C422BD16C68A369A360A38936
:10338C001A072FD523696BB323692068F6B2C01ACC
:10339C0063693746834204DC2146284600F048F92D
:1033AC0030BBA3680130013BA36023685A1C226028
:1033BC001E706369834204D0A389DB0706D50A2EED
:1033CC0004D12146284600F033F988B93846F8BDB7
:1033DC000A4B9C4201D1AC68CFE7094B9C4208BF19
:1033EC00EC68CAE72146284600F01EF80028CBD02E
:1033FC004FF0FF37EAE700BF5C3900087C39000862
:10340C003C39000838B50446084611460022054DE3
:10341C002A601A46FDF7B0FA431C02D12B6803B19F
:10342C00236038BDC8010020324B70B51D680646BC
:10343C000C4625B1AB6913B92846FFF755FB2E4B4B
:10344C009C420FD16C68A389B4F90C2019072CD4B9
:10345C00DD0611D40923336042F040034FF0FF30F6
:10346C00A3813EE0254B9C4201D1AC68EBE7244B99
:10347C009C4208BFEC68E6E7580712D5616B41B176
:10348C0004F14403994202D0304600F09DF9002328
:10349C006363A38923F02403A3810023636023695E
:1034AC002360A38943F00803A38123694BB9A38943
:1034BC0003F42073B3F5007F03D02146304600F0AF
:1034CC0029F9A089B4F90C2010F001030AD00023CB
:1034DC00A36063695B42A361236943B910F0800068
:1034EC00BAD170BD810758BF6369A360F4E70020AF
:1034FC00F7E700BF440000205C3900087C39000865
:10350C003C39000838B50023054D044608462B60AD
:10351C00FDF7CBFB431C02D12B6803B1236038BDF4
:10352C00C80100208A892DE9F041054610070C4698
:10353C0058D44B68002B05DC0B6C002B02DC0020F4
:10354C00BDE8F081E66A002EF9D0002312F4805217
:10355C002F682B6032D0606DA3895A0705D563683C
:10356C00C01A636B0BB1236CC01A00230246E66AC7
:10357C002846216AB047431CA38906D129681D2916
:10358C002CD82A4ACA40D60728D500226260226964
:10359C00D904226004D5421C01D12B6803B96065A3
:1035AC00616B2F600029CAD004F14403994202D008
:1035BC00284600F009F900206063C1E7216A012365
:1035CC002846B047411CC7D12B68002BC4D01D2BFB
:1035DC0001D0162B01D12F60B1E7A38943F0400332
:1035EC00A381ADE70F69002FA9D0930718BF002363
:1035FC000E6808BF4B69A6EB07080F608B60B8F12B
:10360C00000F9CDD43463A462846216AA66AB0471D
:10361C00002806DCA3894FF0FF3043F04003A38160
:10362C008EE70744A8EB0008E9E700BF0100402043
:10363C0038B50B6905460C4613B90025284638BD2C
:10364C0018B183690BB9FFF74FFA144B9C421BD18D
:10365C006C68B4F90C30002BEFD0626ED00704D438
:10366C00990502D4A06DFFF7DDFA28462146FFF735
:10367C0059FF636E0546DA07E0D4A3899B05DDD4B8
:10368C00A06DFFF7D0FAD9E7054B9C4201D1AC688D
:10369C00DFE7044B9C4208BFEC68DAE75C390008B2
:1036AC007C3900083C39000838B5044608461146F8
:1036BC000022054D2A601A46FDF71BFB431C02D164
:1036CC002B6803B1236038BDC801002070B50E46CD
:1036DC00B1F90E10144600291D4696B007DA0023E6
:1036EC002B60B3891A0610D44FF480630EE06A463F
:1036FC0000F0C8F80028F2DB019A02F47042A2F53F
:10370C0000535A425A412A60EEE7402300202360BE
:10371C0016B070BD8B8973B59D0706460C4607D550
:10372C0004F14703236023610123636102B070BD80
:10373C006A4601ABFFF7CAFF009905463046FFF712
:10374C0073FA48B9B4F90C309A05EFD423F003039B
:10375C0043F00203A381E3E70D4BB362A38920601E
:10376C0043F08003A381009B20616361019B5BB1EB
:10377C003046B4F90E1000F097F828B1A38923F065
:10378C00030343F00103A381A0890543A581CDE781
:10379C008D2A0008034610B5C9B20244934218465C
:1037AC0001D1002003E0047801338C42F6D110BD26
:1037BC000148FFF737BA00BFC00100200148FFF7EE
:1037CC0032BA00BFC001002038B50546002943D0ED
:1037DC0051F8043C0C1F002BB8BFE418FFF7E8FFAE
:1037EC001E4A1368104633B9636014602846BDE85E
:1037FC003840FFF7E3BFA3420AD92168621893420D
:10380C0001BF1A685B685218226063600460EDE7C0
:10381C001A465B680BB1A342FAD911685018A04242
:10382C000BD120680144501883421160DED1186816
:10383C005B68014411605360D8E702D90C232B60FC
:10384C00D4E7206821188B4201BF19685B680918FE
:10385C00216063605460C9E738BD00BF24010020BB
:10386C0038B50446084611460022054D2A601A4612
:10387C00FDF7FEF9431C02D12B6803B1236038BD60
:10388C00C801002038B50023064D044608461146F1
:10389C002B60FDF715FA431C02D12B6803B1236092
:1038AC0038BD00BFC801002038B50023054D0446C3
:1038BC0008462B60FDF713FA431C02D12B6803B1A9
:1038CC00236038BDC8010020F8B500BFF8BC08BCA7
:1038DC009E467047F8B500BFF8BC08BC9E467047C2
:1038EC0054696D652074656D703A2025640D0A006D
:1038FC004C696768742074696D653A2025640D0AFB
:10390C000000000002030405060708090A0B0C0D51
:10391C000E0F101000000000000000000102030454
:10392C0006070809000000000102030448000020FB
:10393C00000000000000000000000000000000007B
:10394C00000000000000000000000000000000006B
:10395C00000000000000000000000000000000005B
:10396C00000000000000000000000000000000004B
:10397C00000000000000000000000000000000003B
:10398C00000000000000000000000000000000002B
:10399C00232D302B2000686C4C006566674546472C
:1039AC0000303132333435363738394142434445AF
:1039BC00460030313233343536373839616263641E
:0439CC00656600002C
:0439D00031010008B9
:0439D4000D010008D9
:1039D80005000000020000000300000005000000D0
:1039E80001000000000801400008014000080140F3
:1039F800000801400010002000400080C0F9A4B079
:103A0800999282F8809000000024F40010000000D1
:103A18000100000048000020000000005C39000898
:103A28007C3900083C390008000000000000000054
:103A3800000000000000000000000000000000007E
:103A4800000000000000000000000000000000006E
:103A5800000000000000000000000000000000005E
:103A6800000000000000000000000000000000004E
:083A7800000000000000000046
:0400000508000F954B
:00000001FF
