:020000040800F2
:1000000000280020A90800080D07000813070008B1
:10001000190700081F070008250700080000000056
:100020000000000000000000000000002B07000896
:100030003707000800000000430700084F070008CA
:10004000F1080008F1080008F1080008F1080008AC
:10005000F1080008F1080008F1080008F10800089C
:10006000F1080008F1080008F1080008F10800088C
:10007000F1080008F1080008F1080008F10800087C
:10008000F1080008F1080008F1080008F10800086C
:10009000F1080008F1080008F1080008F10800085C
:1000A000F1080008F1080008F1080008F10800084C
:1000B0005D070008F108000800000000F1080008D2
:1000C000F10800080000000000000000F10800082E
:1000D00000000000F1080008F1080008000000001E
:1000E000F1080008F1080008F1080008000000000D
:1000F0000000000000000000000000000000000000
:0C01000000000000000000005FF808F1A3
:10010C0010B5054C237833B9044B13B10448AFF345
:10011C0000800123237010BD880000200000000027
:10012C000032000808B5034B1BB103490348AFF379
:10013C00008008BD000000008C0000200032000888
:10014C0080B582B000AF00237B6058E0304A7B68FA
:10015C00134419782F4A7B6813440A461A702E4AA6
:10016C007B6852F823202D497B6831F813301946EF
:10017C00104600F0C7FE03461946254A7B68134417
:10018C000A461A70224A7B6813441A7821497B6804
:10019C000B441B789A4208D11D4A7B68134419788A
:1001AC001F4A7B6813440A461A701D4A7B68134425
:1001BC001B78002B16D11B4A7B6832F81330632B4B
:1001CC000AD8184A7B6832F81330013399B2154AB1
:1001DC007B6822F813100FE0134A7B68134401224A
:1001EC001A7009E00F4A7B68002122F813100E4A9E
:1001FC007B68134400221A707B6801337B607B6838
:10020C00032BA3DD00BF00BF0837BD4680BD00BF78
:10021C00A8000020AC0000200000002010000020EE
:10022C00A4000020B4000020B000002080B582B0F3
:10023C0000AF00F059FB00F01BF800F0CBF800F019
:10024C0053F800F09DF8084801F0F6FA00237B60A3
:10025C007B685A1C7A601946044802F06BF84FF41C
:10026C007A7000F0A3FBF3E7340100201832000889
:10027C0080B590B000AF07F1180328220021184672
:10028C0002F050F83B1D00221A605A609A60DA6046
:10029C001A610223BB610123BB621023FB620023A2
:1002AC007B6307F11803184600F05CFE0346002B35
:1002BC0001D000F0FDF80F237B600023BB6000230E
:1002CC00FB6000233B6100237B613B1D0021184632
:1002DC0001F0C8F80346002B01D000F0E9F800BF8C
:1002EC004037BD4680BD000080B586B000AF07F139
:1002FC00080300221A605A609A60DA603B460022BA
:10030C001A605A601D4B4FF080421A601B4B41F62D
:10031C003F725A60194B00229A60184B0922DA601E
:10032C00164B00221A61154B00229A61134801F0FA
:10033C0033FA0346002B01D000F0BAF84FF4805387
:10034C00BB6007F1080319460C4801F0C9FB0346D2
:10035C00002B01D000F0ACF800233B6000237B6045
:10036C003B461946054801F091FD0346002B01D090
:10037C0000F09EF800BF1837BD4680BD3401002048
:10038C0080B500AF114B124A1A60104B4FF4E1329A
:10039C005A600E4B00229A600C4B0022DA600B4B19
:1003AC0000221A61094B0C225A61084B00229A61F7
:1003BC00064B0022DA61054801F0D2FD0346002B02
:1003CC0001D000F075F800BF80BD00BFF000002028
:1003DC000038014080B586B000AF07F10803002259
:1003EC001A605A609A60DA602E4B9B692D4A43F072
:1003FC00040393612B4B9B6903F004037B607B68C4
:10040C00284B9B69274A43F008039361254B9B6952
:10041C0003F008033B603B680022F021224800F007
:10042C0088FD002241F6F871204800F082FDF0238F
:10043C00BB600123FB6000233B6102237B6107F15E
:10044C0008031946184800F0E3FB0723BB600023A0
:10045C00FB6001233B6107F108031946134800F0C8
:10046C00D7FB41F6F873BB600123FB6000233B61B3
:10047C0002237B6107F1080319460C4800F0C8FB06
:10048C004FF47043BB600023FB6000233B6107F11A
:10049C0008031946044800F0BBFB00BF1837BD46E3
:1004AC0080BD00BF0010024000080140000C01405C
:1004BC0080B400AF72B600BFFEE7000080B584B018
:1004CC0000AFF860B9607A607B689AB24FF0FF3386
:1004DC00B968044801F091FD7B6818461037BD4699
:1004EC0080BD00BFF000002080B400AF294B1B681A
:1004FC00002B0BDD274B1B68013B264A1360254B59
:10050C001B68002B02DC244B01221A60234B1B6856
:10051C00002B0BDD214B1B68013B204A13601F4B4A
:10052C001B68002B02DC1E4B01221A601D4B1B6842
:10053C00002B0BDD1B4B1B68013B1A4A1360194B3C
:10054C001B68002B02DC184B01221A60174B1B682E
:10055C00002B0BDD154B1B68013B144A1360134B2E
:10056C001B68002B02DC124B01221A60114B1B681A
:10057C00002B0BDD0F4B1B68013B0E4A13600D4B20
:10058C001B68002B02DC0C4B01221A6000BFBD461D
:10059C0080BC7047D0000020BC000020D40000209C
:1005AC00C0000020D8000020C4000020DC00002087
:1005BC00C8000020E0000020CC00002080B485B0F2
:1005CC0000AF154B9B69144A43F001039361124B26
:1005DC009B6903F00103BB60BB680F4BDB690E4AE0
:1005EC0043F08053D3610C4BDB6903F080537B6089
:1005FC007B680A4B5B68FB60FB6823F0E063FB6085
:10060C00FB6843F08063FB60044AFB68536000BFE7
:10061C001437BD4680BC70470010024000000140FA
:10062C0080B584B000AF78607B681B68B3F1804FF5
:10063C0013D10C4BDB690B4A43F00103D361094B1B
:10064C00DB6903F00103FB60FB68002200211C2026
:10065C0000F0A7FA1C2000F0C0FA00BF1037BD460E
:10066C0080BD00BF0010024080B588B000AF78603C
:10067C0007F1100300221A605A609A60DA607B68F6
:10068C001B681C4A934231D11B4B9B691A4A43F499
:10069C0080439361184B9B6903F48043FB60FB68B8
:1006AC00154B9B69144A43F004039361124B9B69ED
:1006BC0003F00403BB60BB684FF400733B6102237F
:1006CC007B610323FB6107F1100319460B4800F013
:1006DC009FFA4FF480633B6100237B610023BB6175
:1006EC0007F110031946054800F092FA00BF2037B5
:1006FC00BD4680BD0038014000100240000801409A
:10070C0080B400AFFEE780B400AFFEE780B400AF6A
:10071C00FEE780B400AFFEE780B400AFFEE780B424
:10072C0000AF00BFBD4680BC704780B400AF00BFB7
:10073C00BD4680BC704780B400AF00BFBD4680BCD6
:10074C00704780B500AF00F015F900BF80BD000008
:10075C0080B500AF024801F0BBF800BF80BD00BF00
:10076C003401002080B586B000AFF860B9607A60C3
:10077C0000237B610AE0AFF300800146BB685A1C82
:10078C00BA60CAB21A707B6901337B617A697B6883
:10079C009A42F0DB7B6818461837BD4680BD80B4A2
:1007AC0083B000AF78604FF0FF3318460C37BD466E
:1007BC0080BC704780B483B000AF786039603B6810
:1007CC004FF400525A60002318460C37BD4680BCCB
:1007DC00704780B483B000AF7860012318460C37A3
:1007EC00BD4680BC704780B485B000AFF860B9607E
:1007FC007A60002318461437BD4680BC7047000051
:10080C0080B586B000AF7860144A154BD31A7B6163
:10081C007B693B61134B1B68002B02D1114B124AB5
:10082C001A60104B1A687B6813443A699A4207D2D3
:10083C0001F04EFD03460C221A604FF0FF3309E025
:10084C00084B1B68FB60074B1A687B681344054A0E
:10085C001360FB6818461837BD4680BD0028002081
:10086C0000040000E40000209001002080B400AFE0
:10087C0000BFBD4680BC704780B582B000AF7860C9
:10088C007B681B68B3F1804F03D1FFF759FCFFF76E
:10089C002BFE00BF0837BD4680BD00000C480D493B
:1008AC000D4A002302E0D458C4500433C4188C42BF
:1008BC00F9D30A4A0A4C002301E013600432A24225
:1008CC00FBD3FFF7D3FF01F009FDFFF7AFFC704737
:1008DC000000002088000020F8320008880000206A
:1008EC0090010020FEE7000080B500AF084B1B68AC
:1008FC00074A43F010031360032000F047F90F2060
:10090C0000F008F8FFF75AFE0023184680BD00BF20
:10091C000020024080B582B000AF7860124B1A689C
:10092C00124B1B7819464FF47A73B3FBF1F3B2FBFD
:10093C00F3F3184600F05FF90346002B01D00123B6
:10094C000EE07B680F2B0AD8002279684FF0FF303D
:10095C0000F027F9064A7B681360002300E00123AE
:10096C0018460837BD4680BD180000202000002026
:10097C001C00002080B400AF054B1B781A46054BB9
:10098C001B681344034A136000BFBD4680BC70470C
:10099C00200000207C01002080B400AF024B1B68BB
:1009AC001846BD4680BC70477C01002080B584B0E1
:1009BC0000AF7860FFF7F0FFB8607B68FB60FB6806
:1009CC00B3F1FF3F05D00A4B1B781A46FB68134462
:1009DC00FB6000BFFFF7E0FF0246BB68D31AFA6862
:1009EC009A42F7D800BF00BF1037BD4680BD00BF8C
:1009FC002000002080B485B000AF78607B6803F0E5
:100A0C000703FB600C4BDB68BB60BA684FF6FF0357
:100A1C001340BB60FB681A02BB68134343F0BF630F
:100A2C0043F40033BB60044ABB68D36000BF143787
:100A3C00BD4680BC704700BF00ED00E080B400AF45
:100A4C00044BDB681B0A03F007031846BD4680BC49
:100A5C00704700BF00ED00E080B483B000AF0346E8
:100A6C00FB7197F90730002B0BDBFB7903F01F02AE
:100A7C00064997F907305B09012000FA02F241F8A8
:100A8C00232000BF0C37BD4680BC704700E100E05E
:100A9C0080B483B000AF03463960FB7197F907301F
:100AAC00002B0ADB3B68DAB20C4997F907301201CC
:100ABC00D2B20B4483F800230AE03B68DAB208494F
:100ACC00FB7903F00F03043B1201D2B20B441A76EC
:100ADC0000BF0C37BD4680BC704700BF00E100E092
:100AEC0000ED00E080B489B000AFF860B9607A60C6
:100AFC00FB6803F00703FB61FB69C3F10703042BDD
:100B0C0028BF0423BB61FB690433062B02D9FB69A4
:100B1C00033B00E000237B614FF0FF32BB6902FA1C
:100B2C0003F3DA43BB681A407B699A404FF0FF31FC
:100B3C007B6901FA03F3D9437B680B4013431846D6
:100B4C002437BD4680BC704780B582B000AF78605A
:100B5C007B68013BB3F1807F01D301230FE00A4A8C
:100B6C007B68013B53600F214FF0FF30FFF790FF84
:100B7C00054B00229A60044B07221A60002318468A
:100B8C000837BD4680BD00BF10E000E080B582B0E4
:100B9C0000AF78607868FFF72DFF00BF0837BD46BF
:100BAC0080BD80B586B000AF0346B9607A60FB7338
:100BBC0000237B61FFF742FF78617A68B968786936
:100BCC00FFF790FF024697F90F3011461846FFF7D2
:100BDC005FFF00BF1837BD4680BD80B582B000AF47
:100BEC000346FB7197F907301846FFF735FF00BF36
:100BFC000837BD4680BD80B582B000AF786078689C
:100C0C00FFF7A2FF034618460837BD4680BD00001B
:100C1C0080B48BB000AF7860396000237B62002316
:100C2C003B6248E101227B6A02FA03F3FB613B68F9
:100C3C001B68FA691340BB61BA69FB699A4240F0C0
:100C4C0037813B685B68A34A93425ED0A14A9342CA
:100C5C0075D8A14A934258D09F4A93426FD89F4A65
:100C6C00934252D09D4A934269D89D4A93424CD0AC
:100C7C009B4A934263D89B4A934246D0994A9342EB
:100C8C005DD8122B2AD8122B59D801A252F823F076
:100C9C00170D0008F10C0008030D0008450D0008A5
:100CAC004B0D00084B0D00084B0D00084B0D0008B8
:100CBC004B0D00084B0D00084B0D00084B0D0008A8
:100CCC004B0D00084B0D00084B0D00084B0D000898
:100CDC004B0D0008F90C00080D0D0008824A9342D8
:100CEC0013D02CE03B68DB683B6229E03B68DB6897
:100CFC0004333B6224E03B68DB6808333B621FE053
:100D0C003B68DB680C333B621AE03B689B68002B4A
:100D1C0002D104233B6213E03B689B68012B05D195
:100D2C0008233B627B68FA691A6109E008233B627D
:100D3C007B68FA695A6103E000233B6200E000BF64
:100D4C00BB69FF2B01D87B6801E07B6804337B61B6
:100D5C00BB69FF2B02D87B6A9B0002E07B6A083BD5
:100D6C009B003B617B691A680F213B6901FA03F315
:100D7C00DB431A40396A3B6901FA03F31A437B6976
:100D8C001A603B685B6803F08053002B00F0908086
:100D9C00564B9B69554A43F001039361534B9B6936
:100DAC0003F00103BB60BB68514A7B6A9B080233AA
:100DBC0052F82330FB607B6A03F003039B000F2285
:100DCC0002FA03F3DB43FA681340FB607B68494A81
:100DDC0093420DD07B68484A934207D07B68474AC0
:100DEC00934201D1022304E0032302E0012300E03B
:100DFC0000237A6A02F0030292009340FA681343CC
:100E0C00FB603B497B6A9B080233FA6841F823205C
:100E1C003B685B6803F48033002B06D0384B1A68B0
:100E2C003749BB6913430B6006E0354B1A68BB6945
:100E3C00DB43334913400B603B685B6803F40033BE
:100E4C00002B06D02E4B5A682D49BB6913434B60BF
:100E5C0006E02B4B5A68BB69DB43294913404B60B6
:100E6C003B685B6803F48013002B06D0244B9A6814
:100E7C002349BB6913438B6006E0214B9A68BB691D
:100E8C00DB431F4913408B603B685B6803F4001322
:100E9C00002B06D01A4BDA681949BB691343CB6097
:100EAC0006E0174BDA68BB69DB4315491340CB608E
:100EBC007B6A01337B623B681A687B6A22FA03F314
:100ECC00002B7FF4AFAE00BF00BF2C37BD4680BCFB
:100EDC00704700BF000032100000311000002210DB
:100EEC000000211000001210000011100010024030
:100EFC000000014000080140000C014000100140BE
:100F0C000004014080B485B000AF78600B467B8054
:100F1C007B689A687B881340002B02D00123FB73FB
:100F2C0001E00023FB73FB7B18461437BD4680BCE5
:100F3C00704780B483B000AF78600B467B8013465B
:100F4C007B707B78002B03D07A887B681A6103E076
:100F5C007B881A047B681A6100BF0C37BD4680BCC5
:100F6C007047000080B586B000AF78607B68002BBE
:100F7C0001D101236CE27B681B6803F00103002B99
:100F8C0000F08780924B5B6803F00C03042B0CD0B1
:100F9C008F4B5B6803F00C03082B12D18C4B5B68F6
:100FAC0003F48033B3F5803F0BD1894B1B6803F4FA
:100FBC000033002B6CD07B685B68002B68D101235D
:100FCC0046E27B685B68B3F5803F06D1804B1B68BB
:100FDC007F4A43F4803313602EE07B685B68002B00
:100FEC000CD17B4B1B687A4A23F480331360784B0B
:100FFC001B68774A23F4802313601DE07B685B68D1
:10100C00B3F5A02F0CD1724B1B68714A43F48023AB
:10101C0013606F4B1B686E4A43F4803313600BE014
:10102C006B4B1B686A4A23F480331360684B1B6854
:10103C00674A23F4802313607B685B68002B13D012
:10104C00FFF7AAFC386108E0FFF7A6FC02463B69F3
:10105C00D31A642B01D90323FAE15D4B1B6803F40B
:10106C000033002BF0D014E0FFF796FC386108E059
:10107C00FFF792FC02463B69D31A642B01D9032378
:10108C00E6E1534B1B6803F40033002BF0D100E076
:10109C0000BF7B681B6803F00203002B63D04C4B32
:1010AC005B6803F00C03002B0BD0494B5B6803F01F
:1010BC000C03082B1CD1464B5B6803F48033002BCC
:1010CC0016D1434B1B6803F00203002B05D07B6841
:1010DC001B69012B01D00123BAE13D4B1B6823F0A6
:1010EC00F8027B685B69DB00394913430B603AE01B
:1010FC007B681B69002B20D0364B01221A60FFF74E
:10110C004BFC386108E0FFF747FC02463B69D31AF9
:10111C00022B01D903239BE12D4B1B6803F0020327
:10112C00002BF0D02A4B1B6823F0F8027B685B691C
:10113C00DB00274913430B6015E0264B00221A6095
:10114C00FFF72AFC386108E0FFF726FC02463B69F2
:10115C00D31A022B01D903237AE11D4B1B6803F030
:10116C000203002BF0D17B681B6803F00803002BF3
:10117C003AD07B689B69002B19D0174B01221A605F
:10118C00FFF70AFC386108E0FFF706FC02463B69F2
:10119C00D31A022B01D903235AE10D4B5B6A03F0DE
:1011AC000203002BF0D0012000F0D8FA1CE00A4B0F
:1011BC0000221A60FFF7F0FB38610FE0FFF7ECFB41
:1011CC0002463B69D31A022B08D9032340E100BF26
:1011DC000010024000004242800442429E4B5B6A77
:1011EC0003F00203002BE9D17B681B6803F00403B6
:1011FC00002B00F0A6800023FB75974BDB6903F0F6
:10120C008053002B0DD1944BDB69934A43F08053F0
:10121C00D361914BDB6903F08053BB60BB68012346
:10122C00FB758E4B1B6803F48073002B18D18B4B12
:10123C001B688A4A43F480731360FFF7ADFB386177
:10124C0008E0FFF7A9FB02463B69D31A642B01D9CE
:10125C000323FDE0814B1B6803F48073002BF0D05B
:10126C007B68DB68012B06D17B4B1B6A7A4A43F007
:10127C00010313622DE07B68DB68002B0CD1764BED
:10128C001B6A754A23F001031362734B1B6A724A83
:10129C0023F0040313621CE07B68DB68052B0CD184
:1012AC006D4B1B6A6C4A43F0040313626A4B1B6A56
:1012BC00694A43F0010313620BE0674B1B6A664AF1
:1012CC0023F001031362644B1B6A634A23F004038B
:1012DC0013627B68DB68002B15D0FFF75DFB386170
:1012EC000AE0FFF759FB02463B69D31A41F28832F8
:1012FC00934201D90323ABE0574B1B6A03F0020363
:10130C00002BEED014E0FFF747FB38610AE0FFF743
:10131C0043FB02463B69D31A41F28832934201D90E
:10132C00032395E04C4B1B6A03F00203002BEED118
:10133C00FB7D012B05D1484BDB69474A23F08053D9
:10134C00D3617B68DB69002B00F08180424B5B68CA
:10135C0003F00C03082B61D07B68DB69022B46D1B0
:10136C003F4B00221A60FFF717FB386108E0FFF7CC
:10137C0013FB02463B69D31A022B01D9032367E006
:10138C00354B1B6803F00073002BF0D17B681B6A94
:10139C00B3F5803F08D1304B5B6823F400327B6897
:1013AC009B682D4913434B602B4B5B6823F47412E1
:1013BC007B68196A7B685B6A0B43274913434B6054
:1013CC00274B01221A60FFF7E7FA386108E0FFF7B4
:1013DC00E3FA02463B69D31A022B01D9032337E007
:1013EC001D4B1B6803F00073002BF0D02FE01C4B3F
:1013FC0000221A60FFF7D0FA386108E0FFF7CCFA48
:10140C0002463B69D31A022B01D9032320E0124B6D
:10141C001B6803F00073002BF0D118E07B68DB69CC
:10142C00012B01D1012313E00B4B5B68FB60FB68C4
:10143C0003F480327B681B6A9A4206D1FB6803F482
:10144C0070127B685B6A9A4201D0012300E0002392
:10145C0018461837BD4680BD001002400070004091
:10146C006000424280B584B000AF786039607B6820
:10147C00002B01D10123D0E06A4B1B6803F007035A
:10148C003A689A4210D9674B1B6823F007026549EA
:10149C003B6813430B60634B1B6803F007033A680C
:1014AC009A4201D00123B8E07B681B6803F0020369
:1014BC00002B20D07B681B6803F00403002B05D0A5
:1014CC00594B5B68584A43F4E06353607B681B6874
:1014DC0003F00803002B05D0534B5B68524A43F4CE
:1014EC0060535360504B5B6823F0F0027B689B6841
:1014FC004D4913434B607B681B6803F00103002BC1
:10150C0040D07B685B68012B07D1474B1B6803F409
:10151C000033002B15D101237FE07B685B68022B25
:10152C0007D1414B1B6803F00073002B09D1012339
:10153C0073E03D4B1B6803F00203002B01D1012328
:10154C006BE0394B5B6823F003027B685B683649C0
:10155C0013434B60FFF720FAF8600AE0FFF71CFA20
:10156C000246FB68D31A41F28832934201D9032315
:10157C0053E02D4B5B6803F00C027B685B689B00AF
:10158C009A42EBD1274B1B6803F007033A689A4247
:10159C0010D2244B1B6823F0070222493B681343EB
:1015AC000B60204B1B6803F007033A689A4201D08A
:1015BC00012332E07B681B6803F00403002B08D086
:1015CC00194B5B6823F4E0627B68DB6816491343B4
:1015DC004B607B681B6803F00803002B09D0124B8F
:1015EC005B6823F460527B681B69DB000E49134374
:1015FC004B6000F021F802460B4B5B681B0903F0B3
:10160C000F030A49CB5C22FA03F3094A1360094B16
:10161C001B681846FFF77EF9002318461037BD46A5
:10162C0080BD00BF00200240001002404032000884
:10163C00180000201C00002090B48AB000AF2A4B88
:10164C003C1D0FCB84E80F0040F201233B800023AC
:10165C00FB610023BB6100237B6200237B610023C1
:10166C003B62224B5B68FB61FB6903F00C03042BB0
:10167C0002D0082B03D02DE01D4B3B622DE0FB6903
:10168C009B0C03F00F0307F12802134413F8243CBE
:10169C007B61FB6903F48033002B13D0134B5B6825
:1016AC005B0C03F0010307F12802134413F8283CE8
:1016BC00BB617B690E4A02FB03F2BB69B2FBF3F31D
:1016CC007B6204E07B690B4A02FB03F37B627B6A5F
:1016DC003B6202E0064B3B6200BF3B6A1846283770
:1016EC00BD4690BC704700BF30320008001002406D
:1016FC0000127A0000093D0080B400AF024B1B6859
:10170C001846BD4680BC70471800002080B500AF5D
:10171C00FFF7F2FF0246054B5B681B0A03F0070359
:10172C000349CB5C22FA03F3184680BD001002403B
:10173C005032000880B500AFFFF7DEFF0246054BC4
:10174C005B68DB0A03F007030349CB5C22FA03F363
:10175C00184680BD001002405032000880B485B09D
:10176C0000AF78600A4B1B680A4AA2FB03235B0A92
:10177C007A6802FB03F3FB6000BFFB685A1EFA6039
:10178C00002BF9D100BF00BF1437BD4680BC704799
:10179C0018000020D34D621080B582B000AF786085
:1017AC007B68002B01D1012341E07B6893F83D302D
:1017BC00DBB2002B06D17B68002283F83C207868D2
:1017CC00FEF72EFF7B68022283F83D207B681A68A7
:1017DC007B6804331946104600F06AFA7B680122D4
:1017EC0083F846207B68012283F83E207B68012227
:1017FC0083F83F207B68012283F840207B6801221C
:10180C0083F841207B68012283F842207B68012207
:10181C0083F843207B68012283F844207B680122F3
:10182C0083F845207B68012283F83D20002318466D
:10183C000837BD4680BD000080B485B000AF78602D
:10184C007B6893F83D30DBB2012B01D0012335E0EE
:10185C007B68022283F83D207B681B68DA687B6812
:10186C001B6842F00102DA607B681B68164A9342DF
:10187C0009D07B681B68B3F1804F04D07B681B6870
:10188C00124A934211D17B681B689B6803F00703D3
:10189C00FB60FB68062B10D07B681B681A687B68A2
:1018AC001B6842F001021A6007E07B681B681A682B
:1018BC007B681B6842F001021A600023184614373B
:1018CC00BD4680BC704700BF002C014000040040A6
:1018DC0080B582B000AF78607B681B681B6903F031
:1018EC000203022B22D17B681B68DB6803F0020326
:1018FC00022B1BD17B681B686FF002021A617B689C
:10190C0001221A777B681B689B6903F00303002B89
:10191C0003D0786800F0B1F905E0786800F0A4F91C
:10192C00786800F0B3F97B6800221A777B681B6833
:10193C001B6903F00403042B22D17B681B68DB6852
:10194C0003F00403042B1BD17B681B686FF00402AB
:10195C001A617B6802221A777B681B689B6903F407
:10196C004073002B03D0786800F087F905E07868A5
:10197C0000F07AF9786800F089F97B6800221A7710
:10198C007B681B681B6903F00803082B22D17B685A
:10199C001B68DB6803F00803082B1BD17B681B68F2
:1019AC006FF008021A617B6804221A777B681B6847
:1019BC00DB6903F00303002B03D0786800F05DF9BA
:1019CC0005E0786800F050F9786800F05FF97B6802
:1019DC0000221A777B681B681B6903F01003102B1D
:1019EC0022D17B681B68DB6803F01003102B1BD122
:1019FC007B681B686FF010021A617B6808221A77EB
:101A0C007B681B68DB6903F44073002B03D0786898
:101A1C0000F033F905E0786800F026F9786800F0FA
:101A2C0035F97B6800221A777B681B681B6903F009
:101A3C000103012B0ED17B681B68DB6803F00103EB
:101A4C00012B07D17B681B686FF001021A61786863
:101A5C00FEF712FF7B681B681B6903F08003802B69
:101A6C000ED17B681B68DB6803F08003802B07D1E9
:101A7C007B681B686FF080021A61786800F067FA67
:101A8C007B681B681B6903F04003402B0ED17B68FD
:101A9C001B68DB6803F04003402B07D17B681B6895
:101AAC006FF040021A61786800F0F9F87B681B68E7
:101ABC001B6903F02003202B0ED17B681B68DB68AD
:101ACC0003F02003202B07D17B681B686FF02002EA
:101ADC001A61786800F032FA00BF0837BD4680BD45
:101AEC0080B584B000AF786039607B6893F83C3087
:101AFC00012B01D10223B3E07B68012283F83C2047
:101B0C007B68022283F83D207B681B689B68FB6026
:101B1C00FB6823F07703FB60FB6823F47F43FB60D7
:101B2C007B681B68FA689A603B681B68B3F5005FBA
:101B3C003ED0B3F5005F00F28780B3F5805F00F014
:101B4C008580B3F5805F7FD8702B1AD0702B7BD833
:101B5C00602B50D0602B77D8502B3CD0502B73D8A7
:101B6C00402B58D0402B6FD8302B64D0302B6BD8F7
:101B7C00202B60D0202B67D8002B5CD0102B5AD098
:101B8C0062E07B6818683B6899683B685A683B68F8
:101B9C00DB6800F05CF97B681B689B68FB60FB688A
:101BAC0043F07703FB607B681B68FA689A604EE031
:101BBC007B6818683B6899683B685A683B68DB68C7
:101BCC0000F045F97B681B689A687B681B6842F4D7
:101BDC0080429A603BE07B6818683B6859683B68B8
:101BEC00DB681A4600F0BCF87B681B68502118466D
:101BFC0000F013F92BE07B6818683B6859683B6868
:101C0C00DB681A4600F0DAF87B681B68602118461E
:101C1C0000F003F91BE07B6818683B6859683B6867
:101C2C00DB681A4600F09CF87B681B68402118465C
:101C3C0000F0F3F80BE07B681A683B681B681946E8
:101C4C00104600F0EAF802E000BF00E000BF7B683D
:101C5C00012283F83D207B68002283F83C2000237E
:101C6C0018461037BD4680BD80B483B000AF786095
:101C7C0000BF0C37BD4680BC704780B483B000AF4A
:101C8C00786000BF0C37BD4680BC704780B483B011
:101C9C0000AF786000BF0C37BD4680BC704780B485
:101CAC0083B000AF786000BF0C37BD4680BC704776
:101CBC0080B485B000AF786039607B681B68FB60CE
:101CCC007B68254A934207D07B68B3F1804F03D0E1
:101CDC007B68224A934208D1FB6823F07003FB60B7
:101CEC003B685B68FA681343FB607B681A4A934253
:101CFC0007D07B68B3F1804F03D07B68174A9342BF
:101D0C0008D1FB6823F44073FB603B68DB68FA681E
:101D1C001343FB60FB6823F080023B685B69134351
:101D2C00FB607B68FA681A603B689A687B68DA62C9
:101D3C003B681A687B689A627B68074A934203D1B6
:101D4C003B681A697B681A637B6801225A6100BF81
:101D5C001437BD4680BC7047002C01400004004085
:101D6C0080B487B000AFF860B9607A60FB681B6A1A
:101D7C007B61FB681B6A23F00102FB681A62FB683B
:101D8C009B693B613B6923F0F0033B617B681B0162
:101D9C003A6913433B617B6923F00A037B617A69DF
:101DAC00BB6813437B61FB683A699A61FB687A698B
:101DBC001A6200BF1C37BD4680BC704780B487B028
:101DCC0000AFF860B9607A60FB681B6A23F0100200
:101DDC00FB681A62FB689B697B61FB681B6A3B6151
:101DEC007B6923F470437B617B681B037A69134323
:101DFC007B613B6923F0A0033B61BB681B013A6923
:101E0C0013433B61FB687A699A61FB683A691A6211
:101E1C0000BF1C37BD4680BC704780B485B000AF96
:101E2C00786039607B689B68FB60FB6823F070030B
:101E3C00FB603A68FB68134343F00703FB607B6865
:101E4C00FA689A6000BF1437BD4680BC704780B4F6
:101E5C0087B000AFF860B9607A603B60FB689B6844
:101E6C007B617B6923F47F437B613B681A027B684F
:101E7C001A43BB6813437A6913437B61FB687A6925
:101E8C009A6000BF1C37BD4680BC704780B485B0DB
:101E9C0000AF786039607B6893F83C30012B01D13E
:101EAC00022341E07B68012283F83C207B680222FC
:101EBC0083F83D207B681B685B68FB607B681B6854
:101ECC009B68BB60FB6823F07003FB603B681B687E
:101EDC00FA681343FB607B681B68FA685A607B687E
:101EEC001B68144A934209D07B681B68B3F1804F7E
:101EFC0004D07B681B68104A93420CD1BB6823F05A
:101F0C008003BB603B685B68BA681343BB607B684B
:101F1C001B68BA689A607B68012283F83D207B6855
:101F2C00002283F83C20002318461437BD4680BCA1
:101F3C00704700BF002C01400004004080B483B007
:101F4C0000AF786000BF0C37BD4680BC704780B4D2
:101F5C0083B000AF786000BF0C37BD4680BC7047C3
:101F6C0080B582B000AF78607B68002B01D1012373
:101F7C003FE07B6893F83D30DBB2002B06D17B68E9
:101F8C00002283F83C207868FEF76EFB7B682422E5
:101F9C0083F83D207B681B68DA687B681B6822F439
:101FAC000052DA60786800F005F97B681B681A69E2
:101FBC007B681B6822F490421A617B681B685A6923
:101FCC007B681B6822F02A025A617B681B68DA68FE
:101FDC007B681B6842F40052DA607B6800221A644A
:101FEC007B68202283F83D207B68202283F83E20EA
:101FFC00002318460837BD4680BD80B58AB002AFB5
:10200C00F860B9603B601346FB8000237B61FB6882
:10201C0093F83D30DBB2202B7CD1BB68002B02D077
:10202C00FB88002B01D1012375E0FB6893F83C3051
:10203C00012B01D102236EE0FB68012283F83C20C6
:10204C00FB6800221A64FB68212283F83D20FEF70E
:10205C00A3FC7861FB68FA889A84FB68FA88DA84B6
:10206C00FB689B68B3F5805F08D1FB681B69002B8C
:10207C0004D10023FB61BB68BB6103E0BB68FB615F
:10208C000023BB61FB68002283F83C202AE03B68FC
:10209C0000937B6900228021F86800F040F8034629
:1020AC00002B01D0032336E0FB69002B0BD1BB695D
:1020BC001B881A46FB681B68C2F308025A60BB698E
:1020CC000233BB6107E0FB691A78FB681B685A6036
:1020DC00FB690133FB61FB68DB8C9BB2013B9AB261
:1020EC00FB68DA84FB68DB8C9BB2002BCFD13B689E
:1020FC0000937B6900224021F86800F010F8034639
:10210C00002B01D0032306E0FB68202283F83D203E
:10211C00002300E0022318462037BD4680BD80B561
:10212C0084B000AFF860B9603B601346FB712CE0E3
:10213C00BB69B3F1FF3F28D0BB69002B07D0FEF77A
:10214C002BFC02463B68D31ABA699A421DD2FB6833
:10215C001B68DA68FB681B6822F4D072DA60FB68D3
:10216C001B685A69FB681B6822F001025A61FB6804
:10217C00202283F83D20FB68202283F83E20FB6858
:10218C00002283F83C2003230FE0FB681B681A68CD
:10219C00BB681340BA689A420CBF01230023DBB220
:1021AC001A46FB799A42C3D0002318461037BD4615
:1021BC0080BD000080B584B000AF78607B681B6880
:1021CC001B6923F440517B68DA687B681B680A43FF
:1021DC001A617B689A687B681B691A437B685B6928
:1021EC001343BB607B681B68DB6823F4B05323F09C
:1021FC000C037A681268B9680B43D3607B681B6860
:10220C005B6923F440717B689A697B681B680A439D
:10221C005A617B681B682C4A934203D1FFF78AFAF8
:10222C00F86002E0FFF772FAF860FA6813469B0058
:10223C0013449A001A447B685B689B00B2FBF3F36F
:10224C00224AA2FB03235B091901FA6813469B007F
:10225C0013449A001A447B685B689B00B2FBF3F250
:10226C001A4BA3FB02035B09642000FB03F3D31A94
:10227C001B013233154AA2FB03235B0903F0F00365
:10228C001944FA6813469B0013449A001A447B685D
:10229C005B689B00B2FBF3F20C4BA3FB02035B09E4
:1022AC00642000FB03F3D31A1B013233074AA2FB51
:1022BC0003235B0903F00F027B681B680A449A60D6
:1022CC0000BF1037BD4680BD003801401F85EB5163
:1022DC00014B1868704700BF2400002070B5002621
:1022EC000C4D0D4C641BA410A64209D100F082FFCA
:1022FC0000260A4D0A4C641BA410A64205D170BDE1
:10230C0055F8043B98470136EEE755F8043B9847DF
:10231C000136F2E7F0320008F0320008F032000823
:10232C00F432000803460244934200D1704703F88C
:10233C00011BF9E70FB40A4B13B51C6824B1A36950
:10234C0013B9204600F066F805AB2046049AA16844
:10235C00019300F081F902B0BDE8104004B0704761
:10236C0024000020002310B50446C0E90033C0E966
:10237C000433836081814366C281836119460822DC
:10238C005C30FFF7CFFF054B24626362044BA36202
:10239C00044BE362044B236310BD00BF112C0008F7
:1023AC00332C00086B2C00088F2C0008014900F01E
:1023BC00AFB800BF692F000870B568254A1E554399
:1023CC000E4605F1740100F0C5F8044640B1002139
:1023DC00C0E900160C30A06005F16802FFF7A2FFFF
:1023EC00204670BD014800F0B3B800BF8801002042
:1023FC00014800F0AEB800BF88010020014800F091
:10240C00A7B800BF83010020014800F0A2B800BFAC
:10241C008301002010B50446FFF7F0FFA3691BB140
:10242C00BDE81040FFF7F0BFC4E912332365134B2E
:10243C00134A1B68A262A34208BF0123204608BFAF
:10244C00A36100F01FF86060204600F01BF8A0604C
:10245C00204600F017F800220421E0606068FFF7C6
:10246C0081FF01220921A068FFF77CFF02221221C3
:10247C00E068FFF777FF0123A361D1E7583200082A
:10248C00B9230008F8B50746FFF7ACFF1E4B1E68D2
:10249C00B36913B93046FFF7BDFF4836D6E90134AE
:1024AC00013B03D533680BB33668F7E7B4F90C502E
:1024BC00D5B9164B04F15800E360656600F047F897
:1024CC00FFF796FF08222946C4E90155C4E90455D3
:1024DC002560A56104F15C00FFF724FFC4E90D55EC
:1024EC00C4E912552046F8BD6834D9E704213846B2
:1024FC00FFF762FF044630600028D5D1FFF778FF64
:10250C000C233B60EEE700BF583200080100FFFFD0
:10251C002DE9F84306468846002700F14804D4E923
:10252C000195B9F1010905D52468002CF7D138467D
:10253C00BDE8F883AB89012B07D9B5F90E3001330F
:10254C0003D029463046C04707436835E9E7704752
:10255C0070477047F8B5CD1C25F0030508350C2DD8
:10256C0038BF0C25002D064601DBA94203D90C23EC
:10257C0033600020F8BD00F0B1FD21490A68144613
:10258C009CB9204F3B6823B92146304600F02AFB0A
:10259C0038602946304600F025FB431C23D10C2320
:1025AC003046336000F0A0FDE3E723685B1B17D4D3
:1025BC000B2B03D923601C44256004E06368A24202
:1025CC000CBF0B605360304600F08EFD04F10B0025
:1025DC00231D20F00700C21ACCD01B1AA350C9E748
:1025EC0022466468CCE7C41C24F00304A042E3D068
:1025FC00211A304600F0F6FA0130DDD1CFE700BFEA
:10260C00E8000020EC000020936810B4013B002B84
:10261C00936007DA9469A34201DB0A2902D110BC4A
:10262C0000F034BB1368581C10601970084610BCBD
:10263C007047F8B506460F461446D518AC4201D182
:10264C00002007E03A46304614F8011BFFF7DCFF88
:10265C00431CF3D1F8BD00002DE9F04F0D46144694
:10266C00984606469DB018B183690BB9FFF7D2FEA8
:10267C00894B9D421BD175686B6ED90705D4AB890C
:10268C009A0502D4A86DFFF763FFAB891B0701D530
:10269C002B69EBB92946304600F05CFBC0B16B6E80
:1026AC00DC070ED54FF0FF301DB0BDE8F08F7B4B33
:1026BC009D4201D1B568DFE7794B9D4208BFF568B3
:1026CC00DAE7AB899805EDD4A86DFFF742FFE9E78F
:1026DC000023099320238DF8293030234FF0010972
:1026EC00CDF80C80DFF8BC818DF82A3023469A4651
:1026FC0013F8012B0AB1252AF9D1BAEB040B0BD034
:10270C005B46224629463046FFF793FF013000F026
:10271C00AA80099A5A4409929AF80030002B00F0CA
:10272C00A28000234FF0FF32CDE905230AF1010A04
:10273C00049307938DF853301A935446052214F8DA
:10274C00011B584800F0BCFC049AD8B9D10644BF10
:10275C0020238DF85330130744BF2B238DF85330AF
:10276C009AF800302A2B15D0544600204FF00A0C52
:10277C00079A214611F8013B303B092B4ED9B0B1D9
:10278C00079214E0A0EB080309FA03F31343A246E3
:10279C000493D2E7039B191D1B680391002BBBBF4D
:1027AC005B4242F0020207930793B8BF049223786E
:1027BC002E2B0CD163782A2B35D1039B02341A1D96
:1027CC001B680392002BB8BF4FF0FF330593DFF863
:1027DC00E4A003225046217800F072FC40B1402363
:1027EC00A0EB0A0003FA00F0049B013403430493AA
:1027FC0014F8011B06222C488DF8281000F060FC00
:10280C0000283FD0294B1BBB039B073323F0070346
:10281C0008330393099B3B44099367E70C4601205B
:10282C000CFB0232A5E700234FF00A0C19460134C9
:10283C000593204610F8012B303A092A03D9002BB6
:10284C00C5D00591C3E7044601230CFB0121F0E739
:10285C0003AB00932A463046154B04A9AFF3008016
:10286C000746781CD6D16B6ED90705D4AB899A056F
:10287C0002D4A86DFFF76DFEAB895B063FF512AF76
:10288C00099811E703AB00932A463046084B04A97C
:10289C0000F082F8E4E700BF7C3200089C320008AC
:1028AC005C320008BC320008C63200080000000090
:1028BC003F260008C23200082DE9F047164699461B
:1028CC008A680B6907469342B8BF1346336091F888
:1028DC0043200C46DDF820800AB1013333602368B5
:1028EC00990642BF336802333360256815F006053C
:1028FC0006D104F1190AE36832689B1AAB4228DC52
:10290C0094F84320131E226818BF012392062DD47D
:10291C004946384604F14302C047013020D02368B1
:10292C00E56803F00603042B18BF002532684FF04E
:10293C000006A36808BFAD1A226908BF25EAE57531
:10294C009342C4BF9B1AED181A34B5421AD1002019
:10295C0008E00123524649463846C047013003D1AE
:10296C004FF0FF30BDE8F0870135C4E73020E118A7
:10297C0081F843005A1C94F845102244023382F823
:10298C004310C5E70123224649463846C04701306B
:10299C00E6D00136D9E700002DE9FF470C46277E2B
:1029AC009146782F80469A460C9904F1430207D839
:1029BC00622F0AD8002F00F0D980582F00F0A48085
:1029CC0004F1420684F842703AE0A7F16303152B38
:1029DC00F6D801A050F823F03D2A0008512A00082F
:1029EC00CD290008CD290008CD290008CD290008E3
:1029FC00512A0008CD290008CD290008CD2900084E
:102A0C00CD2900085F2B0008812A0008412B000803
:102A1C00CD290008CD290008812B0008CD290008FC
:102A2C00812A0008CD290008CD290008492B00086F
:102A3C000B6804F142061A1D1B680A6084F84230C8
:102A4C000123A4E0256808682E0600F104030AD5CA
:102A5C0005680B60002D03DA2D236D4284F843309A
:102A6C000A235E4819E015F0400F05680B6018BF8B
:102A7C002DB2EFE70B682568181D0860280601D5F4
:102A8C001D6802E06906FBD51D886F2F0CBF08235B
:102A9C000A235248002184F843106668002EA8BF10
:102AAC002168A660A4BF21F0040121600DB9002E9D
:102ABC004DD01646B5FBF3F103FB1157C75D06F875
:102ACC00017D2F46BB420D46F4D9082B0BD1236850
:102ADC00DF0708D5236961689942DEBF302306F809
:102AEC00013C06F1FF36921B22614B4621464046C3
:102AFC00CDF800A003AAFFF7DFFE01304CD14FF058
:102B0C00FF3004B0BDE8F087344884F845700E6897
:102B1C00236856F8045B1F060E6014D5D90744BF12
:102B2C0043F0200323601DB9236823F020032360A6
:102B3C001023AFE7236843F0200323607823284851
:102B4C0084F84530E3E75E0648BFADB2E6E71646CB
:102B5C00BBE70B6826681D1D60690D6035061B6898
:102B6C0001D5186002E07106FBD5188000231646CB
:102B7C002361BAE70B681A1D0A601E6800213046F3
:102B8C00626800F09DFA08B1801B60606368236185
:102B9C00002384F84330A8E732464946404623696F
:102BAC00D0470130ABD023689B0713D4E068039B5C
:102BBC009842B8BF1846A4E701233246494640461E
:102BCC00D04701309BD00135E36803995B1AAB42C7
:102BDC00F2DCEBE7002504F11906F5E7CD3200082D
:102BEC00DE32000838B50023054D044608462B603C
:102BFC00FDF706FE431C02D12B6803B1236038BDE0
:102C0C008C01002010B50C46B1F90E1000F0BEFA84
:102C1C000028ABBF636DA3891B1823F48053ACBF92
:102C2C006365A38110BD2DE9F0411F468B890546D4
:102C3C00DB050C46164605D502230022B1F90E1011
:102C4C0000F0C8F9A389324623F48053A3812846A7
:102C5C003B46B4F90E10BDE8F04100F069B810B570
:102C6C000C46B1F90E1000F0B5F9431CA38915BF41
:102C7C00606523F4805343F48053A38118BFA38170
:102C8C0010BDB1F90E1000F0D3B80000F8B50E4627
:102C9C001446054618B183690BB9FFF7BBFB214BF2
:102CAC009C422BD16C68A369A360A3891A072FD50A
:102CBC0023696BB323692068F6B2C01A636937467F
:102CCC00834204DC2146284600F048F930BBA36857
:102CDC000130013BA36023685A1C22601E7063699B
:102CEC00834204D0A389DB0706D50A2E04D12146E2
:102CFC00284600F033F988B93846F8BD0A4B9C4297
:102D0C0001D1AC68CFE7094B9C4208BFEC68CAE71D
:102D1C002146284600F01EF80028CBD04FF0FF3794
:102D2C00EAE700BF7C3200089C3200085C320008E5
:102D3C0038B50446084611460022054D2A601A464D
:102D4C00FDF7BCFB431C02D12B6803B1236038BDDB
:102D5C008C010020324B70B51D6806460C4625B11F
:102D6C00AB6913B92846FFF755FB2E4B9C420FD18C
:102D7C006C68A389B4F90C2019072CD4DD0611D486
:102D8C000923336042F040034FF0FF30A3813EE053
:102D9C00254B9C4201D1AC68EBE7244B9C4208BF0D
:102DAC00EC68E6E7580712D5616B41B104F14403B6
:102DBC00994202D0304600F09DF900236363A38949
:102DCC0023F02403A3810023636023692360A38978
:102DDC0043F00803A38123694BB9A38903F420733F
:102DEC00B3F5007F03D02146304600F029F9A089C5
:102DFC00B4F90C2010F001030AD00023A36063691E
:102E0C005B42A361236943B910F08000BAD170BD55
:102E1C00810758BF6369A360F4E70020F7E700BFA0
:102E2C00240000207C3200089C3200085C32000830
:102E3C0038B50023054D044608462B60FDF7AFFC62
:102E4C00431C02D12B6803B1236038BD8C010020D8
:102E5C008A892DE9F041054610070C4658D44B6879
:102E6C00002B05DC0B6C002B02DC0020BDE8F08194
:102E7C00E66A002EF9D0002312F480522F682B60E2
:102E8C0032D0606DA3895A0705D56368C01A636B8D
:102E9C000BB1236CC01A00230246E66A2846216A4D
:102EAC00B047431CA38906D129681D292CD82A4A6E
:102EBC00CA40D60728D5002262602269D904226054
:102ECC0004D5421C01D12B6803B96065616B2F607E
:102EDC000029CAD004F14403994202D0284600F0DC
:102EEC0009F900206063C1E7216A01232846B04735
:102EFC00411CC7D12B68002BC4D01D2B01D0162B25
:102F0C0001D12F60B1E7A38943F04003A381ADE762
:102F1C000F69002FA9D0930718BF00230E6808BFB4
:102F2C004B69A6EB07080F608B60B8F1000F9CDDB6
:102F3C0043463A462846216AA66AB047002806DC72
:102F4C00A3894FF0FF3043F04003A3818EE7074481
:102F5C00A8EB0008E9E700BF0100402038B50B6979
:102F6C0005460C4613B90025284638BD18B18369AF
:102F7C000BB9FFF74FFA144B9C421BD16C68B4F998
:102F8C000C30002BEFD0626ED00704D4990502D41C
:102F9C00A06DFFF7DDFA28462146FFF759FF636E57
:102FAC000546DA07E0D4A3899B05DDD4A06DFFF7B5
:102FBC00D0FAD9E7054B9C4201D1AC68DFE7044B52
:102FCC009C4208BFEC68DAE77C3200089C320008AF
:102FDC005C32000838B50446084611460022054DFF
:102FEC002A601A46FDF7FFFB431C02D12B6803B184
:102FFC00236038BD8C01002070B50E46B1F90E105F
:10300C00144600291D4696B007DA00232B60B389BD
:10301C001A0610D44FF480630EE06A4600F0C8F82C
:10302C000028F2DB019A02F47042A2F500535A42D6
:10303C005A412A60EEE740230020236016B070BD91
:10304C008B8973B59D0706460C4607D504F14703DB
:10305C00236023610123636102B070BD6A4601AB3A
:10306C00FFF7CAFF009905463046FFF773FA48B9D7
:10307C00B4F90C309A05EFD423F0030343F00203A8
:10308C00A381E3E70D4BB362A389206043F0800377
:10309C00A381009B20616361019B5BB13046B4F955
:1030AC000E1000F097F828B1A38923F0030343F026
:1030BC000103A381A0890543A581CDE7B9230008AD
:1030CC00034610B5C9B202449342184601D1002000
:1030DC0003E0047801338C42F6D110BD0148FFF7B0
:1030EC0037BA00BF840100200148FFF732BA00BF95
:1030FC008401002038B50546002943D051F8043C22
:10310C000C1F002BB8BFE418FFF7E8FF1E4A13682A
:10311C00104633B9636014602846BDE83840FFF7A9
:10312C00E3BFA3420AD921686218934201BF1A680F
:10313C005B685218226063600460EDE71A465B68B6
:10314C000BB1A342FAD911685018A0420BD12068D8
:10315C000144501883421160DED118685B68014449
:10316C0011605360D8E702D90C232B60D4E7206898
:10317C0021188B4201BF19685B68091821606360D4
:10318C005460C9E738BD00BFE800002038B50446DC
:10319C00084611460022054D2A601A46FDF7E2FA50
:1031AC00431C02D12B6803B1236038BD8C01002075
:1031BC0038B50023064D0446084611462B60FDF732
:1031CC00F9FA431C02D12B6803B1236038BD00BF50
:1031DC008C01002038B50023054D044608462B60B1
:1031EC00FDF7F7FA431C02D12B6803B1236038BDFD
:1031FC008C010020F8B500BFF8BC08BC9E46704797
:0C320C00F8B500BFF8BC08BC9E46704737
:1032180043757272656E74204E756D6265722069B1
:10322800733A2025640D0A000203040506070809FD
:103238000A0B0C0D0E0F101000000000000000001B
:103248000102030406070809000000000102030444
:10325800280000200000000000000000000000001E
:103268000000000000000000000000000000000056
:103278000000000000000000000000000000000046
:103288000000000000000000000000000000000036
:103298000000000000000000000000000000000026
:1032A8000000000000000000000000000000000016
:1032B80000000000232D302B2000686C4C00656650
:1032C800674546470030313233343536373839416F
:1032D8004243444546003031323334353637383985
:0832E800616263646566000089
:0432F00031010008A0
:0432F4000D010008C0
:1032F80000080140000801400008014000080140A2
:1033080000100020004000800024F400100000009D
:103318000100000028000020000000007C320008A6
:103328009C3200085C320008000000000000000029
:103338000000000000000000000000000000000085
:103348000000000000000000000000000000000075
:103358000000000000000000000000000000000065
:103368000000000000000000000000000000000055
:0833780000000000000000004D
:04000005080008A93E
:00000001FF
